:100000000C9434000C9451000C9451000C941F0477
:100010000C9451000C9451000C9451000C9451001C
:100020000C9451000C9451000C9451000C9451000C
:100030000C9451000C9451000C9451000C945100FC
:100040000C9451000C9451000C947F040C945100BA
:100050000C9451000C9451000C9451000C945100DC
:100060000C9451000C94510011241FBECFEFD8E026
:10007000DEBFCDBF12E0A0E0B1E0EEEEF1E202C0E3
:1000800005900D92A43BB107D9F723E0A4EBB2E0B1
:1000900001C01D92A63FB207E1F70E94D1090C945E
:1000A000F5100C9400009091C00095FFFCCF809358
:1000B000C60008954F925F926F927F928F929F92A7
:1000C000AF92BF92CF92DF92EF92FF920F931F9366
:1000D000CF93DF93CDB7DEB72C970FB6F894DEBF82
:1000E0000FBECDBF4A015B018E010F5F1F4F811410
:1000F0009104A10490E8B906D9F58A30A9F08031BD
:1001000041F1F8017F01E01AF10A81918111FACFE2
:10011000E00EF11EE016F10609F46EC0F7018291BF
:100120007F010E945300F6CF98E3998384E38A838A
:1001300026E32B8323E32C839D838E8397E39F8386
:10014000888781E3898782E38A878DE28B871C8693
:10015000D8CF80E389838A838B838C838D838E833E
:100160008F8388E388878DE289871A861B86EFCF85
:1001700068019E01235F3F4FF8011192E217F307D8
:10018000E1F7B501A401B7FE07C044275527BA011E
:10019000481959096A097B09A42FF52FE62F972FD3
:1001A000F12CE12C482E880F5508660877086A2F35
:1001B0007F2F8E2FA30192010E949410F60160837D
:1001C0006A30C4F4605D6083FFEFEF1AFF0AA22F6C
:1001D000F32FE42F952F8FEFC81AD80A232B242B47
:1001E000252B29F7B7FE8DCFF801EE0DFF1D8DE20F
:1001F000808387CF695CE7CF2C960FB6F894DEBF7B
:100200000FBECDBFDF91CF911F910F91FF90EF9067
:10021000DF90CF90BF90AF909F908F907F906F9026
:100220005F904F9008950F931F93CF93DF93EC014E
:100230008C0108531F4F8991882329F00E94530095
:10024000C017D107C1F7DF91CF911F910F9108958A
:1002500021EA3FE04091C00047FD07C0215031092D
:10026000C9F70197A9F780E0089581E0089580918A
:10027000C00087FFFCCF8091C600089566BD85BD94
:10028000A89BFECFA89A15BC0895CF93DF93D82FD3
:10029000C62F64E685E00E943E01E1ECF0E01082AA
:1002A000D093C500C093C40082E08093C00088E171
:1002B000808386E08093C200DF91CF91089586E22B
:1002C00092E00C941301CF93DF93C82F262FD42FE5
:1002D0001092ED031092EE031092EF031092F003D0
:1002E0001092F1031092F2031092F3031092F403B0
:1002F0001092F503109281001092850010928400F4
:100300008091680081608093680080916B008062BA
:1003100080936B008091F1038217E4F38091680071
:100320008E7F8093680080916B008F7D80936B003F
:100330006091ED037091EE038091EF039091F003D3
:10034000022E000C330B440B550B0E949410D1115C
:1003500009C057FF07C050954095309521953F4FF4
:100360004F4F5F4FCC23B9F0E091BA02F091BB023E
:10037000EE0FFF1FEE0FFF1FEC51FD4F2083318367
:10038000428353838091BA029091BB02019690936D
:10039000BB028093BA02CA01B901DF91CF910895DF
:1003A000BF92CF92DF92EF92FF920F931F93CF9362
:1003B000DF939091C1009F7E9093C100789492E06A
:1003C0009093B90281113CC0C0919A03C15F8EE243
:1003D0000E945300C150C093660040E06091B90292
:1003E00080E00E946301C13E90F7683E7340810542
:1003F00091056CF71091660082E08093B90294E851
:10040000C92E93E0D92EE12CF12CD0E08EE20E948F
:1004100053000091B902BD2EBC0ECB2DCD1BD431A3
:1004200008F073C0C093660040E0602F80E00E9437
:1004300063016C157D058E059F05E4F1DF5FEDCF4F
:10044000DFE08EE20E945300DF5FD093660040E061
:100450006091B90280E00E946301D03290F3683E5F
:100460007340810591056CF71091660082E08093DE
:10047000B90284E8C82E83E0D82EE12CF12CC0E02C
:100480008EE20E9453000091B902BD2EBC1ADB2DF2
:10049000DC0FC43108F046C0D093660040E0602F06
:1004A00080E00E9463016C157D058E059F0584F137
:1004B000CF5FEDCF1091660084E6C81AD108E1083D
:1004C000F10809F0A3CF40E06091B90280E00E94FA
:1004D000630180916600809399038091C1008061DF
:1004E0008093C100C5E0D0E062EB85E00E943E0150
:1004F0002197D1F7F894DF91CF911F910F91FF9041
:10050000EF90DF90CF90BF90089510936600D4CF06
:100510001091660084E6C81AD108E108F10809F0D4
:10052000AFCFD1CF10936600F5CFCF93DF93CDB788
:10053000DEB7DA950FB6F894DEBF0FBECDBF0091DF
:10054000D4021091D5020E945F0189E491E00E94DB
:10055000B80980E191E00E9413018FEF90E00E94C2
:1005600028018823B1F38091C600873591F068F4A3
:10057000823581F188E19AE00FB6F894A8958093CE
:1005800060000FBE90936000FFCF823719F187376C
:1005900089F78FE191E00E941301B12CA12CCE01CB
:1005A00001961C010E943701D12CC12C823281F1AD
:1005B0000E94370121E090E0811101C020E0C22EAD
:1005C000D92E89E99AE32091C00027FD18C0019730
:1005D000D1F7F7CF0E945F0140E0B8018FE40E949D
:1005E0008F068F3F29F484E191E00E941301C2CF6E
:1005F0008091D6029091D7020E944C07BBCF809188
:10060000C6008823F1F29FEFC91AD90A8232C9F6CF
:10061000F12CE12C90E0911139C029E93AE3809165
:10062000C00087FD04C021503109C9F7F6CF809181
:10063000C600882391F3EFEFCE1ADE0A823209F466
:10064000C9C09701AC14BD04ECF48A3011F08D30B0
:1006500049F4FE01EE0DFF1D8081811115C0F1E00E
:10066000EF1AF10897012F5F3F4FF101EE0DFF1DCB
:1006700080832F3F310534F08D3021F091E08111DE
:1006800001C090E07901C7CF80E0ECCF27012FEFC8
:10069000421A520A0E94ED05F101EE0DFF1D108273
:1006A00085B1836085B95101712C612C4801821894
:1006B0009308B4016A0D7B1DE090D602F090D7023A
:1006C0006E157F0564F4F50141915F0189E40E9494
:1006D0008F06FFEF6F1A7F0A6414750451F7C30188
:1006E000800F911FE816F90609F066C040E0B701D7
:1006F0006150710989E40E948F0683E095B19C7F67
:1007000095B9823021F50E94ED0585B1836085B9E8
:10071000CE0101965C016C01870104191509081BC3
:10072000190BB8016C0D7D1D8091D6029091D702F6
:100730006817790764F4F60141916F0189E40E941A
:100740008F06C6018A199B094816590651F70E945F
:10075000ED0585B18C7F85B98AE391E00E94130194
:100760000E94ED054F2D70E060E089E40E948F0645
:100770004E2D61E070E089E40E948F0640E070E059
:1007800060E08FE40E948F06182F40E061E070E087
:100790008FE40E948F06412F50E0542F4427480FCA
:1007A000511D052E000C660B770B80E10E945A004C
:1007B0000E943701C70120CF21E0621A7108060D9F
:1007C000171D85B18C7F85B981E391E00E941301EB
:1007D0005601E8CE85B1836085B927018FEF481AAD
:1007E000580AE1E0F0E0EC0FFD1FEE0DFF1D108256
:1007F0007201E00EF11EC090D602D090D70282E0C6
:10080000EC14FD040CF47ACFFE0131967F01560101
:10081000F1E0AF1AB1080A151B0554F4F701419134
:100820007F01B80189E40E948F060F5F1F4FF3CF4D
:1008300040E0B50189E40E948F0676015ECF1F92E9
:100840000F920FB60F9211242F933F934F935F9304
:100850006F937F938F939F93AF93BF93809181000A
:1008600081111EC01092F2031092F3031092F40350
:100870001092F503109285001092840082E080931C
:100880008100BF91AF919F918F917F916F915F9107
:100890004F913F912F910F900FBE0F901F90189581
:1008A000109281008091F1038F5F8093F10380911A
:1008B000ED039091EE03A091EF03B091F00340910E
:1008C000F2035091F3036091F4037091F5032091CA
:1008D000840030918500840F951FA61FB71F905884
:1008E000A109B109820F931FA11DB11D8093ED03D2
:1008F0009093EE03A093EF03B093F003C2CF1F9247
:100900000F920FB60F9211242F933F934F935F9343
:100910008F939F93EF93FF93E091C600E153E631ED
:1009200008F0F7C0F0E0E956FB4F0C94B310AD04AB
:1009300069056B056D056F0571057305750577050F
:10094000850589058905890589058905890579054B
:100950007B057D057F058105830581E02091EB0303
:100960003091EC032330310509F412C10CF0D3C0EF
:100970002130310509F40CC12230310509F4E0C001
:100980002091EB033091EC03293031050CF486C043
:100990004091EB035091EC032091E7033091E80381
:1009A000421753070CF07AC02091EB033091EC030F
:1009B000237033272130310541F490E1899F900164
:1009C00011243093EA032093E9032091EB03309143
:1009D000EC03237033272230310551F42091E903D1
:1009E0003091EA03280F311D3093EA032093E90385
:1009F0002091EB033091EC03237033272330310532
:100A000041F490E1899F9001112430939F0320933A
:100A10009E032091EB033091EC0323703327232BAB
:100A2000E9F520919E0330919F03820F932F911D32
:100A300090939F0380939E0380919E0390919F03C8
:100A4000982F882790939F0380939E0320919E0365
:100A500030919F038091E9039091EA03820F931FE5
:100A60009093EA038093E903E091E60381E08E0F1F
:100A70008093E6038091E9039091EA03F0E0EE0FA2
:100A8000FF1FE056FC4F9183808380919C039091DF
:100A90009D03019690939D0380939C038091EB03AB
:100AA0009091EC0301969093EC038093EB0380917B
:100AB000E6038F718093E603FF91EF919F918F91F1
:100AC0005F914F913F912F910F900FBE0F901F900C
:100AD000189582E043CF83E041CF84E03FCF85E0AB
:100AE0003DCF86E03BCF87E039CF88E037CF89E044
:100AF00035CF8AE033CF8BE031CF8CE02FCF8DE044
:100B00002DCF8EE02BCF8FE029CF1092EC031092E7
:100B1000EB0380E023CF2530310509F453C00CF4FA
:100B200040C02630310509F02BCF2091E9033091E8
:100B3000EA03280F311D3093EA032093E90316C01E
:100B40002091E9033091EA03280F311D3093EA0325
:100B50002093E9032091E9033091EA03220F331F28
:100B6000275F3F4F3093E8032093E703E091E603CC
:100B700091E09E0F9093E6032091E9033091EA0300
:100B8000F0E0EE0FFF1FE056FC4F31832083F8CEDC
:100B900090E1899F900111243093EA032093E903A7
:100BA000EFCE2091E9033091EA03280F311D3093F5
:100BB000EA032093E9032091E9033091EA03322FFD
:100BC0002227EACF4091E9035091EA0390E1899FFF
:100BD00090011124240F351FDFCF82E090E00E94A6
:100BE0002801813019F48091C600F7CF08950000E4
:100BF0000000000000000895CF92DF92FF920F9353
:100C00001F93CF93DF93EB01F42EC12C98E4D92EE0
:100C1000883441F08C3419F0D12CC12C03C0C12C84
:100C200080E4D82E10E000E095B18091E10280953B
:100C3000892385B98091E3029601002E02C0220F1C
:100C4000331F0A94E2F795B137FF60C0892B85B94D
:100C500085B19091E102892B85B90E94F7050F5F5C
:100C60001F4F0031110501F710E000E095B18091B0
:100C7000E1028095892385B98091E3029E01002ECF
:100C800001C0220F0A94EAF795B127FF42C0892BD1
:100C900085B985B19091E102892B85B90E94F7054C
:100CA0000F5F1F4F0830110509F710E000E0CF2D4E
:100CB000D0E095B18091E1028095892385B980913A
:100CC000E3029E01002E01C0220F0A94EAF795B1BB
:100CD00027FF22C0892B85B985B19091E102892B2C
:100CE00085B90E94F7050F5F1F4F0830110509F7FE
:100CF00095B18091E1028095892385B9DF91CF91EB
:100D00001F910F91FF90DF90CF90089580958923D8
:100D10009ECF80958923BCCF80958923DCCFAF926D
:100D2000BF92CF92DF92EF92FF920F931F93CF93D8
:100D3000DF93B82E8B01C42FE8EBE80FF0E0E05012
:100D4000FF4FE080D12CC12CF12C95B18091E102B4
:100D50008095892385B98091E30297010C2C01C00D
:100D6000220F0A94EAF795B127FF89C0892B85B92C
:100D700085B19091E102892B85B90E94F7054FEF6B
:100D8000C41AD40A58E0C516D104F9F6F12CE12CA6
:100D900095B18091E1028095892385B98091E30224
:100DA00098010E2C02C0220F331F0A94E2F795B16E
:100DB00037FF68C0892B85B985B19091E102892BF5
:100DC00085B90E94F7058FEFE81AF80A90E1E91655
:100DD000F104F1F687E0C82ED12CA12C0C2E000CCA
:100DE000DD0B07E010E0EE24E394F12C95B1809147
:100DF000E1028095892385B98091E30249E495B1A8
:100E0000B41243C098012C193D09AE0102C0440F31
:100E1000551F2A95E2F747FF38C0892B85B985B160
:100E20009091E102892B85B90E94F70583B19091D9
:100E3000E202892339F0C7010C2C01C0880F0A9403
:100E4000EAF7A82A51E0C51AD10880F695B1809139
:100E5000E1028095892385B997E5B91219C06CED37
:100E600085E00E943E018A2DDF91CF911F910F9165
:100E7000FF90EF90DF90CF90BF90AF900895809556
:100E8000892375CF8095892396CF80958923C6CFF6
:100E900049E4B412E8CFE3CF0F931F93CF93DF93CE
:100EA0008C01C091D402D091D502C017D107ECF4C7
:100EB0000E945F01AE010D2E000C660B770B80E1E6
:100EC0000E945A008EE792E00E941301BE01219613
:100ED00040E08FE40E948F06882339F30E9453007C
:100EE0006CED85E00E943E01F1CFDF91CF911F9123
:100EF0000F910C945F014F925F926F927F929F923D
:100F0000AF92BF92CF92DF92EF92FF920F931F9317
:100F1000CF93DF938C016B012C01712C612C32017A
:100F200055244424460E571E611C711CD0E0C0E0BD
:100F300095B18091E1028095892385B98091E30282
:100F400098010C2E02C0220F331F0A94E2F795B1CC
:100F500037FF58C0892B85B985B19091E102892B63
:100F600085B90E94F7052196C031D10509F7D0E077
:100F7000C0E0912C8FE0E82EF12C01E010E097E02A
:100F8000A92EB12C95B18091E1028095892385B974
:100F90008091E30296010C2E02C0220F331F0A94A7
:100FA000E2F795B137FF31C0892B85B985B19091B2
:100FB000E102892B85B90E94F705411451046104AF
:100FC00020E57206A9F020F5411481E0580661047D
:100FD00080E3780669F0411492E05906610490E3D9
:100FE000790631F041145104610420E37206F9F4EA
:100FF000C830D105E4F083B19091E2028923B9F0C1
:10100000C7014DC080958923A6CF80958923CDCF78
:1010100041145104610438E5730609F44AC038F5F7
:101020004114510498E0690690E5790609F3219688
:10103000C031D10509F0A6CF95B18091E10280952C
:10104000892385B962EB85E00E943E01892DDF91FD
:10105000CF911F910F91FF90EF90DF90CF90BF90B5
:10106000AF909F907F906F905F904F900895411444
:10107000510428E0620628E5720609F4B9CF41144C
:10108000510433E563063CEA730689F6C830D1059E
:1010900074F683B19091E202892349F2C5018C1B59
:1010A0009D0B980102C0220F331F8A95E2F7922A06
:1010B000BECFCA30D1050CF4BACF9DCF40E0BC0101
:1010C00087E50E948F061092CE0208950F931F931A
:1010D000CF93DF93C1E0D1E08091B802882309F477
:1010E00079C08091B80281508093B802D093CE022B
:1010F0009091C9028091E6039817D1F3E091C9025B
:10110000F0E0EE0FFF1FE056FC4F4081118140934D
:10111000C4021093C5028091C9028F5F8093C902F7
:101120008091C9028F718093C9026091B60270915B
:10113000B7028CE40E94FC056091B6027091B70280
:10114000412F88E40E94FC058091B6029091B7027D
:1011500001969093B7028093B6028091CC02909151
:10116000CD0201969093CD028093CC028091C00273
:1011700081508093C0028091D2029091D302019657
:101180009093D3028093D2020091B6021091B702DD
:101190008091DC029091DD020817190709F09CCFBD
:1011A0006091BD027091BE0240E087E50E948F060B
:1011B0001092CE021092B7021092B6020093C002B3
:1011C0008091BF028091BF02882309F485CFC0932C
:1011D000CA0282CFDF91CF911F910F910895809124
:1011E000C1029091C2029093CD028093CC022091D3
:1011F000DA023091DB02282339233093BE02209398
:10120000BD02AC01421B530B5093B7024093B60290
:101210002091B6023091B70287708093BF0280910F
:10122000DC02821B8093C00208959091C9028091D4
:10123000E6039817D1F3E091C902F0E0EE0FFF1F2B
:10124000E056FC4F80818093C3029091C9029F5F5A
:101250009093C9029091C9029F719093C902982FEF
:1012600087FF02C091E0980F95959093B8029091F6
:10127000CF0290311CF491E09093C8028093CF028A
:101280009091C9028091E6039817D1F3E091C902C9
:10129000F0E0EE0FFF1FE056FC4F3081218180917E
:1012A000C9028F5F8093C9028091C9028F718093B8
:1012B000C902832F922F97FD01969595879590935C
:1012C000C2028093C1022091D0023091D1022F5FDF
:1012D0003F4F3093D1022093D0024091CC025091E5
:1012E000CD028417950741F41092CA0285B123FFFD
:1012F0002EC0836085B908950097C1F34091DA024A
:101300005091DB02842395236091BD027091BE024F
:101310004091DC025091DD02460F571F48175907D4
:101320006CF441E04093CB021092BC028617970701
:10133000E9F61092CB021092BC02D6CF8417950723
:10134000A9F71092CB0241E04093BC02EFCF8C7F13
:10135000D1CFCF93DF93EC01888199810E948610D1
:1013600088819981019699838883DF91CF9108952F
:101370000F931F93CF93DF93EC018C010F5A1F4FF4
:10138000CE010E947E10882339F02196C017D10724
:1013900019F00E945300F4CFDF91CF911F910F916C
:1013A0000895CF93DF9300D0CDB7DEB704B603FE28
:1013B00003C081E080939B03A89584B7877F84BF97
:1013C000809160008861809360001092600080913D
:1013D000660080939A038FEF93E00E947E10182F8F
:1013E00080EF810F803E40F48EEF93E00E947E10EC
:1013F000181302C01093660082E08093BA008091B7
:101400007C00806480937C0085B78F7E85BF14B894
:1014100017B81AB88FEF85B988B98BB9439860E1CE
:1014200080E00E94450105E010E062EB85E00E944B
:101430003E0101501109C9F783E084B985B18C7F61
:1014400085B98AEF93E00E947E10811106C183E482
:1014500091E00E94130180E00E94D001809166001B
:101460008F5F80936600789440E062E080E00E94A5
:1014700063016B017C01809166008250809366005D
:1014800040E062E080E00E946301209166002F5FEF
:101490002093660025EFC21621E0D206E104F10494
:1014A0002CF4653F7140810591053CF088E591E0A1
:1014B0000E94130181E00E94D00110919903612FD5
:1014C0008FEF93E00E948610612F8EEF93E00E94D1
:1014D000861060919A038DEF93E00E94861089E850
:1014E00091E00E94130140919A0350E070E060E0A7
:1014F0008AE00E945A0081EA91E00E941301409123
:10150000990350E070E060E08AE00E945A000E9477
:101510005F01789441E062E080E00E9463019B01FA
:10152000AC01A4E6B0E00E94B91020E030E840E051
:1015300050E00E94941069017A0185EB91E0C1149A
:10154000D104E104F10459F08CEC91E00E94130104
:10155000B701A6018AE00E945A0088EC91E00E943F
:10156000130187ED91E00E9413010E943701883733
:1015700009F06EC064E685E00E943E01809166003D
:10158000845180936600809166008093980309E2FD
:1015900010E041E062E081E00E946301809166001A
:1015A0008F5F809366000150110999F7809199032C
:1015B0008093660054EEE52E52E0F52E68E8C62EC4
:1015C00063E0D62E412C70E8572E612C712C1091BF
:1015D0009803412F50E070E060E08AE00E945A00DA
:1015E0001F5F1093980389E00E945300F7018190D8
:1015F0009190A190B1907F01B501A4018AE00E9471
:101600005A0089E00E945300A4E6B0E0A5019401CD
:101610000E94B910A30192010E949410BA01A9017D
:101620008AE00E945A0085E20E9453000E945F01F6
:1016300064E685E00E943E0164E685E00E943E018A
:1016400064E685E00E943E01CE14DF0409F0BFCFBE
:101650006FEF8AEF93E00E94861080919B038130A8
:1016600009F06BC010929B0389E292E00E94130183
:101670008FEF90E00E9428018823B1F38091C6008B
:10168000883509F40AC108F0FBC0833509F408C1A4
:10169000863509F4ABC1803539F730EDA32E88E0EB
:1016A0008093E30290E19093E20290E29093E10252
:1016B0008093E00284B1886284B93B9A63EC84E051
:1016C0000E943E0198B18091E0028095892388B9FB
:1016D00095B18091E1028095892385B963EC84E01E
:1016E0000E943E0188B19091E002892B88B963EC99
:1016F00084E00E943E0198B18091E00280958923A8
:1017000088B964E685E00E943E0170E060E083E510
:101710009CEA0E947B07833509F479C18FE592E04A
:101720000E94130188E19BE00FB6F894A89580937E
:1017300060000FBE90936000FFCF8AEF93E00E949D
:101740007E10813019F404B600FC0BC088E19AE0E9
:101750000FB6F894A895809360000FBE9093600038
:10176000FFCF8CE092E00E94130184E690E00E949B
:1017700028018823B1F38091C600823591F76FEF7D
:101780008AEF93E00E94861084B78E7F84BF84E442
:101790008093BC008091BC0087FFFCCF8091BB0090
:1017A00084EC8093BC008091BC0087FFFCCF8091CB
:1017B000BB008093990384EC8093BC008091BC00B3
:1017C00087FFFCCFC090BB000C2C000CDD08EE089E
:1017D000FF087E2D6D2D5C2D442784E88093BC008E
:1017E0008091BC0087FFFCCF8091BB00082E000CCD
:1017F000990BAA0BBB0B6C017D01C40ED51EE61E16
:10180000F71E80E88093BC000E945F0180E391E0B6
:101810000E94B80980E892E00E9413014091990368
:1018200050E070E060E08AE00E945A0089E00E9487
:10183000530081E192E00E941301C701B60121E744
:1018400032E040E050E00E949410BA01A90188E122
:1018500092E0411551056105710529F08AE00E9469
:101860005A0083E292E00E94130188E19AE00FB6E9
:10187000F894A895809360000FBE90936000FFCF0E
:10188000833771F020F4803709F407CFEDCE863727
:1018900009F4ACC0883709F0E7CE27EDA22EFFCEC1
:1018A0001A8219820E945F0180E392E00E94130174
:1018B0000E945F0160EA81E00E9445010E943701B9
:1018C0008FE392E00E9413010E945F010E943701A2
:1018D000823249F086E090E00E9428018823D1F30B
:1018E0008091C600F5CF0E943701182F8D30D9F3B3
:1018F0008A30C9F3612FCE0101960E94A90989811E
:101900009A818A3F9140CCF486E090E00E942801C1
:10191000882399F08091C6008D3021F0823279F3CE
:101920008A3049F4112359F360E0CE0101960E94F8
:10193000A90910E0E4CF182FDDCF89819A818A3F71
:10194000914099F460E0CE0101960E94A90985E0DA
:1019500090E00E942801813031F48091C6008EE22F
:101960000E945300F4CF0E945F0140E050E0BA01B2
:1019700080E10E945A0089E00E94530010E000E0DC
:101980000F5F1F4FC80101970E947E10882319F036
:101990000E945300F5CF0E945F01A801012E000CA8
:1019A000660B770B80E10E945A0089E00E94530089
:1019B00089819A81081719071CF30E945F018AEC3C
:1019C00091E00E94B8090E945F0160E180E00E94FE
:1019D00045010E94370188E19AE00FB6F894A89576
:1019E000809360000FBE90936000FFCF8AE492E086
:1019F0000E9413010E945F0188E19AE00FB6F894FB
:101A0000A895809360000FBE90936000FFCF70E0B8
:101A100060E080E090E30E947B078E3109F07ECE8B
:101A200060E071E080E090E30E947B07182F60E0A7
:101A300072E080E090E30E947B07EBEFE80FE0317B
:101A400008F059C00E2E000CFF0BE75DF24F0C940E
:101A5000B310430D710D390D400D7B0D430D710D0C
:101A60007B0D7B0D7B0D4A0D7B0D7B0D7B0D7B0D67
:101A70004A0D88E090E09093DF028093DE0215C06B
:101A800083E290E0F8CF80E390E01239A1F388E59B
:101A900090E0F1CF1539D9F788E491E09093DF0217
:101AA0008093DE0282E40E9453000E945F0190E076
:101AB00080E00E94B8098091DE029091DF02883AAE
:101AC000910561F18834914009F49AC088E19EE063
:101AD0000FB6F894A895809360000FBE90936000B5
:101AE000FFCF88EA90E0143909F4C5CF1339E9F63D
:101AF0008FE090E0C0CF0E945F018FE592E00E94EE
:101B000013010E945F0188E19BE00FB6F894A8954D
:101B1000809360000FBE90936000FFCF84E692E058
:101B20000E94130188E19EE00FB6F894A895809377
:101B300060000FBE9093600088E090E00E94B809BA
:101B40000E945F0182E190E00E94B8090E945F015B
:101B50008BE792E00E9413018FEF90E00E94280132
:101B60008823B1F38091C600843609F4ACC008F034
:101B70005EC0843409F479C0883509F45DC08F7D76
:101B8000803531F71092D3021092D2021092D10216
:101B90001092D00210929D0310929C031092CF02DB
:101BA0001092CE021092CD021092CC021092CB0273
:101BB0001092CA021092E6031092C9021092C80253
:101BC00081E090E09093EC038093EB030E945F012F
:101BD0008DE590E00E94B8090E945F010E943701E4
:101BE0008A3309F499C08837C9F788E19AE00FB6BB
:101BF000F894A895809360000FBE90936000FFCF8B
:101C000087E792E00E94130180E490E09093DD0268
:101C10008093DC0280EC9FE39093DB028093DA02F6
:101C200080E090E49093D9028093D80285CF8536E6
:101C300071F0883709F0A3CF88E19AE00FB6F894E5
:101C4000A895809360000FBE90936000FFCF86EF51
:101C500093E09093D7028093D60285E090E0909332
:101C6000D5028093D4020E94950283E892E00E94FC
:101C700013018EE790E00E94B8090E945F010E9464
:101C800037018434A9F488E990E00E94B80910E093
:101C900000E04FEFB80189E40E948F060F5F1F4FED
:101CA0000115F4E01F07A9F78DE892E00E941301E7
:101CB00088E19AE00FB6F894A895809360000FBE73
:101CC00090936000FFCF85E992E00E9413018EE7B8
:101CD00090E00E94B8090E945F010E94370184349D
:101CE00081F410E000E06FEFC8010E9486100F5FE2
:101CF0001F4F0B3F21E01207B1F78DE892E00E94E1
:101D0000130188E19AE00FB6F894A89580936000DB
:101D10000FBE90936000FFCF8091C10080688093D8
:101D2000C100789470E060E080E89CEA0E947B0744
:101D30000E9415090E94EF080E9466080E9415097A
:101D40008091C302882309F475C00091C1021091EB
:101D5000C2028091CC029091CD020817190739F484
:101D60008091C8028823B1F1813009F451C080917B
:101D7000CC029091CD0208171907F1F28091CB02A5
:101D8000882379F08091CA029091CE02992309F4B8
:101D900044C0811144C08091BD029091BE020E9456
:101DA0005E088091BC02882381F08091CE02882356
:101DB00051F08091CA02811106C08091BD029091BC
:101DC000BE020E945E081092CA020E94EF081092A2
:101DD000C802B2CF4091BF022091C002022E000C77
:101DE000330B8091DC029091DD02841B910947FD49
:101DF00093952817390709F0BACF8091DA029091AC
:101E0000DB02802391239093BE028093BD02AFCF6B
:101E10000E94EF081092C802AACF882311F22091E5
:101E2000BD023091BE028091DC029091DD02820FF2
:101E3000931FB5CFF8948091C1008F778093C10034
:101E400085B18C7F85B981E090E00E9428018130C6
:101E500019F48091C600F7CF8091CA029091CE020A
:101E6000992309F46EC081116FC08091BD029091D9
:101E7000BE020E945E086A2D70E088EA9CEA0E9419
:101E80007B0780EDA8126BC06DEF70E084EA9CEADE
:101E90000E947B0762EC70E080EA9CEA0E947B076C
:101EA0006BEE70E080EE9CEA0E947B071092C70206
:101EB0001092C60210E000E0F12CE12CD12CC12CD4
:101EC00040E0B8018CE40E948F06B82E40E0B801D3
:101ED00088E40E948F062B2D30E0322F2227820FBC
:101EE000932F911D9093C5028093C4020F5F1F4FE3
:101EF0002091D8023091D9020217130709F43FC08C
:101F00000196C9F18091C6029091C7020196909303
:101F1000C7028093C6022FEFC21AD20AE8ECCE168F
:101F2000D10429F48AE20E945300D12CC12CF8EC90
:101F3000EF16F10429F68EE20E945300F12CE12CF9
:101F4000BFCF882309F497CF2091BD023091BE0204
:101F50008091DC029091DD02820F931F8ACFE7ED22
:101F6000AE129ECF6FEF70E084EA9CEA0E947B077E
:101F700062EE70E091CF8FEFE81AF80ACFCF20ED34
:101F8000A2120EC041E069EF73E089E40E948F065F
:101F900061E08AEF93E00E94861084B78E7F84BF51
:101FA0000E945F018AE492E00E9413010E945F0197
:101FB00084EA90E00E94B8090E945F0170E060E04E
:101FC00088E090E50E947B07482F50E070E060E0D9
:101FD00080E10E945A0080E892E00E94130170E0C4
:101FE00060E088E098E50E947B07482F50E070E0B1
:101FF00060E080E10E945A0080E892E00E941301B4
:1020000070E060E080E090E50E947B07482F50E0A0
:1020100070E060E080E10E945A0080E892E00E9457
:10202000130170E060E080E098E50E947B07482F94
:1020300050E070E060E080E10E945A000E945F0181
:102040000E945F0186EE90E00E94B8090E945F0145
:1020500089E991E00E94B80940919C0350919D0349
:10206000052E000C660B770B8AE00E945A0080E870
:1020700092E00E94130180EA92E00E94130180E83E
:1020800092E00E9413014091D2025091D302052E9A
:10209000000C660B770B8AE00E945A008AEA92E0F5
:1020A0000E94130180E892E00E9413014091C60251
:1020B0005091C702052E000C660B770B8AE00E9438
:1020C0005A008FEA92E00E9413010E945F0187ED9F
:1020D000A8120BC088E19AE00FB6F894A8958093F7
:1020E00060000FBE90936000FFCF0E945F0186EFFB
:1020F00090E00E94B8090E945F01FFCFF999FECFDE
:1021000092BD81BDF89A992780B50895262FF99937
:10211000FECF1FBA92BD81BD20BD0FB6F894FA9ACA
:10212000F99A0FBE01960895052E97FB1EF40094B0
:102130000E94AB1057FD07D00E94C41007FC03D0CB
:102140004EF40C94AB1050954095309521953F4F2F
:102150004F4F5F4F089590958095709561957F4F93
:102160008F4F9F4F0895EE0FFF1F0590F491E02DC4
:1021700009940E94E610A59F900DB49F900DA49F16
:10218000800D911D11240895A1E21A2EAA1BBB1BDC
:10219000FD010DC0AA1FBB1FEE1FFF1FA217B30733
:1021A000E407F50720F0A21BB30BE40BF50B661F49
:1021B000771F881F991F1A9469F76095709580950D
:1021C00090959B01AC01BD01CF010895A29FB00184
:1021D000B39FC001A39F700D811D1124911DB29F5B
:0E21E000700D811D1124911D0895F894FFCFFC
:1021EE0028C00000200000A0000000000000004CED
:1021FE003F2020004E6F2044617461210D0A000DB6
:10220E000A53656E6420746578742066696C652E59
:10221E00002020416761696E2100202020414B3F44
:10222E000D0A000D0A726561647920746F20617564
:10223E00746F63616C0D0A000D0A506F6F7220721D
:10224E006573756C743A20536561726368696E6765
:10225E0020666F7220616C7465726E61746976654A
:10226E002076616C75650D0A000D0A446566617510
:10227E006C74204F534343414C2076616C7565203E
:10228E00000D0A4E6577204F534343414C20766133
:10229E006C756520000D0A4572726F72206C657345
:1022AE0073207468616E2031250D0A000D0A457287
:1022BE00726F72203D20002D782D20746F20636880
:1022CE0065636B2063616C20283135205365632074
:1022DE00706175736529206F7220414F4B20746FAA
:1022EE00206573636170650D0A0D0A00522020206F
:1022FE00006572726F7220006C6573732074686172
:10230E006E2031250D0A0D0A00502F53202020007B
:10231E00425220326B34207468656E20414B00545B
:10232E006578742066696C653F000D0A6D696E698B
:10233E005F4F532070726F6772616D6D65720054DE
:10234E00544E44003136383A204E6F7420737570F7
:10235E00706F727465640033323800702F65202000
:10236E002020000D0A546172676574200020446FAE
:10237E006E650D0A000D0A4F6E2D636869702000A0
:10238E0064276C6F616465643A0020696E3A0020C0
:04239E006F757400E3
:00000001FF
