:100000000C9435000C945D000C945D000C945D0024
:100010000C945D000C945D000C945D000C945D00EC
:100020000C945D000C945D000C945D000C945D00DC
:100030000C945D000C9460030C945D000C945D00C6
:100040000C945D000C945D000C94A0020C947A0258
:100050000C945D000C945D000C945D000C945D00AC
:100060000C94D2020C945D00710311241FBECFEFDB
:10007000D8E0DEBFCDBF11E0A0E0B1E0E4E5FCE0F8
:1000800002C005900D92AC38B107D9F722E0ACE878
:10009000B1E001C01D92A034B207E1F710E0C5E362
:1000A000D0E004C02197FE010E942206C433D1078C
:1000B000C9F70E949E030C9428060C94000082EB62
:1000C00086BD85E085BDA89BFECFA89A15BC089586
:1000D000AF92BF92CF92DF92EF92FF920F931F9356
:1000E000CF93DF936C017B018B01040F151FEB0194
:1000F0005E01AE18BF08C017D10759F06991D6014B
:10010000ED91FC910190F081E02DC6010995892BBC
:1001100079F7C501DF91CF911F910F91FF90EF907B
:10012000DF90CF90BF90AF900895FC01538D448D28
:10013000252F30E0842F90E0821B930B541710F092
:10014000CF96089501970895FC01918D828D98179F
:1001500061F0A28DAE0FBF2FB11D5D968C91928D77
:100160009F5F9F73928F90E008958FEF9FEF0895A8
:10017000FC01918D828D981731F0828DE80FF11D71
:10018000858D90E008958FEF9FEF0895FC01918D8C
:10019000228D892F90E0805C9F4F821B91098F7385
:1001A00099270895FC01A48DA80FB92FB11DA35A5A
:1001B000BF4F2C91848D90E001968F739927848F87
:1001C000A689B7892C93A089B1898C9183708064AA
:1001D0008C93938D848D981306C00288F389E02D4B
:1001E00080818F7D80830895EF92FF920F931F93FC
:1001F000CF93DF93EC0181E0888F9B8D8C8D9813DA
:100200001AC0E889F989808185FF15C09FB7F894E5
:10021000EE89FF896083E889F98980818370806431
:1002200080839FBF81E090E0DF91CF911F910F917C
:10023000FF90EF900895F62E0B8D10E00F5F1F4F8B
:100240000F731127E02E8C8D8E110CC00FB607FC9A
:10025000FACFE889F989808185FFF5CFCE010E9428
:10026000D200F1CFEB8DEC0FFD2FF11DE35AFF4FC4
:10027000F0829FB7F8940B8FEA89FB8980818062B6
:10028000CFCFCF93DF93EC01888D8823B9F0AA8973
:10029000BB89E889F9898C9185FD03C0808186FD41
:1002A0000DC00FB607FCF7CF8C9185FFF2CF808190
:1002B00085FFEDCFCE010E94D200E9CFDF91CF9133
:1002C000089585E48093BC001092950110929401EA
:1002D00010928F0110929001109291011092920150
:1002E00080919401909195010F97D4F3109295010C
:1002F000109294011092BC0060918F017091900156
:10030000809191019091920197FF07C090958095FF
:10031000709561957F4F8F4F9F4F2AE030E040E00E
:1003200050E00E94CD05CA01B9010895CF92DF9235
:10033000EF92FF92CF93DF93C82F809366000E94C5
:1003400061016B017C01809166008F5F8093660084
:100350000E946101C616D706E806F9063CF58091B1
:100360006600815080936600209166000C2E000C80
:10037000DD0B2C171D0689F4809166008150809357
:1003800066000E946101C616D706E806F906B4F4B5
:10039000809166008F5F80936600C701B601DF9190
:1003A000CF91FF90EF90DF90CF900895209166005D
:1003B0002F5F209366006B017C01CACF20916600FD
:1003C0002150209366006B017C01DBCF85E4809394
:1003D000BC00109295011092940110928F0110921E
:1003E000900110929101109292018091940190914C
:1003F00095010297D4F310929501109294011092F6
:10040000BC0060918F017091900180919101909159
:10041000920197FF07C090958095709561957F4FE9
:100420008F4F9F4F08958093BB0084E88093BC005A
:100430008091BC0087FFFCCF089584E48093BC00CA
:100440008091BC0087FFFCCF8091BB001092BB0065
:1004500084EC8093BC008091BC0087FFFCCF85E5D5
:100460000E94130280E88093BC00089583EA91E023
:100470000E94C600892B11F4A895F8CF83EA91E079
:100480000E94A4000895FC0101900020E9F7319733
:10049000AF01481B590BBC0183EA91E00C94680042
:1004A00047E951E0FA0101900020E9F7AF0148590E
:1004B000514067E971E083EA91E00C94680020E123
:1004C00047E951E00E9462050E94500260E283EA1F
:1004D00091E00C94F400CF93C42F2AE047E951E057
:1004E0000E9462050E9450026C2F83EA91E0CF9136
:1004F0000C94F4001F920F920FB60F9211242F93B9
:100500003F934F935F936F937F938F939F93AF939B
:10051000BF93EF93FF9383EA91E00E94D200FF9193
:10052000EF91BF91AF919F918F917F916F915F916B
:100530004F913F912F910F900FBE0F901F901895E4
:100540001F920F920FB60F9211242F938F939F93A8
:10055000EF93FF93E091B301F091B4018081E091BA
:10056000B901F091BA0182FD1BC090818091BC015C
:100570008F5F8F732091BD01821741F0E091BC0124
:10058000F0E0ED55FE4F958F8093BC01FF91EF9108
:100590009F918F912F910F900FBE0F901F901895E4
:1005A0008081F4CF1F920F920FB60F9211242F93D8
:1005B0003F934F935F936F937F938F939F93AF93EB
:1005C000BF93EF93FF938091BB0081E00E941302E1
:1005D00080E88093BC00109281008091840090910B
:1005E0008500109285001092840021E02093810004
:1005F000409194015091950120919601022E000C9A
:10060000330B42175307FCF410929301809194012D
:10061000909195010196909395018093940185E4C2
:100620008093BC00FF91EF91BF91AF919F918F910B
:100630007F916F915F914F913F912F910F900FBEDE
:100640000F901F901895B0E0A0E020919301213009
:10065000E9F0223041F12111D7CF40918F01509123
:10066000900160919101709192018452944FA1097F
:10067000B109840F951FA61FB71F80938F01909318
:100680009001A0939101B0939201BECF40918F0150
:100690005091900160919101709192018452944F18
:1006A000AF4FBF4FE6CF40918F01509190016091C5
:1006B0009101709192018452944FAE4FBF4FD9CFA8
:1006C0001F920F920FB60F9211248F938091930176
:1006D0008F5F809393018F910F900FBE0F901F90AB
:1006E0001895E3EAF1E01382128288EE93E0A0E02D
:1006F000B0E084839583A683B78384E091E09183FF
:10070000808385EC90E09587848784EC90E09787E0
:10071000868780EC90E0918B808B81EC90E0938BCE
:10072000828B82EC90E0958B848B86EC90E0978BAB
:10073000868B118E128E138E148E089584B7A89511
:1007400084B7877F84BF8091600088618093600058
:100750001092600082E08093BA0080917C008064F7
:1007600080937C0085B78F7E85BF8AB18B778AB9ED
:100770008BB184688BB926982E9A83E084B985B7AB
:100780008F7E85BF84B18B7784B987B1887F87B925
:100790008AB187788AB985B1846885B988B187605C
:1007A00088B98BB188678BB9609166008DEF93E053
:1007B0000E94AB05499BFECF0E945F00A8950E9456
:1007C0005F00A8950E945F00A8950E945F00A89511
:1007D0000E945F00A8958EEF93E00E94A305C82FAA
:1007E00080EF8C0F803E40F48FEF93E00E94A305D2
:1007F000C81302C0C0936600E091B301F091B40148
:1008000082E08083E091AF01F091B0011082E0912D
:10081000B101F091B20180E180831092BB01E091BF
:10082000B701F091B80186E08083E091B501F091C5
:10083000B601808180618083E091B501F091B601BD
:10084000808188608083E091B501F091B60180815C
:1008500080688083E091B501F091B60180818F7D41
:100860008083789480916F00816080936F000E94F4
:100870001D0284E48093BC008091BC0087FFFCCF04
:100880008091BB0081E00E94130280E88093BC004D
:10089000109285001092840081E08093810078940A
:1008A00080939601CFE0D0E00E94E6012197E1F726
:1008B000C0E1D0E005E010E0C0936600CE01B801D1
:1008C0000E94B905892B29F46EE283EA91E00E9427
:1008D000F4000E94E6016B017C0188EEC81683E0FB
:1008E000D806E104F10424F02196C13FD10521F797
:1008F00084E48093BC008091BC0087FFFCCF809192
:10090000BB0080E00E94130280E88093BC008091CD
:100910006F008E7F80936F008CE491E00E94430211
:1009200082E191E00E9443026091660070E090E0F5
:1009300080E00E945F0286E291E00E9443024DE067
:10094000C701B6010E946B0285E0809396018091F9
:100950006F00816080936F000E941D0284E4809389
:10096000BC008091BC0087FFFCCF8091BB0081E080
:100970000E94130280E88093BC00109285001092C0
:10098000840081E0809381007894809166000E94C9
:1009900096016B017C0185EFC81681E0D806E10461
:1009A000F104F4F0809166008C5F0E9496016B0167
:1009B0007C0185EFC81681E0D806E104F10484F0DB
:1009C0008091660082500E9496016B017C0185EF48
:1009D000C81681E0D806E104F10414F080916600A5
:1009E00084E48093BC008091BC0087FFFCCF8091A1
:1009F000BB0080E00E94130280E88093BC0080E38B
:100A000091E00E9443026091660070E090E080E017
:100A10000E945F0286E291E00E94430240E2C70129
:100A2000B6010E946B028CE391E00E9443020E9497
:100A30003602893709F043C06091660060938E01E9
:100A40008EEF93E00E94AB050E945F0060918E01E3
:100A50008FEF93E00E94AB050E945F008FE491E06E
:100A60000E9443028EEF93E00E94A305682F70E07E
:100A700090E080E00E945F0289E691E00E944302DC
:100A80008FEF93E00E94A305682F70E090E080E074
:100A90000E945F028CE491E00E9443028AE791E0A9
:100AA0000E9443020E94360288E199E00FB6F89452
:100AB000A895809360000FBE90936000FFCF8EE6F4
:100AC00091E0EACFBB272A3051F4992342F4BDE2EA
:100AD00090958095709561957F4F8F4F9F4F0C94A7
:100AE0007205BB27FA01A62F6217710581059105D2
:100AF000330B30FB66F0AA27660F771F881F991FFC
:100B0000AA1FA21710F0A21B63953850A9F7A05D89
:100B1000AA3308F0A95DA19336F7B111B193108201
:100B2000CA010C949305DC01FC01672F71917723B6
:100B3000E1F7329704C07C916D9370836291AE1798
:100B4000BF07C8F30895F999FECF92BD81BDF89A09
:100B5000992780B50895262FF999FECF1FBA92BD27
:100B600081BD20BD0FB6F894FA9AF99A0FBE01968E
:100B7000089597FB072E16F4009407D077FD09D04F
:100B80000E94EC0507FC05D03EF4909581959F4F9F
:100B90000895709561957F4F0895052E97FB1EF47B
:100BA00000940E94E40557FD07D00E94000607FC50
:100BB00003D04EF40C94E405509540953095219562
:100BC0003F4F4F4F5F4F0895909580957095619579
:100BD0007F4F8F4F9F4F0895AA1BBB1B51E107C04A
:100BE000AA1FBB1FA617B70710F0A61BB70B881FBD
:100BF000991F5A95A9F780959095BC01CD0108954C
:100C0000A1E21A2EAA1BBB1BFD010DC0AA1FBB1F10
:100C1000EE1FFF1FA217B307E407F50720F0A21B82
:100C2000B30BE40BF50B661F771F881F991F1A94EF
:100C300069F760957095809590959B01AC01BD0119
:100C4000CF010895EE0FFF1F0590F491E02D099458
:040C5000F894FFCF46
:100C540000000000F400680095004101C600A400F3
:100C6400B800417070726F782E2063616C206661E9
:100C740063746F7220002020204572726F7220000E
:100C840043616C20666163746F7220000D0A5361C6
:100C940076653F2079206F7220414F4B0D0A005634
:100CA400616C75657320736176656420746F20458B
:100CB4004550524F4D2020200020202020004E6F10
:100CC400742073617665640D0A000D0A414B20742B
:0C0CD4006F207265706561740D0A0000ED
:00000001FF
