:100000000C9435000C945D000C945D000C945D0024
:100010000C945D000C945D000C945D000C945D00EC
:100020000C945D000C945D000C945D000C945D00DC
:100030000C945D000C94C9030C945D000C945D005D
:100040000C945D000C945D000C9419030C94F30265
:100050000C945D000C945D000C945D000C945D00AC
:100060000C944B030C945D00DA0311241FBECFEFF8
:10007000D8E0DEBFCDBF12E0A0E0B1E0EAE4FDE0F1
:1000800002C005900D92A237B107D9F723E0A2E78D
:10009000B2E001C01D92AC37B207E1F710E0C5E352
:1000A000D0E004C02197FE010E949D06C433D10711
:1000B000C9F70E9407040C94A3060C940000AF92A9
:1000C000BF92CF92DF92EF92FF920F931F93CF9345
:1000D000DF936C017B018B01040F151FEB015E01A7
:1000E000AE18BF08C017D10759F06991D601ED913C
:1000F000FC910190F081E02DC6010995892B79F7DB
:10010000C501DF91CF911F910F91FF90EF90DF908C
:10011000CF90BF90AF900895FC01538D448D252F53
:1001200030E0842F90E0821B930B541710F0CF9691
:10013000089501970895FC01918D828D981761F0C3
:10014000A28DAE0FBF2FB11D5D968C91928D9F5FDA
:100150009F73928F90E008958FEF9FEF0895FC01B9
:10016000918D828D981731F0828DE80FF11D858D6C
:1001700090E008958FEF9FEF0895FC01918D228DFF
:10018000892F90E0805C9F4F821B91098F73992784
:100190000895FC01A48DA80FB92FB11DA35ABF4F1C
:1001A0002C91848D90E001968F739927848FA68976
:1001B000B7892C93A089B1898C91837080648C93CA
:1001C000938D848D981306C00288F389E02D808179
:1001D0008F7D80830895EF92FF920F931F93CF93AB
:1001E000DF93EC0181E0888F9B8D8C8D98131AC072
:1001F000E889F989808185FF15C09FB7F894EE8959
:10020000FF896083E889F9898081837080648083B5
:100210009FBF81E090E0DF91CF911F910F91FF9000
:10022000EF900895F62E0B8D10E00F5F1F4F0F73A8
:100230001127E02E8C8D8E110CC00FB607FCFACF63
:10024000E889F989808185FFF5CFCE010E94C90038
:10025000F1CFEB8DEC0FFD2FF11DE35AFF4FF08234
:100260009FB7F8940B8FEA89FB8980818062CFCF9A
:10027000CF93DF93EC01888D8823B9F0AA89BB89DD
:10028000E889F9898C9185FD03C0808186FD0DC0C8
:100290000FB607FCF7CF8C9185FFF2CF808185FFE9
:1002A000EDCFCE010E94C900E9CFDF91CF91089533
:1002B000CF93C82F85E48093BC001092D102109296
:1002C000D0021092CB021092CC021092CD0210926A
:1002D000CE028091D0029091D1020F97D4F3109268
:1002E000D1021092D0021092BC006091CB027091AA
:1002F000CC028091CD029091CE0297FF07C09095DD
:100300008095709561957F4F8F4F9F4F2AE030E029
:1003100040E050E00E945C06CC2399F0E091C902D5
:10032000F091CA02EE0FFF1FE958FD4F3183208381
:100330008091C9029091CA0201969093CA0280935B
:10034000C902CA01B901CF9108958093BB0084E826
:100350008093BC008091BC0087FFFCCF089584E4AB
:100360008093BC008091BC0087FFFCCF8091BB00D4
:100370001092BB0084EC8093BC008091BC0087FF8E
:10038000FCCF85E50E94A50180E88093BC0008951C
:10039000CF92DF92EF92FF92CF93CFB78093660018
:1003A00080916F00816080936F000E94AF0184E4B0
:1003B0008093BC008091BC0087FFFCCF8091BB0084
:1003C00081E00E94A50180E88093BC001092850026
:1003D0001092840081E080938100789480E00E94F4
:1003E00058016B017C0184E48093BC008091BC00C7
:1003F00087FFFCCF8091BB0080E00E94A50180E8D0
:100400008093BC0080916F008E7F80936F00CFBF80
:100410008091D20280936600C701B601CF91FF9010
:10042000EF90DF90CF9008958FED92E00E94BD0095
:10043000892B11F4A895F8CF8FED92E00E949B00D4
:1004400008950F931F93CF93DF938C01D0E0C0E00A
:100450008FED92E00E94BD00892B79F42196A8953A
:10046000C1348FE1D807A4F30150110979F780E076
:10047000DF91CF911F910F91089581E0F9CFFC0199
:1004800001900020E9F73197AF01481B590BBC01DF
:100490008FED92E00C945F0088E991E00C943F02AC
:1004A000CF92DF92EF92FF92CF93DF930E941402DC
:1004B000C82F803334F08A3334F08FEB8C0F8630C2
:1004C00010F0CD3299F70E944C026C2F8FED92E024
:1004D0000E94EB00C12CD12C7601CD3261F080ED71
:1004E0008C0F8A3014F089EC8C0FC82E880FDD0831
:1004F000EE08FF08CBE288E090E00E94210288230A
:10050000D1F38FED92E00E949B00D82F8D30E9F45B
:1005100081E090E00E942102882321F08FED92E09B
:100520000E949B00CD3241F4F094E094D094C094AA
:10053000C11CD11CE11CF11CC701B601DF91CF9198
:10054000FF90EF90DF90CF9008958A3009F38033C9
:1005500094F28A3324F08FEB8D0F863060F66D2F86
:100560008FED92E00E94EB0080ED8D0F8A3010F04D
:1005700089EC8D0F94E0CC0CDD1CEE1CFF1C9A95D1
:10058000D1F7C80ED11CE11CF11CB5CF43ED52E0F0
:10059000FA0101900020E9F7AF01445D524063ED9C
:1005A00072E08FED92E00C945F00CF93C42F20E1B6
:1005B00043ED52E00E9405060E94C6026C2F8FEDAB
:1005C00092E0CF910C94EB00CF93C42F2AE043ED3F
:1005D00052E00E9405060E94C6026C2F8FED92E049
:1005E000CF910C94EB001F920F920FB60F92112433
:1005F0002F933F934F935F936F937F938F939F932B
:10060000AF93BF93EF93FF938FED92E00E94C900E9
:10061000FF91EF91BF91AF919F918F917F916F91DA
:100620005F914F913F912F910F900FBE0F901F90B0
:1006300018951F920F920FB60F9211242F938F933C
:100640009F93EF93FF93E091EF02F091F00280818E
:10065000E091F502F091F60282FD1BC0908180913D
:10066000F8028F5F8F732091F902821741F0E091B9
:10067000F802F0E0E152FD4F958F8093F802FF9170
:10068000EF919F918F912F910F900FBE0F901F9020
:1006900018958081F4CF1F920F920FB60F921124FC
:1006A0002F933F934F935F936F937F938F939F937A
:1006B000AF93BF93EF93FF938091BB0081E00E94C3
:1006C000A50180E88093BC001092810040918400D5
:1006D00050918500109285001092840021E02093B3
:1006E00081002091D0023091D10225303105FCF4F7
:1006F0001092CF028091D0029091D10201969093F6
:10070000D1028093D00285E48093BC00FF91EF91E9
:10071000BF91AF919F918F917F916F915F914F9119
:100720003F912F910F900FBE0F901F90189570E082
:1007300060E08091CF028823D9F01092CF0280919F
:10074000CB029091CC02A091CD02B091CE02840F49
:10075000951FA61FB71F8752944FAF4FBF4F80936F
:10076000CB029093CC02A093CD02B093CE02C2CF25
:100770008091CB029091CC02A091CD02B091CE029B
:10078000840F951FA61FB71F8452944FA109B1096A
:10079000E6CF1F920F920FB60F9211248F93809184
:1007A000CF028F5F8093CF028F910F900FBE0F907B
:1007B0001F901895EFEDF2E01382128288EE93E01D
:1007C000A0E0B0E084839583A683B78384E091E0C2
:1007D0009183808385EC90E09587848784EC90E01A
:1007E0009787868780EC90E0918B808B81EC90E0FE
:1007F000938B828B82EC90E0958B848B86EC90E0DF
:10080000978B868B118E128E138E148E089584B75B
:10081000A89584B7877F84BF8091600088618093AA
:1008200060001092600082E08093BA0080917C00AA
:10083000806480937C0085B78F7E85BF8AB18B777B
:100840008AB98BB184688BB926982E9A83E084B9D3
:1008500085B78F7E85BF84B18B7784B987B1887F58
:1008600087B98AB187788AB985B1846885B988B132
:10087000876088B98BB188678BB9609166008DEF0E
:1008800093E00E944E06499BFECF85E090E022EB6C
:1008900035E026BD35BDA89BFECFA89A15BCA8950E
:1008A0000197B9F78EEF93E00E944606C82F80EFBC
:1008B0008C0F803E40F48FEF93E00E944606C813F1
:1008C00002C0C0936600E091EF02F091F00282E076
:1008D0008083E091EB02F091EC021082E091ED0256
:1008E000F091EE0280E180831092F702E091F30232
:1008F000F091F40286E08083E091F102F091F2023F
:10090000808180618083E091F102F091F202808128
:1009100088608083E091F102F091F202808180682A
:100920008083E091F102F091F20280818F7D8083DB
:1009300078948DEF93E00E94460680937602809132
:1009400066008093D20282E191E00E943F026091B2
:10095000D20270E090E080E04DE00E94D50281E597
:1009600091E00E943F026091760270E090E080E0AA
:100970004DE00E94D5028EE691E00E943F022FE7F3
:1009800088E391E0215080409040E1F700C00000F2
:1009900080916F00816080936F000E94AF0184E4BA
:1009A0008093BC008091BC0087FFFCCF8091BB008E
:1009B00081E00E94A50180E88093BC001092850030
:1009C0001092840081E080938100809166008451C0
:1009D00080936600C9E2D0E081E00E9458018091D6
:1009E00066008F5F809366002197B1F78091D202F5
:1009F0008093660084E48093BC008091BC0087FFF4
:100A0000FCCF8091BB0080E00E94A50180E880932C
:100A1000BC0080916F008E7F80936F0007E712E02B
:100A2000D0E0C0E081E7C82E82E0D82EE12CF12C86
:100A30006091D2026451770B6C0F7D1F072E000C62
:100A4000880B990B49E00E94D502F8016081718101
:100A5000072E000C880B990B40E20E94E40286E509
:100A600092E00E943F02F801619171918F01072E7F
:100A7000000C880B990BA70196010E945C06CA0125
:100A8000B90145E20E94E4020E944C022196C9325B
:100A9000D10571F68BE991E00E943F020E9450025D
:100AA000609375028EEE91E00E943F020E94140254
:100AB000893771F00E944C026FE38FED92E00E9443
:100AC000EB000E9450026093750280E192E0ECCF4F
:100AD000C0917502CF3F79F5809176020E94C801DE
:100AE000693E734081059105DCF06091D2028EEF82
:100AF00093E00E944E066091D2028FEF93E00E9435
:100B00004E0684E192E00E943F0288E199E00FB630
:100B1000F894A895809360000FBE90936000FFCF7B
:100B20006FEF8EEF93E00E944E066FEF8FEF93E032
:100B30000E944E06EACF8C2F0E94C8016B017C01F7
:100B400029EEC21623E0D206E104F10424F10E944A
:100B50004C0240E2C701B6010E94E4028BE292E03F
:100B60000E943F020E944C026091D2028EEF93E0FD
:100B70000E944E066091D2028FEF93E00E944E06D3
:100B800088E199E00FB6F894A895809360000FBEB5
:100B900090936000FFCF6C2F8EEF93E00E944E0683
:100BA000609175028FEF93E00E944E068EE392E013
:100BB0000E943F028EEF93E00E944606682F70E08D
:100BC00090E080E040E20E94D5028BE592E00E9436
:100BD0003F028FEF93E00E944606682F70E090E09E
:100BE00080E04DE00E94D50280E692E00E943F0244
:100BF0000E94140288E199E00FB6F894A8958093BA
:100C000060000FBE90936000FFCFBB272A3051F4E5
:100C1000992342F4BDE290958095709561957F4F40
:100C20008F4F9F4F0C941506BB27FA01A62F621712
:100C3000710581059105330B30FB66F0AA27660F1D
:100C4000771F881F991FAA1FA21710F0A21B639578
:100C50003850A9F7A05DAA3308F0A95DA19336F733
:100C6000B111B1931082CA010C943606DC01FC016B
:100C7000672F71917723E1F7329704C07C916D93D0
:100C800070836291AE17BF07C8F30895F999FECF3C
:100C900092BD81BDF89A992780B50895262FF999BC
:100CA000FECF1FBA92BD81BD20BD0FB6F894FA9A4F
:100CB000F99A0FBE01960895052E97FB1EF4009435
:100CC0000E94730657FD07D00E947B0607FC03D0E5
:100CD0004EF40C94730650954095309521953F4FF6
:100CE0004F4F5F4F089590958095709561957F4F18
:100CF0008F4F9F4F0895A1E21A2EAA1BBB1BFD0127
:100D00000DC0AA1FBB1FEE1FFF1FA217B307E407EA
:100D1000F50720F0A21BB30BE40BF50B661F771F42
:100D2000881F991F1A9469F7609570958095909522
:100D30009B01AC01BD01CF010895EE0FFF1F05908F
:0A0D4000F491E02D0994F894FFCF20
:100D4A0000000000EB005F008C003801BD009B0032
:100D5A00AF000D0A55736572206465766963652074
:100D6A006D616E75616C2063616C69627261746930
:100D7A006F6E0D0A43616C20666163746F7220772F
:100D8A006F726B696E672076616C75652020200929
:100D9A000043616C20666163746F722064656661EA
:100DAA00756C742076616C75652020200900446F8B
:100DBA00696E672063616C63756C6174696F6E73C9
:100DCA002E20506C6561736520776169742031301B
:100DDA00207365636F6E64730D0A00456E746572E5
:100DEA00206E657720757365722063616C20766169
:100DFA006C756520285573652063617069746F6C22
:100E0A00206C657474657273290D0A6F7220656EA1
:100E1A0074657220464620746F2064656C6574653B
:100E2A002074686520757365722063616C000D0A11
:100E3A0050726573732079206966204F4B206F7258
:100E4A0020414F4B20616E642072657065617400A9
:100E5A0020793F000A0D44656661756C74207661DD
:100E6A006C7565206E6F74204F4B0020204572729E
:100E7A006F7220746F6F20677265617421000D0AAA
:100E8A0056616C75657320736176656420746F2092
:100E9A00454550524F4D2020200900202020200097
:100EAA000D0A414B20746F207265706561740D0ADA
:020EBA00000036
:00000001FF
