:100000000C9435000C945D000C945D000C945D0024
:100010000C945D000C945D000C945D000C945D00EC
:100020000C945D000C945D000C945D000C945D00DC
:100030000C945D000C9456020C945D000C945D00D1
:100040000C945D000C945D000C94A6010C9480014E
:100050000C945D000C945D000C945D000C945D00AC
:100060000C94D8010C945D00670211241FBECFEFE1
:10007000D4E0DEBFCDBF11E0A0E0B1E0EEE7F9E0F3
:1000800002C005900D92AE37B107D9F722E0AEE776
:10009000B1E001C01D92A333B207E1F710E0C5E360
:1000A000D0E004C02197FE010E94B704C433D107F9
:1000B000C9F70E9494020C94BD040C940000AF9206
:1000C000BF92CF92DF92EF92FF920F931F93CF9345
:1000D000DF936C017B018B01040F151FEB015E01A7
:1000E000AE18BF08C017D10759F06991D601ED913C
:1000F000FC910190F081E02DC6010995892B79F7DB
:10010000C501DF91CF911F910F91FF90EF90DF908C
:10011000CF90BF90AF900895FC01538D448D252F53
:1001200030E0842F90E0821B930B541710F0CF9691
:10013000089501970895FC01918D828D981761F0C3
:10014000A28DAE0FBF2FB11D5D968C91928D9F5FDA
:100150009F73928F90E008958FEF9FEF0895FC01B9
:10016000918D828D981731F0828DE80FF11D858D6C
:1001700090E008958FEF9FEF0895FC01918D228DFF
:10018000892F90E0805C9F4F821B91098F73992784
:100190000895FC01A48DA80FB92FB11DA35ABF4F1C
:1001A0002C91848D90E001968F739927848FA68976
:1001B000B7892C93A089B1898C91837080648C93CA
:1001C000938D848D981306C00288F389E02D808179
:1001D0008F7D80830895EF92FF920F931F93CF93AB
:1001E000DF93EC0181E0888F9B8D8C8D98131AC072
:1001F000E889F989808185FF15C09FB7F894EE8959
:10020000FF896083E889F9898081837080648083B5
:100210009FBF81E090E0DF91CF911F910F91FF9000
:10022000EF900895F62E0B8D10E00F5F1F4F0F73A8
:100230001127E02E8C8D8E110CC00FB607FCFACF63
:10024000E889F989808185FFF5CFCE010E94C90038
:10025000F1CFEB8DEC0FFD2FF11DE35AFF4FF08234
:100260009FB7F8940B8FEA89FB8980818062CFCF9A
:10027000CF93DF93EC01888D8823B9F0AA89BB89DD
:10028000E889F9898C9185FD03C0808186FD0DC0C8
:100290000FB607FCF7CF8C9185FFF2CF808185FFE9
:1002A000EDCFCE010E94C900E9CFDF91CF91089533
:1002B0008093BB0084E88093BC008091BC0087FFE2
:1002C000FCCF0895FC0101900020E9F73197AF01C0
:1002D000481B590BBC0186E991E00C945F00CF9359
:1002E000C42F2AE04AE851E00E941F048AE891E006
:1002F0000E9462016C2F86E991E0CF910C94EB0093
:100300001F920F920FB60F9211242F933F934F938A
:100310005F936F937F938F939F93AF93BF93EF936D
:10032000FF9386E991E00E94C900FF91EF91BF9190
:10033000AF919F918F917F916F915F914F913F917D
:100340002F910F900FBE0F901F9018951F920F9234
:100350000FB60F9211242F938F939F93EF93FF93D8
:10036000E091A601F091A7018081E091AC01F091AC
:10037000AD0182FD1BC090818091AF018F5F8F73B3
:100380002091B001821741F0E091AF01F0E0EA5610
:10039000FE4F958F8093AF01FF91EF919F918F91C9
:1003A0002F910F900FBE0F901F9018958081F4CF62
:1003B0001F920F920FB60F9211242F933F934F93DA
:1003C0005F936F937F938F939F93AF93BF93EF93BD
:1003D000FF938091BB0081E00E94580180E88093E8
:1003E000BC001092810040918400509185001092D1
:1003F00085001092840021E02093810020918801E3
:100400003091890125303105FCF4109287018091EB
:1004100088019091890101969093890180938801C8
:1004200085E48093BC00FF91EF91BF91AF919F91C4
:100430008F917F916F915F914F913F912F910F908D
:100440000FBE0F901F90189570E060E080918701BB
:100450008823D9F0109287018091830190918401C3
:10046000A0918501B0918601840F951FA61FB71F2B
:100470008752944FAF4FBF4F809383019093840175
:10048000A0938501B0938601C2CF809183019091A2
:100490008401A0918501B0918601840F951FA61F4C
:1004A000B71F8452944FA109B109E6CF1F920F9252
:1004B0000FB60F9211248F93809187018F5F8093E5
:1004C00087018F910F900FBE0F901F901895E6E94E
:1004D000F1E01382128288EE93E0A0E0B0E0848322
:1004E0009583A683B78384E091E09183808385EC34
:1004F00090E09587848784EC90E09787868780ECEE
:1005000090E0918B808B81EC90E0938B828B82ECDE
:1005100090E0958B848B86EC90E0978B868B118E88
:10052000128E138E148E089584B7A89584B7877F92
:1005300084BF8091600088618093600010926000A9
:1005400082E08093BA0080917C00806480937C007C
:1005500085B78F7E85BF8AB18B778AB98BB1846866
:100560008BB926982E9A83E084B985B78F7E85BF94
:1005700084B18B7784B987B1887F87B98AB187784E
:100580008AB985B1846885B988B1876088B98BB12B
:1005900088678BB9609166008DEF91E00E946804D6
:1005A000499BFECF85E090E022EB35E026BD35BDCE
:1005B000A89BFECFA89A15BCA8950197B9F78EEF16
:1005C00091E00E946004C82F80EF8C0F803E40F4C1
:1005D0008FEF91E00E946004C81302C0C0936600D0
:1005E000E091A601F091A70182E08083E091A20151
:1005F000F091A3011082E091A401F091A50180E1A6
:1006000080831092AE01E091AA01F091AB0186E0E7
:100610008083E091A801F091A901808180618083AD
:10062000E091A801F091A901808188608083E09128
:10063000A801F091A901808180688083E091A801E0
:10064000F091A90180818F7D808378948DEF91E076
:100650000E946004809382018091660080938101F2
:1006600082E191E00E9462016091810170E090E07E
:1006700080E04DE00E946F018FE291E00E946201F4
:100680006091820170E090E080E04DE00E946F0197
:100690008CE491E00E9462018FE39CE90197F1F7FD
:1006A00000C0000080E1C82ED12CE12CF12CD4E454
:1006B00004ECC0E815E43FB6C092660080916F007C
:1006C000816080936F00D093BC008091BC0087FF55
:1006D000FCCF8091BB001092BB000093BC008091C6
:1006E000BC0087FFFCCF85E50E945801C093BC0089
:1006F000D093BC008091BC0087FFFCCF8091BB00F1
:1007000081E00E945801C093BC00109285001092B5
:10071000840081E08093810078941093BC00109253
:100720008901109288011092830110928401109225
:1007300085011092860180918801909189010F971F
:10074000D4F310928901109288011092BC0080901D
:10075000830190908401A0908501B0908601C5012D
:10076000B4012AE030E040E050E00E947604290124
:100770003A01D093BC008091BC0087FFFCCF8091F0
:10078000BB0080E00E945801C093BC0080916F00C4
:100790008E7F80936F003FBE8091810180936600C1
:1007A00049E0C701B6010E946F0140E2C301B201F6
:1007B0000E946F018AE291E00E946201C501B401CA
:1007C0002AE638E140E050E00E947604CA01B9010F
:1007D00045E20E946F018EE691E00E9462019FE770
:1007E00028E381E0915020408040E1F700C0000004
:1007F0009FEFC91AD90AE90AF90A21EFC216D104F2
:10080000E104F10409F057CF81E791E00E94620111
:1008100086E991E00E94BD00892B11F4A895F8CFDC
:1008200086E991E00E949B0088E199E00FB6F89478
:10083000A895809360000FBE90936000FFCFBB2708
:100840002A3051F4992342F4BDE290958095709539
:1008500061957F4F8F4F9F4F0C942F04BB27FA0158
:10086000A62F6217710581059105330B30FB66F0E9
:10087000AA27660F771F881F991FAA1FA21710F0BB
:10088000A21B63953850A9F7A05DAA3308F0A95DB3
:10089000A19336F7B111B1931082CA010C945004A0
:1008A000DC01FC01672F71917723E1F7329704C0D7
:1008B0007C916D9370836291AE17BF07C8F3089562
:1008C000F999FECF92BD81BDF89A992780B5089518
:1008D000262FF999FECF1FBA92BD81BD20BD0FB65C
:1008E000F894FA9AF99A0FBE01960895052E97FB8F
:1008F0001EF400940E948D0457FD07D00E949504B9
:1009000007FC03D04EF40C948D045095409530951F
:1009100021953F4F4F4F5F4F08959095809570956B
:1009200061957F4F8F4F9F4F0895A1E21A2EAA1B0A
:10093000BB1BFD010DC0AA1FBB1FEE1FFF1FA2178F
:10094000B307E407F50720F0A21BB30BE40BF50B8C
:10095000661F771F881F991F1A9469F76095709515
:10096000809590959B01AC01BD01CF010895EE0FDC
:0E097000FF1F0590F491E02D0994F894FFCF3D
:10097E0000000000EB005F008C003801BD009B0002
:10098E00AF0043616C20666163746F7220776F7283
:10099E006B696E672076616C7565202020090043B7
:1009AE00616C20666163746F722064656661756C3C
:1009BE00742076616C7565202020090043616C20DF
:1009CE006572726F7220746162756C6174656420F9
:1009DE00616761696E7374204F534343414C0D0A36
:0E09EE0000414B20746F2072657065617400CB
:00000001FF
