:100000000C9434000C9451000C9451000C941F0477
:100010000C9451000C9451000C9451000C9451001C
:100020000C9451000C9451000C9451000C9451000C
:100030000C9451000C9451000C9451000C945100FC
:100040000C9451000C9451000C947F040C945100BA
:100050000C9451000C9451000C9451000C945100DC
:100060000C9451000C94510011241FBECFEFD8E026
:10007000DEBFCDBF12E0A0E0B1E0E6EEF1E202C0EB
:1000800005900D92AC3FB107D9F724E0ACEFB2E098
:1000900001C01D92AE33B207E1F70E94D1090C9462
:1000A000F1100C9400009091C00095FFFCCF80935C
:1000B000C60008954F925F926F927F928F929F92A7
:1000C000AF92BF92CF92DF92EF92FF920F931F9366
:1000D000CF93DF93CDB7DEB72C970FB6F894DEBF82
:1000E0000FBECDBF4A015B018E010F5F1F4F811410
:1000F0009104A10490E8B906D9F58A30A9F08031BD
:1001000041F1F8017F01E01AF10A81918111FACFE2
:10011000E00EF11EE016F10609F46EC0F7018291BF
:100120007F010E945300F6CF98E3998384E38A838A
:1001300026E32B8323E32C839D838E8397E39F8386
:10014000888781E3898782E38A878DE28B871C8693
:10015000D8CF80E389838A838B838C838D838E833E
:100160008F8388E388878DE289871A861B86EFCF85
:1001700068019E01235F3F4FF8011192E217F307D8
:10018000E1F7B501A401B7FE07C044275527BA011E
:10019000481959096A097B09A42FF52FE62F972FD3
:1001A000F12CE12C482E880F5508660877086A2F35
:1001B0007F2F8E2FA30192010E949010F601608381
:1001C0006A30C4F4605D6083FFEFEF1AFF0AA22F6C
:1001D000F32FE42F952F8FEFC81AD80A232B242B47
:1001E000252B29F7B7FE8DCFF801EE0DFF1D8DE20F
:1001F000808387CF695CE7CF2C960FB6F894DEBF7B
:100200000FBECDBFDF91CF911F910F91FF90EF9067
:10021000DF90CF90BF90AF909F908F907F906F9026
:100220005F904F9008950F931F93CF93DF93EC014E
:100230008C0108531F4F8991882329F00E94530095
:10024000C017D107C1F7DF91CF911F910F9108958A
:1002500021EA3FE04091C00047FD07C0215031092D
:10026000C9F70197A9F780E0089581E0089580918A
:10027000C00087FFFCCF8091C600089566BD85BD94
:10028000A89BFECFA89A15BC0895CF93DF93D82FD3
:10029000C62F64E685E00E943E01E1ECF0E01082AA
:1002A000D093C500C093C40082E08093C00088E171
:1002B000808386E08093C200DF91CF91089587E329
:1002C00092E00C941301CF93DF93C82F262FD42FE5
:1002D00010923504109236041092370410923804AC
:1002E0001092390410923A0410923B0410923C048C
:1002F00010923D04109281001092850010928400AB
:100300008091680081608093680080916B008062BA
:1003100080936B00809139048217E4F38091680028
:100320008E7F8093680080916B008F7D80936B003F
:1003300060913504709136048091370490913804AF
:10034000022E000C330B440B550B0E949010D11160
:1003500009C057FF07C050954095309521953F4FF4
:100360004F4F5F4FCC23B9F0E0910203F0910303AC
:10037000EE0FFF1FEE0FFF1FE45DFC4F2083318364
:1003800042835383809102039091030301969093DB
:10039000030380930203CA01B901DF91CF9108954D
:1003A000BF92CF92DF92EF92FF920F931F93CF9362
:1003B000DF939091C1009F7E9093C100789492E06A
:1003C0009093010381113CC0C091E203C15F8EE2B2
:1003D0000E945300C150C093660040E06091010349
:1003E00080E00E946301C13E90F7683E7340810542
:1003F00091056CF71091660082E08093010394E808
:10040000C92E93E0D92EE12CF12CD0E08EE20E948F
:10041000530000910103BD2EBC0ECB2DCD1BD4315A
:1004200008F073C0C093660040E0602F80E00E9437
:1004300063016C157D058E059F05E4F1DF5FEDCF4F
:10044000DFE08EE20E945300DF5FD093660040E061
:100450006091010380E00E946301D03290F3683E16
:100460007340810591056CF71091660082E08093DE
:10047000010384E8C82E83E0D82EE12CF12CC0E0E3
:100480008EE20E94530000910103BD2EBC1ADB2DA9
:10049000DC0FC43108F046C0D093660040E0602F06
:1004A00080E00E9463016C157D058E059F0584F137
:1004B000CF5FEDCF1091660084E6C81AD108E1083D
:1004C000F10809F0A3CF40E06091010380E00E94B1
:1004D0006301809166008093E1038091C100806197
:1004E0008093C100C5E0D0E062EB85E00E943E0150
:1004F0002197D1F7F894DF91CF911F910F91FF9041
:10050000EF90DF90CF90BF90089510936600D4CF06
:100510001091660084E6C81AD108E108F10809F0D4
:10052000AFCFD1CF10936600F5CFCF93DF93CDB788
:10053000DEB7DA950FB6F894DEBF0FBECDBF0091DF
:100540001C0310911D030E945F0189E491E00E9449
:10055000B80980E191E00E9413018FEF90E00E94C2
:1005600028018823B1F38091C600873591F068F4A3
:10057000823581F188E19AE00FB6F894A8958093CE
:1005800060000FBE90936000FFCF823719F187376C
:1005900089F78FE191E00E941301B12CA12CCE01CB
:1005A00001961C010E943701D12CC12C823281F1AD
:1005B0000E94370121E090E0811101C020E0C22EAD
:1005C000D92E89E99AE32091C00027FD18C0019730
:1005D000D1F7F7CF0E945F0140E0B8018FE40E949D
:1005E0008F068F3F29F484E191E00E941301C2CF6E
:1005F00080911E0390911F030E944C07BBCF8091F6
:10060000C6008823F1F29FEFC91AD90A8232C9F6CF
:10061000F12CE12C90E0911139C029E93AE3809165
:10062000C00087FD04C021503109C9F7F6CF809181
:10063000C600882391F3EFEFCE1ADE0A823209F466
:10064000C9C09701AC14BD04ECF48A3011F08D30B0
:1006500049F4FE01EE0DFF1D8081811115C0F1E00E
:10066000EF1AF10897012F5F3F4FF101EE0DFF1DCB
:1006700080832F3F310534F08D3021F091E08111DE
:1006800001C090E07901C7CF80E0ECCF27012FEFC8
:10069000421A520A0E94ED05F101EE0DFF1D108273
:1006A00085B1836085B95101712C612C4801821894
:1006B0009308B4016A0D7B1DE0901E03F0901F03A8
:1006C0006E157F0564F4F50141915F0189E40E9494
:1006D0008F06FFEF6F1A7F0A6414750451F7C30188
:1006E000800F911FE816F90609F066C040E0B701D7
:1006F0006150710989E40E948F0683E095B19C7F67
:1007000095B9823021F50E94ED0585B1836085B9E8
:10071000CE0101965C016C01870104191509081BC3
:10072000190BB8016C0D7D1D80911E0390911F0364
:100730006817790764F4F60141916F0189E40E941A
:100740008F06C6018A199B094816590651F70E945F
:10075000ED0585B18C7F85B98BE491E00E94130192
:100760000E94ED054F2D70E060E089E40E948F0645
:100770004E2D61E070E089E40E948F0640E070E059
:1007800060E08FE40E948F06182F40E061E070E087
:100790008FE40E948F06412F50E0542F4427480FCA
:1007A000511D052E000C660B770B80E10E945A004C
:1007B0000E943701C70120CF21E0621A7108060D9F
:1007C000171D85B18C7F85B982E491E00E941301E9
:1007D0005601E8CE85B1836085B927018FEF481AAD
:1007E000580AE1E0F0E0EC0FFD1FEE0DFF1D108256
:1007F0007201E00EF11EC0901E03D0901F0382E034
:10080000EC14FD040CF47ACFFE0131967F01560101
:10081000F1E0AF1AB1080A151B0554F4F701419134
:100820007F01B80189E40E948F060F5F1F4FF3CF4D
:1008300040E0B50189E40E948F0676015ECF1F92E9
:100840000F920FB60F9211242F933F934F935F9304
:100850006F937F938F939F93AF93BF93809181000A
:1008600081111EC010923A0410923B0410923C0475
:1008700010923D04109285001092840082E08093D3
:100880008100BF91AF919F918F917F916F915F9107
:100890004F913F912F910F900FBE0F901F90189581
:1008A00010928100809139048F5F80933904809188
:1008B000350490913604A0913704B09138044091EA
:1008C0003A0450913B0460913C0470913D042091A6
:1008D000840030918500840F951FA61FB71F905884
:1008E000A109B109820F931FA11DB11D8093350489
:1008F00090933604A0933704B0933804C2CF1F926C
:100900000F920FB60F9211242F933F934F935F9343
:100910008F939F93EF93FF93E091C600E153E631ED
:1009200008F0F7C0F0E0E956FB4F0C94AF10AD04AF
:1009300069056B056D056F0571057305750577050F
:10094000850589058905890589058905890579054B
:100950007B057D057F058105830581E020913304BA
:10096000309134042330310509F412C10CF0D3C0A6
:100970002130310509F40CC12230310509F4E0C001
:100980002091330430913404293031050CF486C0B1
:10099000409133045091340420912F04309130045D
:1009A000421753070CF07AC020913304309134047D
:1009B000237033272130310541F490E1899F900164
:1009C0001124309332042093310420913304309168
:1009D0003404237033272230310551F4209131043F
:1009E00030913204280F311D3093320420933104AA
:1009F00020913304309134042370332723303105A0
:100A000041F490E1899F900111243093E7032093F2
:100A1000E603209133043091340423703327232BD1
:100A2000E9F52091E6033091E703820F932F911DA2
:100A30009093E7038093E6038091E6039091E703A8
:100A4000982F88279093E7038093E6032091E6038D
:100A50003091E7038091310490913204820F931F0B
:100A60009093320480933104E0912E0481E08E0F44
:100A700080932E048091310490913204F0E0EE0FC7
:100A8000FF1FE851FC4F918380838091E403909194
:100A9000E50301969093E5038093E403809133048A
:100AA00090913404019690933404809333048091A0
:100AB0002E048F7180932E04FF91EF919F918F915F
:100AC0005F914F913F912F910F900FBE0F901F900C
:100AD000189582E043CF83E041CF84E03FCF85E0AB
:100AE0003DCF86E03BCF87E039CF88E037CF89E044
:100AF00035CF8AE033CF8BE031CF8CE02FCF8DE044
:100B00002DCF8EE02BCF8FE029CF1092340410929E
:100B1000330480E023CF2530310509F453C00CF4B1
:100B200040C02630310509F02BCF2091310430919F
:100B30003204280F311D309332042093310416C043
:100B40002091310430913204280F311D309332044A
:100B5000209331042091310430913204220F331F4D
:100B6000275F3F4F3093300420932F04E0912E04F1
:100B700091E09E0F90932E04209131043091320425
:100B8000F0E0EE0FFF1FE851FC4F31832083F8CED9
:100B900090E1899F90011124309332042093310415
:100BA000EFCE2091310430913204280F311D309363
:100BB0003204209331042091310430913204322FD9
:100BC0002227EACF409131045091320490E1899F6D
:100BD00090011124240F351FDFCF82E090E00E94A6
:100BE0002801813019F48091C600F7CF08950000E4
:100BF0000000000000000895CF92DF92FF920F9353
:100C00001F93CF93DF93EB01F42EC12C98E4D92EE0
:100C1000883441F08C3419F0D12CC12C03C0C12C84
:100C200080E4D82E10E000E095B1809129038095F2
:100C3000892385B980912B039601002E02C0220FD3
:100C4000331F0A94E2F795B137FF60C0892B85B94D
:100C500085B190912903892B85B90E94F7050F5F13
:100C60001F4F0031110501F710E000E095B18091B0
:100C700029038095892385B980912B039E01002E3D
:100C800001C0220F0A94EAF795B127FF42C0892BD1
:100C900085B985B190912903892B85B90E94F70503
:100CA0000F5F1F4F0830110509F710E000E0CF2D4E
:100CB000D0E095B1809129038095892385B98091F1
:100CC0002B039E01002E01C0220F0A94EAF795B172
:100CD00027FF22C0892B85B985B190912903892BE3
:100CE00085B90E94F7050F5F1F4F0830110509F7FE
:100CF00095B1809129038095892385B9DF91CF91A2
:100D00001F910F91FF90DF90CF90089580958923D8
:100D10009ECF80958923BCCF80958923DCCFAF926D
:100D2000BF92CF92DF92EF92FF920F931F93CF93D8
:100D3000DF93B82E8B01C42FE8EBE80FF0E0E05012
:100D4000FF4FE080D12CC12CF12C95B1809129036B
:100D50008095892385B980912B0397010C2C01C0C4
:100D6000220F0A94EAF795B127FF89C0892B85B92C
:100D700085B190912903892B85B90E94F7054FEF22
:100D8000C41AD40A58E0C516D104F9F6F12CE12CA6
:100D900095B1809129038095892385B980912B0392
:100DA00098010E2C02C0220F331F0A94E2F795B16E
:100DB00037FF68C0892B85B985B190912903892BAC
:100DC00085B90E94F7058FEFE81AF80A90E1E91655
:100DD000F104F1F687E0C82ED12CA12C0C2E000CCA
:100DE000DD0B07E010E0EE24E394F12C95B1809147
:100DF00029038095892385B980912B0349E495B116
:100E0000B41243C098012C193D09AE0102C0440F31
:100E1000551F2A95E2F747FF38C0892B85B985B160
:100E200090912903892B85B90E94F70583B1909190
:100E30002A03892339F0C7010C2C01C0880F0A94BA
:100E4000EAF7A82A51E0C51AD10880F695B1809139
:100E500029038095892385B997E5B91219C06CEDEE
:100E600085E00E943E018A2DDF91CF911F910F9165
:100E7000FF90EF90DF90CF90BF90AF900895809556
:100E8000892375CF8095892396CF80958923C6CFF6
:100E900049E4B412E8CFE3CF0F931F93CF93DF93CE
:100EA0008C01C0911C03D0911D03C017D107ECF435
:100EB0000E945F01AE010D2E000C660B770B80E1E6
:100EC0000E945A008EEA92E00E941301BE01219610
:100ED00040E08FE40E948F06882339F30E9453007C
:100EE0006CED85E00E943E01F1CFDF91CF911F9123
:100EF0000F910C945F014F925F926F927F929F923D
:100F0000AF92BF92CF92DF92EF92FF920F931F9317
:100F1000CF93DF938C016B012C01712C612C32017A
:100F200055244424460E571E611C711CD0E0C0E0BD
:100F300095B1809129038095892385B980912B03F0
:100F400098010C2E02C0220F331F0A94E2F795B1CC
:100F500037FF58C0892B85B985B190912903892B1A
:100F600085B90E94F7052196C031D10509F7D0E077
:100F7000C0E0912C8FE0E82EF12C01E010E097E02A
:100F8000A92EB12C95B1809129038095892385B92B
:100F900080912B0396010C2E02C0220F331F0A945E
:100FA000E2F795B137FF31C0892B85B985B19091B2
:100FB0002903892B85B90E94F70541145104610466
:100FC00020E57206A9F020F5411481E0580661047D
:100FD00080E3780669F0411492E05906610490E3D9
:100FE000790631F041145104610420E37206F9F4EA
:100FF000C830D105E4F083B190912A038923B9F078
:10100000C7014DC080958923A6CF80958923CDCF78
:1010100041145104610438E5730609F44AC038F5F7
:101020004114510498E0690690E5790609F3219688
:10103000C031D10509F0A6CF95B1809129038095E3
:10104000892385B962EB85E00E943E01892DDF91FD
:10105000CF911F910F91FF90EF90DF90CF90BF90B5
:10106000AF909F907F906F905F904F900895411444
:10107000510428E0620628E5720609F4B9CF41144C
:10108000510433E563063CEA730689F6C830D1059E
:1010900074F683B190912A03892349F2C5018C1B10
:1010A0009D0B980102C0220F331F8A95E2F7922A06
:1010B000BECFCA30D1050CF4BACF9DCF40E0BC0101
:1010C00087E50E948F061092160308950F931F93D1
:1010D000CF93DF93C1E0D1E080910003882309F42E
:1010E00079C080910003815080930003D093160350
:1010F0009091110380912E049817D1F3E091110380
:10110000F0E0EE0FFF1FE851FC4F4081118140934A
:101110000C0310930D03809111038F5F80931103D3
:10112000809111038F71809311036091FE02709181
:10113000FF028CE40E94FC056091FE027091FF02A8
:10114000412F88E40E94FC058091FE029091FF02ED
:1011500001969093FF028093FE0280911403909178
:10116000150301969093150380931403809108034F
:1011700081508093080380911A0390911B0301967C
:1011800090931B0380931A030091FE021091FF02BB
:1011900080912403909125030817190709F09CCF2B
:1011A000609105037091060340E087E50E948F0679
:1011B000109216031092FF021092FE020093080391
:1011C0008091070380910703882309F485CFC0939A
:1011D000120382CFDF91CF911F910F9108958091DB
:1011E000090390910A0390931503809314032091AF
:1011F00022033091230328233923309306032093BD
:101200000503AC01421B530B5093FF024093FE02B7
:101210002091FE023091FF02877080930703809136
:101220002403821B809308030895909111038091F9
:101230002E049817D1F3E0911103F0E0EE0FFF1F99
:10124000E851FC4F808180930B03909111039F5FC5
:1012500090931103909111039F7190931103982F14
:1012600087FF02C091E0980F9595909300039091AD
:10127000170390311CF491E09093100380931703AF
:101280009091110380912E049817D1F3E0911103EE
:10129000F0E0EE0FFF1FE851FC4F3081218180917B
:1012A00011038F5F80931103809111038F718093DD
:1012B0001103832F922F97FD019695958795909313
:1012C0000A038093090320911803309119032F5FBB
:1012D0003F4F30931903209318034091140350910A
:1012E00015038417950741F41092120385B123FF6B
:1012F0002EC0836085B908950097C1F34091220301
:101300005091230384239523609105037091060374
:101310004091240350912503460F571F4817590742
:101320006CF441E04093130310920403861797076F
:10133000E9F61092130310920403D6CF8417950791
:10134000A9F71092130341E040930403EFCF8C7F81
:10135000D1CFCF93DF93EC01888199810E948210D5
:1013600088819981019699838883DF91CF9108952F
:101370000F931F93CF93DF93EC018C010F5A1F4FF4
:10138000CE010E947A10882339F02196C017D10728
:1013900019F00E945300F4CFDF91CF911F910F916C
:1013A0000895CF93DF9300D0CDB7DEB704B603FE28
:1013B00003C081E08093E303A89584B7877F84BF4F
:1013C000809160008861809360001092600080913D
:1013D00066008093E2038FEF93E00E947A10182F4B
:1013E00080EF810F803E40F48EEF93E00E947A10F0
:1013F000181302C01093660082E08093BA008091B7
:101400007C00806480937C0085B78F7E85BF14B894
:1014100017B81AB88FEF85B988B98BB9439860E1CE
:1014200080E00E94450105E010E062EB85E00E944B
:101430003E0101501109C9F783E084B985B18C7F61
:1014400085B98AEF93E00E947A10811106C184E584
:1014500091E00E94130180E00E94D001809166001B
:101460008F5F80936600789440E062E080E00E94A5
:1014700063016B017C01809166008250809366005D
:1014800040E062E080E00E946301209166002F5FEF
:101490002093660025EFC21621E0D206E104F10494
:1014A0002CF4653F7140810591053CF089E691E09F
:1014B0000E94130181E00E94D0011091E103612F8D
:1014C0008FEF93E00E948210612F8EEF93E00E94D5
:1014D00082106091E2038DEF93E00E9482108AE90E
:1014E00091E00E9413014091E20350E070E060E05F
:1014F0008AE00E945A0082EB91E00E941301409121
:10150000E10350E070E060E08AE00E945A000E942F
:101510005F01789441E062E080E00E9463019B01FA
:10152000AC01A4E6B0E00E94B51020E030E840E055
:1015300050E00E94901069017A0186EC91E0C1149C
:10154000D104E104F10459F08DED91E00E94130102
:10155000B701A6018AE00E945A0089ED91E00E943D
:10156000130188EE91E00E9413010E943701883731
:1015700009F06EC064E685E00E943E01809166003D
:10158000845180936600809166008093E00309E2B5
:1015900010E041E062E081E00E946301809166001A
:1015A0008F5F809366000150110999F78091E103E4
:1015B000809366005CE2E52E53E0F52E60EDC62ECA
:1015C00063E0D62E412C70E8572E612C712C1091BF
:1015D000E003412F50E070E060E08AE00E945A0092
:1015E0001F5F1093E00389E00E945300F701819090
:1015F0009190A190B1907F01B501A4018AE00E9471
:101600005A0089E00E945300A4E6B0E0A5019401CD
:101610000E94B510A30192010E949010BA01A90185
:101620008AE00E945A0085E20E9453000E945F01F6
:1016300064E685E00E943E0164E685E00E943E018A
:1016400064E685E00E943E01CE14DF0409F0BFCFBE
:101650006FEF8AEF93E00E9482108091E303813064
:1016600009F06BC01092E3038AE392E00E94130139
:101670008FEF90E00E9428018823B1F38091C6008B
:10168000883509F40AC108F0FBC0833509F408C1A4
:10169000863509F4ABC1803539F730EDA32E88E0EB
:1016A00080932B0390E190932A0390E29093290377
:1016B0008093280384B1886284B93B9A63EC84E008
:1016C0000E943E0198B1809128038095892388B9B2
:1016D00095B1809129038095892385B963EC84E0D5
:1016E0000E943E0188B190912803892B88B963EC50
:1016F00084E00E943E0198B180912803809589235F
:1017000088B964E685E00E943E0170E060E083E510
:101710009CEA0E947B07833509F479C18FE892E047
:101720000E94130188E19BE00FB6F894A89580937E
:1017300060000FBE90936000FFCF8AEF93E00E949D
:101740007A10813019F404B600FC0BC088E19AE0ED
:101750000FB6F894A895809360000FBE9093600038
:10176000FFCF8DE192E00E94130184E690E00E9499
:1017700028018823B1F38091C600823591F76FEF7D
:101780008AEF93E00E94821084B78E7F84BF84E446
:101790008093BC008091BC0087FFFCCF8091BB0090
:1017A00084EC8093BC008091BC0087FFFCCF8091CB
:1017B000BB008093E10384EC8093BC008091BC006B
:1017C00087FFFCCFC090BB000C2C000CDD08EE089E
:1017D000FF087E2D6D2D5C2D442784E88093BC008E
:1017E0008091BC0087FFFCCF8091BB00082E000CCD
:1017F000990BAA0BBB0B6C017D01C40ED51EE61E16
:10180000F71E80E88093BC000E945F0180E391E0B6
:101810000E94B80980EB92E00E9413014091E1031D
:1018200050E070E060E08AE00E945A0089E00E9487
:10183000530082E292E00E941301C701B60121E742
:1018400032E040E050E00E949010BA01A90189E224
:1018500092E0411551056105710529F08AE00E9469
:101860005A0084E392E00E94130188E19AE00FB6E7
:10187000F894A895809360000FBE90936000FFCF0E
:10188000833771F020F4803709F407CFEDCE863727
:1018900009F4ACC0883709F0E7CE27EDA22EFFCEC1
:1018A0001A8219820E945F0181E492E00E94130172
:1018B0000E945F0160EA81E00E9445010E943701B9
:1018C00080E592E00E9413010E945F010E943701AF
:1018D000823249F086E090E00E9428018823D1F30B
:1018E0008091C600F5CF0E943701182F8D30D9F3B3
:1018F0008A30C9F3612FCE0101960E94A90989811E
:101900009A81883F9340CCF486E090E00E942801C1
:10191000882399F08091C6008D3021F0823279F3CE
:101920008A3049F4112359F360E0CE0101960E94F8
:10193000A90910E0E4CF182FDDCF89819A81873F74
:10194000934099F460E0CE0101960E94A90985E0D8
:1019500090E00E942801813031F48091C6008EE22F
:101960000E945300F4CF0E945F0140E050E0BA01B2
:1019700080E10E945A0089E00E94530010E000E0DC
:101980000F5F1F4FC80101970E947A10882319F03A
:101990000E945300F5CF0E945F01A801012E000CA8
:1019A000660B770B80E10E945A0089E00E94530089
:1019B00089819A81081719071CF30E945F018AEC3C
:1019C00091E00E94B8090E945F0160E180E00E94FE
:1019D00045010E94370188E19AE00FB6F894A89576
:1019E000809360000FBE90936000FFCF87E792E086
:1019F0000E9413010E945F0188E19AE00FB6F894FB
:101A0000A895809360000FBE90936000FFCF70E0B8
:101A100060E080E090E30E947B078E3109F07ECE8B
:101A200060E071E080E090E30E947B07182F60E0A7
:101A300072E080E090E30E947B07EBEFE80FE0317B
:101A400008F059C00E2E000CFF0BE75DF24F0C940E
:101A5000AF10430D710D390D400D7B0D430D710D10
:101A60007B0D7B0D7B0D4A0D7B0D7B0D7B0D7B0D67
:101A70004A0D88E090E0909327038093260315C0D9
:101A800083E290E0F8CF80E390E01239A1F388E59B
:101A900090E0F1CF1539D9F788E491E090932703CE
:101AA0008093260382E40E9453000E945F0190E02D
:101AB00080E00E94B8098091260390912703883A1C
:101AC000910561F18834914009F496C088E19EE067
:101AD0000FB6F894A895809360000FBE90936000B5
:101AE000FFCF88EA90E0143909F4C5CF1339E9F63D
:101AF0008FE090E0C0CF0E945F018FE892E00E94EB
:101B000013010E945F0188E19BE00FB6F894A8954D
:101B1000809360000FBE90936000FFCF84E992E055
:101B20000E94130188E19EE00FB6F894A895809377
:101B300060000FBE9093600088E090E00E94B809BA
:101B40000E945F0182E190E00E94B8090E945F015B
:101B50008BEA92E00E9413018FEF90E00E9428012F
:101B60008823B1F38091C600843609F4A8C008F038
:101B70005AC0843409F475C0883509F459C08F7D82
:101B8000803531F710921B0310921A03109219033B
:101B9000109218031092E5031092E40310921703B9
:101BA000109216031092150310921403109213034F
:101BB0001092120310922E0410921103109210032F
:101BC00081E090E0909334048093330480ED92E0C0
:101BD0000E9413010E9437018A3309F499C08837A3
:101BE000C9F788E19AE00FB6F894A8958093600051
:101BF0000FBE90936000FFCF87EA92E00E9413012E
:101C000080E490E0909325038093240380EC9FE38D
:101C1000909323038093220380E090E49093210328
:101C20008093200389CF853671F0883709F0A7CFDC
:101C300088E19AE00FB6F894A895809360000FBEF3
:101C400090936000FFCF86EF93E090931F03809303
:101C50001E0385E090E090931D0380931C030E9477
:101C6000950283EB92E00E9413018EE790E00E94C0
:101C7000B8090E945F010E9437018434A9F488E901
:101C800090E00E94B80910E000E04FEFB80189E44D
:101C90000E948F060F5F1F4F0115F4E01F07A9F781
:101CA0008DEB92E00E94130188E19AE00FB6F89460
:101CB000A895809360000FBE90936000FFCF85ECE5
:101CC00092E00E9413018EE790E00E94B8090E9402
:101CD0005F010E943701843481F410E000E06FEF6F
:101CE000C8010E9482100F5F1F4F093F23E01207B7
:101CF000B1F78DEB92E00E94130188E19AE00FB6F4
:101D0000F894A895809360000FBE90936000FFCF79
:101D10008091C10080688093C100789470E060E099
:101D200080E89CEA0E947B070E9415090E94EF0848
:101D30000E9466080E94150980910B03882309F40C
:101D400075C00091090310910A03809114039091CA
:101D500015030817190739F4809110038823B1F18E
:101D6000813009F451C08091140390911503081734
:101D70001907F1F280911303882379F080911203FF
:101D800090911603992309F444C0811144C08091B5
:101D90000503909106030E945E0880910403882346
:101DA00081F080911603882351F0809112038111F4
:101DB00006C080910503909106030E945E08109270
:101DC00012030E94EF0810921003B2CF4091070354
:101DD00020910803022E000C330B80912403909174
:101DE0002503841B910947FD93952817390709F0AE
:101DF000BACF809122039091230380239123909363
:101E0000060380930503AFCF0E94EF0810921003E2
:101E1000AACF882311F22091050330910603809107
:101E2000240390912503820F931FB5CFF8948091DE
:101E3000C1008F778093C10085B18C7F85B981E027
:101E400090E00E942801813019F48091C600F7CFFC
:101E50008091120390911603992309F46EC08111A9
:101E60006FC080910503909106030E945E086A2D61
:101E700070E088EA9CEA0E947B0780EDA8126BC0A4
:101E80006DEF70E084EA9CEA0E947B0762EC70E0F0
:101E900080EA9CEA0E947B076BEE70E080EE9CEA91
:101EA0000E947B0710920F0310920E0310E000E0D7
:101EB000F12CE12CD12CC12C40E0B8018CE40E9423
:101EC0008F06B82E40E0B80188E40E948F062B2DC3
:101ED00030E0322F2227820F932F911D90930D0314
:101EE00080930C030F5F1F4F20912003309121033B
:101EF0000217130709F43FC00196C9F180910E0340
:101F000090910F03019690930F0380930E032FEF90
:101F1000C21AD20AE8ECCE16D10429F48AE20E9451
:101F20005300D12CC12CF8ECEF16F10429F68EE207
:101F30000E945300F12CE12CBFCF882309F497CFE6
:101F4000209105033091060380912403909125038D
:101F5000820F931F8ACFE7EDAE129ECF6FEF70E036
:101F600084EA9CEA0E947B0762EE70E091CF8FEFDB
:101F7000E81AF80ACFCF20EDA2120EC041E069EFB7
:101F800073E089E40E948F0661E08AEF93E00E948B
:101F9000821084B78E7F84BF0E945F0187E792E042
:101FA0000E9413010E945F0184EA90E00E94B80938
:101FB0000E945F0170E060E088E090E50E947B078E
:101FC000482F50E070E060E080E10E945A0080EB12
:101FD00092E00E94130170E060E088E098E50E94C2
:101FE0007B07482F50E070E060E080E10E945A00DB
:101FF00080EB92E00E94130170E060E080E090E5E9
:102000000E947B07482F50E070E060E080E10E9472
:102010005A0080EB92E00E94130170E060E080E0E3
:1020200098E50E947B07482F50E070E060E080E177
:102030000E945A000E945F010E945F0186EE90E0BC
:102040000E94B8090E945F0189E991E00E94B809E5
:102050004091E4035091E503052E000C660B770BCD
:102060008AE00E945A0080EB92E00E94130188EE01
:1020700092E00E94130180EB92E00E9413014091D4
:102080001A0350911B03052E000C660B770B8AE098
:102090000E945A0082EF92E00E94130180EB92E0CE
:1020A0000E94130140910E0350910F03052E000C66
:1020B000660B770B8AE00E945A0087EF92E00E943D
:1020C00013010E945F0187EDA8120BC088E19AE01E
:1020D0000FB6F894A895809360000FBE90936000AF
:1020E000FFCF0E945F0186EF90E00E94B8090E9436
:1020F0005F01FFCFF999FECF92BD81BDF89A992774
:1021000080B50895262FF999FECF1FBA92BD81BDE3
:1021100020BD0FB6F894FA9AF99A0FBE0196089569
:10212000052E97FB1EF400940E94A71057FD07D0C0
:102130000E94C01007FC03D04EF40C94A7105095D9
:102140004095309521953F4F4F4F5F4F08959095A3
:102150008095709561957F4F8F4F9F4F0895EE0F3B
:10216000FF1F0590F491E02D09940E94E210A59FB5
:10217000900DB49F900DA49F800D911D1124089582
:10218000A1E21A2EAA1BBB1BFD010DC0AA1FBB1F7B
:10219000EE1FFF1FA217B307E407F50720F0A21BED
:1021A000B30BE40BF50B661F771F881F991F1A945A
:1021B00069F760957095809590959B01AC01BD0184
:1021C000CF010895A29FB001B39FC001A39F700DDE
:1021D000811D1124911DB29F700D811D1124911D2F
:0621E0000895F894FFCF02
:1021E60028C00000200000A0000000000000004CF5
:1021F6003F2020004E6F2044617461210D0A000DBE
:102206000A53656E6420546578745F66696C6573FD
:102216005F48656C6C6F5F776F726C642E74787450
:1022260020002020416761696E2100202020414B5B
:102236003F0D0A000D0A726561647920746F206192
:1022460075746F63616C0D0A000D0A506F6F722012
:10225600726573756C743A20536561726368696E52
:102266006720666F7220616C7465726E6174697640
:10227600652076616C75650D0A000D0A4465666118
:10228600756C74204F534343414C2076616C7565E1
:1022960020000D0A4E6577204F534343414C20766C
:1022A600616C756520000D0A4572726F72206C654F
:1022B6007373207468616E2031250D0A000D0A457E
:1022C60072726F72203D20002D782D20746F20636E
:1022D6006865636B2063616C202831352053656324
:1022E60020706175736529206F7220414F4B2074F1
:1022F6006F206573636170650D0A0D0A0052202018
:1023060020006572726F7220006C657373207468AA
:10231600616E2031250D0A0D0A00502F5320202012
:1023260000425220326B34207468656E20414B00A7
:102336000D0A53656E6420546578745F66696C6532
:10234600735F6F6E2D636869705F737472696E6711
:10235600732E74787420000D0A6D696E695F4F5391
:102366002070726F6772616D6D65725F56310054D1
:10237600544E44003136383A204E6F7420737570CF
:10238600706F727465640033323800702F652020D8
:102396002020000D0A546172676574200020446F86
:1023A6006E650D0A000D0A4F6E2D63686970200078
:1023B6000D0A53656E64206D696E695F4F532D6813
:1023C60065782020200D0A0064276C6F61646564BF
:0C23D6003A0020696E3A00206F75740018
:00000001FF
