:107000000C9434380C9451380C9451380C945138F9
:107010000C9451380C9451380C9451380C945138CC
:107020000C9451380C9451380C9451380C945138BC
:107030000C9451380C9451380C9451380C945138AC
:107040000C9451380C9451380C94063A0C945138E5
:107050000C9451380C9451380C9451380C9451388C
:107060000C9451380C94513811241FBECFEFD8E046
:10707000DEBFCDBF11E0A0E0B1E0E4E5FFE702C074
:1070800005900D92AC34B107D9F722E0ACE4B1E041
:1070900001C01D92AF31B207E1F70E94433E0C944C
:1070A000A83F0C9400380000000000000000089584
:1070B000CF92DF92FF920F931F93CF93DF93EB0159
:1070C000F42E883431F08C3441F4C12C80E4D82E75
:1070D00006C0C12C98E4D92E02C0C12CD12C00E0EE
:1070E00010E095B1809114028095892385B9809133
:1070F00007029601002E02C0220F331F0A94E2F706
:1071000095B137FF02C0892B02C08095892385B9CC
:1071100095B180911402892B85B90E9453380F5F75
:107120001F4F00311105E9F600E010E095B18091A4
:1071300014028095892385B9809107029E01002E53
:1071400001C0220F0A94EAF795B127FF02C0892BEC
:1071500002C08095892385B995B180911402892B4D
:1071600085B90E9453380F5F1F4F08301105F1F6A3
:10717000C0E0D0E00F2D10E095B180911402809511
:10718000892385B98091070298010C2E01C0220F36
:107190000A94EAF795B127FF02C0892B02C08095B7
:1071A000892385B995B180911402892B85B90E94F4
:1071B00053382196C830D105F9F695B18091140263
:1071C0008095892385B9DF91CF911F910F91FF9011
:1071D000DF90CF90089520E030E04091C00047FD5F
:1071E0000DC02F5F3F4F213A4FE034071CF001974D
:1071F00020E030E0009789F780E0089581E008956D
:107200009091C00095FFFCCF8093C60008950F9326
:107210001F93CF93DF93EC018C0108531F4F89918B
:10722000882329F00E940039C017D107C1F7DF91E8
:10723000CF911F910F91089590910A028091520170
:107240009817D1F3E0910A02F0E0EE0FFF1FE55A24
:10725000FE4F2081318120930C0280910A028F5FC2
:1072600080930A0280910A028F7380930A02822F10
:1072700027FF02C081E0820F859580934E018091A7
:107280000F0280311CF481E08093FB0120930F02F8
:1072900090910A02809152019817D1F3E0910A026D
:1072A000F0E0EE0FFF1FE55AFE4F808191812091A3
:1072B0000A022F5F20930A0220910A022F73209363
:1072C0000A0297FD01969595879590930502809304
:1072D000040240911D0250911E024F5F5F4F509378
:1072E0001E0240931D0220915601309157018217D2
:1072F000930751F1009751F12091540130915501BC
:107300008223932360911702709118022091190231
:1073100030911A02260F371F2817390734F421E05D
:107320002093FC011092100208C08217930729F4E1
:107330001092FC0121E0209310028617970731F488
:107340001092FC011092100210920B0243FF02C037
:107350005F9808955F9A08958091040290910502C4
:10736000909357018093560120915401309155011B
:10737000282339233093180220931702AC01421BB3
:10738000530B50931202409311022091110230913D
:10739000120287708093FD012093150280911902DB
:1073A000821B80935101089590910A0280915201AD
:1073B0009817D1F3E0910A02F0E0EE0FFF1FE55AB3
:1073C000FE4F808191819093FF018093FE01809117
:1073D0000A028F5F80930A0280910A028F73809362
:1073E0000A0208950E94D43960911102709112022C
:1073F0004091FE018CE40E94583860911102709116
:1074000012024091FF0188E40C9458381F920F92A9
:107410000FB60F9211242F933F934F935F938F9347
:107420009F93EF93FF938091C6008A3331F41092BB
:107430000E0210920D0280E005C08A3310F48053D2
:1074400001C0875320910D0230910E022330310587
:10745000B9F1F4F42130310571F12230310509F030
:1074600064C020911B0230911C02280F311D309303
:107470001C0220931B0220911B0230911C02220F40
:10748000331F275F3F4F30930102209300023CC01F
:107490002530310579F1ECF02630310509F045C091
:1074A00020911B0230911C02280F311D30931C02C9
:1074B00020931B0229C040E1849F9001112404C045
:1074C00050E1859F9001112430931C0220931B02F0
:1074D0002CC020911B0230911C02280F311D3093CB
:1074E0001C0220931B0220911B0230911C02322FA0
:1074F0002227EACF20911B0230911C0290E1899F44
:10750000200D311D1124E0CFE091520191E09E0F3A
:1075100090935201F0E020911B0230911C02EE0F7B
:10752000FF1FE55AFE4F3183208320910D023091D9
:107530000E02293031050CF47DC040910D025091AE
:107540000E022091000230910102421753070CF005
:1075500071C020910D0230910E022370332721302B
:10756000310541F440E1849F9001112430931C02C5
:1075700020931B0220910D0230910E0223703327BD
:107580002230310551F420911B0230911C02280F4A
:10759000311D30931C0220931B0220910D0230916B
:1075A0000E02237033272330310541F450E1859FCB
:1075B00090011124309303022093020220910D02C6
:1075C00030910E0223703327232BA1F52091020264
:1075D00030910302A901480F511D509303024093BB
:1075E00002028091020290910302982F88279093C3
:1075F00003028093020220910202309103028091E3
:107600001B0290911C02820F931F90931C02809387
:107610001B02E091520181E08E0F80935201F0E055
:1076200080911B0290911C02EE0FFF1FE55AFE4F46
:107630009183808380910D0290910E020196909328
:107640000E0280930D02809152018F73809352013C
:10765000FF91EF919F918F915F914F913F912F916A
:107660000F900FBE0F901F90189566BD85BD85B316
:107670008823E9F3A89A15BC08955F926F927F92D0
:107680008F929F92AF92BF92CF92DF92EF92FF9232
:107690000F931F93CF93DF937C018B014C01A12C9F
:1076A000B12C540199248824860E971EA11CB11C6C
:1076B000C0E0D0E095B1809114028095892385B90E
:1076C0008091070297010C2E02C0220F331F0A94EB
:1076D000E2F795B137FF02C0892B02C0809589235C
:1076E00085B995B180911402892B85B90E945338D0
:1076F0002196C031D105F1F6C0E0D0E0512C8FE0E9
:10770000682E712CEE24E394F12C27E0C22ED12CAC
:1077100095B1809114028095892385B980910702E3
:1077200098010C2E02C0220F331F0A94E2F795B184
:1077300037FF02C0892B02C08095892385B995B196
:1077400080911402892B85B90E94533881149104C9
:10775000A10420E3B20689F08114910433E5A30665
:107760003CEAB306E1F4C830D105CCF493B1809182
:1077700006028923A1F0C60109C0C830D1057CF0FA
:1077800093B180910602892351F0C3018C1B9D0B9C
:10779000970102C0220F331F8A95E2F7522A2196E1
:1077A000C031D10509F0B4CF95B180911402809514
:1077B000892385B967EB85E00E94353B852DDF91F4
:1077C000CF911F910F91FF90EF90DF90CF90BF90DE
:1077D000AF909F908F907F906F905F900895AF9241
:1077E000BF92CF92DF92EF92FF920F931F93CF93AE
:1077F000DF93B82E8B01C42FE8EBE80FE03128F4BB
:10780000F0E0E45CFE4FE08001C0E12CC12CD12C03
:10781000F12C95B1809114028095892385B98091CE
:10782000070297010C2C01C0220F0A94EAF795B1C8
:1078300027FF02C0892B02C08095892385B995B1A5
:1078400080911402892B85B90E9453384FEFC41AD6
:10785000D40A58E0C516D104E1F6E12CF12C95B11B
:10786000809114028095892385B98091070298013F
:107870000E2C02C0220F331F0A94E2F795B137FF96
:1078800002C0892B02C08095892385B995B180916A
:107890001402892B85B90E9453388FEFE81AF80A31
:1078A00090E1E916F104D9F687E0C82ED12CA12C7D
:1078B000D0E007E010E0EE24E394F12C95B1809144
:1078C00014028095892385B98091070249E495B116
:1078D000B4120DC098012C193D09AE0102C0440F2D
:1078E000551F2A95E2F747FF02C0892B02C08095F9
:1078F000892385B995B180911402892B85B90E949D
:10790000533893B180910602892339F0C7010C2CBA
:1079100001C0880F0A94EAF7A82A51E0C51AD108D5
:1079200068F695B1809114028095892385B997E511
:10793000B91204C06CED85E00E94353B8A2DDF91C1
:10794000CF911F910F91FF90EF90DF90CF90BF905C
:10795000AF900895CF93C1E080914E01882309F440
:1079600050C080914E01815080934E01C093160209
:107970000E94F23980911102909112020196909327
:107980001202809311028091560190915701019645
:1079900090935701809356018091510181508093BB
:1079A000510180914F0190915001019690935001A7
:1079B00080934F012091110230911202809119029F
:1079C00090911A022817390739F6609117027091C1
:1079D000180240E087E50E94EF3B109216021092D9
:1079E000120210921102809119028093510180912C
:1079F000FD0180931502882309F4AECFC0930B02DA
:107A0000ABCFCF91089540E0BC0187E50E94EF3BEA
:107A10001092160208950E941C391092FB010E94D8
:107A2000AC390E94AA3C0E941C3980910C02882328
:107A300009F46FC0809104029091050220915601D3
:107A4000309157018217930709F52091FB0121110D
:107A500054C040915101042E000C550B6091150249
:107A60002091190230911A02261B310967FD3395C6
:107A700042175307B1F620915401309155018223EA
:107A800093239093180280931702CBCF8091FC012F
:107A90008823F9F080911602882351F080910B021F
:107AA000811106C080911702909118020E94033D37
:107AB00080910B02882309F120911702309118025E
:107AC0008091190290911A02820F931F0E94033D28
:107AD00014C080911002882381F0809116028823BF
:107AE00051F080910B02811106C080911702909194
:107AF00018020E94033D10920B020E94AC390E94B2
:107B0000AA3C8091FB01882309F48DCF1092FB01E0
:107B10008ACF8091C1008F778093C10082E090E08E
:107B20000E94EB38813019F48091C600F7CF809124
:107B30001602882351F080910B02811106C08091BA
:107B40001702909118020E94033D80910B02882336
:107B500061F02091170230911802809119029091E2
:107B60001A02820F931F0C94033D0895CF92DF9267
:107B7000EF92FF920F931F93CF93DF9310924D01DB
:107B800010924C011092FF011092FE0110E000E0F3
:107B9000E12CF12CC12CD12C40E0B7018CE40E94E7
:107BA000EF3BC82FD0E0D093FF01C093FE0140E02F
:107BB000B70188E40E94EF3BDC2FCC27C80FD11D12
:107BC000D093FF01C093FE018FEFE81AF80A8FEF00
:107BD000C81AD80A8091080290910902E816F9069D
:107BE00079F11A3068F5219691F080914C019091CD
:107BF0004D01019690934D0180934C0120914F01CE
:107C000030915001821793077CF004E00DC088EC9E
:107C1000C816D10409F68AE2800F0E9400391123A8
:107C200009F4B8CF1F5FB6CF88ECC816D10431F481
:107C30008AE2800F0E94003911E0F4CF11E0ACCF4E
:107C4000DF91CF911F910F91FF90EF90DF90CF9038
:107C50000895CF93DF93D82FC62F64E685E00E9466
:107C6000353BE1ECF0E01082D093C500C093C40036
:107C700082E08093C00088E1808386E08093C20028
:107C8000DF91CF910895A89584B7877F84BF8091B5
:107C900060008861809360001092600060916600CF
:107CA0008DEF93E00E949A3F8EEF93E00E94923F07
:107CB000C82F80EF8C0F803E50F48FEF93E00E942E
:107CC000923FC81304C0C0936600C1E001C0C0E089
:107CD00004B601FC05C081E085BF15BE0C94000010
:107CE00085B78F7E85BF24982C9A63EC84E00E9430
:107CF000353B1C9905C081E085BF15BE0C94000082
:107D00002C9881E085BF82E085BF84B78D7F84BFDA
:107D1000579A5F9880917C00806480937C0060E13A
:107D200080E00E94293ED8E080E1982E90E2892EE2
:107D300000E410E020ECE22E2FE3F22EC12C30E420
:107D4000D32EAA24A394B12CD093070290920602BA
:107D500080921402D093130284B1886284B93B9A52
:107D600063EC84E00E94353B98B1809113028095CA
:107D7000892388B995B1809114028095892385B9AA
:107D800063EC84E00E94353B98B180911302892B0B
:107D900088B963EC84E00E94353B98B1809113026E
:107DA0008095892388B964E685E00E94353B60E0D0
:107DB00070E083E59CEA0E943D3B833509F0AEC04C
:107DC00060E070E080E090E30E943D3B8E3109F07E
:107DD000A5C080E091E00E9407398CE291E00E940A
:107DE000EB388823B1F38091C60080935801803727
:107DF000C1F0873639F0883761F761E08CEF93E0A6
:107E00000E949A3F86E091E00E9407399AE088E15B
:107E10000FB6F894A895809360000FBE9093600011
:107E2000FFCF8CE091E00E9407395F9A10931A020D
:107E300000931902F0925501E0925401D092090288
:107E4000C0920802B0920E02A0920D021092500150
:107E500010924F0110920F021092160210925701C9
:107E6000109256011092FC0110920B0210925201D6
:107E700010920A0210921E0210921D0260E070E041
:107E800083E59CEA0E943D3B60E070E080E89CEA6C
:107E90000E943D3B8091C10080688093C10078942E
:107EA0000E940B3D6DEF70E084EA9CEA0E943D3B2E
:107EB00067ED70E088EA9CEA0E943D3B62EC70E06E
:107EC00080EA9CEA0E943D3B6FEF70E080EE9CEA06
:107ED0000E943D3B5F980E94B63D98B1809113028D
:107EE000892B88B920914F013091500180914C012C
:107EF00090914D012817390719F485E291E002C0ED
:107F000089E291E00E940739C13019F48EE291E0D4
:107F100002C085E391E00E94073916CF81E20E94FA
:107F20000039F2CFF999FECF92BD81BDF89A992719
:107F300080B50895262FF999FECF1FBA92BD81BD55
:107F400020BD0FB6F894FA9AF99A0FBE01960895DB
:047F5000F894FFCFD3
:107F5400702F672020005377210D0A000D0A536506
:107F64006E642066696C652041544D454741333247
:107F7400383A0D0A00204F4B0021213F3F002020BA
:107F840055430D0A00202044430D0A002800000038
:0C7F940020000000000000000000004C75
:00000001FF
