:100000000C9434000C9451000C9451000C94510049
:100010000C9451000C9451000C9451000C9451001C
:100020000C9451000C945E010C9451000C945100FE
:100030000C9451000C9451000C9451000C945100FC
:100040000C9451000C9451000C94A4010C94510098
:100050000C9451000C9451000C9451000C945100DC
:100060000C9451000C94510011241FBECFEFD8E026
:10007000DEBFCDBF14E0A0E0B1E0E2E7F5E102C0F1
:1000800005900D92AA30B107D9F724E0AAE0B4E0B8
:1000900001C01D92AA3CB207E1F70E943E060C94F3
:1000A000B70A0C9400009091C00095FFFCCF80939C
:1000B000C60008950F931F93CF93DF93EC018C013B
:1000C00008531F4F8991882329F00E945300C017BD
:1000D000D107C1F7DF91CF911F910F91089566BDB0
:1000E00085BDA89BFECFA89A15BC0895000000000E
:1000F0000000000008954F925F926F927F929F924E
:10010000AF92BF92CF92DF92EF92FF920F931F9325
:10011000CF93DF938C016B012C01712C612C320188
:1001200055244424460E571E611C711CD0E0C0E0CB
:1001300095B1809139048095892385B980913B04DC
:1001400098010C2E02C0220F331F0A94E2F795B1DA
:1001500037FF58C0892B85B985B190913904892B17
:1001600085B90E9476002196C031D10509F7D0E00B
:10017000C0E0912C8FE0E82EF12C01E010E097E038
:10018000A92EB12C95B1809139048095892385B928
:1001900080913B0496010C2E02C0220F331F0A945B
:1001A000E2F795B137FF31C0892B85B985B19091C0
:1001B0003904892B85B90E947600411451046104E9
:1001C00020E57206A9F020F5411481E0580661048B
:1001D00080E3780669F0411492E05906610490E3E7
:1001E000790631F041145104610420E37206F9F4F8
:1001F000C830D105E4F083B190913A048923B9F075
:10020000C7014DC080958923A6CF80958923CDCF86
:1002100041145104610438E5730609F44AC038F505
:100220004114510498E0690690E5790609F3219696
:10023000C031D10509F0A6CF95B1809139048095E0
:10024000892385B967EB85E00E946F00892DDF91D6
:10025000CF911F910F91FF90EF90DF90CF90BF90C3
:10026000AF909F907F906F905F904F900895411452
:10027000510428E0620628E5720609F4B9CF41145A
:10028000510433E563063CEA730689F6C830D105AC
:1002900074F683B190913A04892349F2C5018C1B0D
:1002A0009D0B980102C0220F331F8A95E2F7922A14
:1002B000BECFCA30D1050CF4BACF9DCF1F920F929A
:1002C0000FB60F9211248F93EF93FF938091C80480
:1002D000833091F58091C70481508093C7041092B8
:1002E000B100809170008E7F809370008091C60471
:1002F0008F5F8093C6048091C6048F738093C60479
:10030000E091C604F0E0EE0FFF1FEA5BFB4F1182A5
:1003100010828091C6048F5F8093C6048091C604CA
:100320008F738093C604E091C604F0E0EE0FFF1FC8
:10033000EA5BFB4F11821082FF91EF918F910F903A
:100340000FBE0F901F9018951F920F920FB60F922D
:1003500011242F933F934F935F938F939F93EF932A
:10036000FF93E091C600E153E63108F0F7C0F0E0FA
:10037000E454FE4F0C94B10AD2018E029002920214
:100380009402960298029A029C02AA02AE02AE025F
:10039000AE02AE02AE02AE029E02A002A202A40211
:1003A000A602A80281E02091440430914504233044
:1003B000310509F412C10CF0D3C02130310509F424
:1003C0000CC12230310509F4E0C020914404309181
:1003D0004504293031050CF486C040914404509105
:1003E00045042091400430914104421753070CF01A
:1003F0007AC0209144043091450423703327213082
:10040000310541F490E1899F900111243093430418
:1004100020934204209144043091450423703327F3
:100420002230310551F42091420430914304280FC9
:10043000311D3093430420934204209144043091B1
:100440004504237033272330310541F490E1899F1F
:100450009001112430933F0420933E0420914404E2
:100460003091450423703327232BE9F520913E0476
:1004700030913F04820F932F911D90933F048093FE
:100480003E0480913E0490913F04982F88279093DA
:100490003F0480933E0480913E0490913F0420915C
:1004A000420430914304820F931F9093430480933E
:1004B0004204E091C60481E08E0F8093C6048091CF
:1004C000420490914304F0E0EE0FFF1FEA5BFB4F04
:1004D0009183808380913C0490913D040196909398
:1004E0003D0480933C04809144049091450401961E
:1004F00090934504809344048091C6048F73809345
:10050000C604FF91EF919F918F915F914F913F9121
:100510002F910F900FBE0F901F90189582E043CF40
:1005200083E041CF84E03FCF85E03DCF86E03BCF05
:1005300087E039CF88E037CF89E035CF8AE033CF05
:100540008BE031CF8CE02FCF8DE02DCF8EE02BCF05
:100550008FE029CF109245041092440480E023CF0D
:100560002530310509F453C00CF440C02630310564
:1005700009F02BCF2091420430914304280F311D04
:10058000309343042093420416C0209142043091DA
:100590004304280F311D30934304209342042091DB
:1005A000420430914304220F331F275F3F4F3093A3
:1005B000410420934004E091C60491E09E0F909383
:1005C000C6042091420430914304F0E0EE0FFF1F77
:1005D000EA5BFB4F31832083F8CE90E1899F900145
:1005E00011243093430420934204EFCE209142041F
:1005F00030914304280F311D30934304209342046B
:100600002091420430914304322F2227EACF4091B7
:1006100042045091430490E1899F90011124240FDA
:10062000351FDFCF80911E0490911F049093260404
:100630008093250420912B0430912C042823392306
:100640003093190420931804AC01421B530B5093B0
:100650000C0440930B0420910B0430910C04877020
:1006600080931A0480911B04821B80931D040895BB
:10067000909122048091C6049817D1F3E09122044E
:10068000F0E0EE0FFF1FEA5BFB4F808180932004B8
:10069000909122049F5F90932204909122049F7373
:1006A00090932204982F87FF02C091E0980F9595B0
:1006B00090930D049091280490311CF491E0909354
:1006C000210480932804909122048091C6049817F5
:1006D000D1F3E0912204F0E0EE0FFF1FEA5BFB4F45
:1006E00080819181209122042F5F20932204209108
:1006F00022042F73209322049695879590931F04CC
:1007000080931E042091290430912A042F5F3F4FCB
:1007100030932A0420932904409125045091260403
:100720008417950741F41092230485B123FF2EC04E
:10073000836085B908950097C1F340912B045091CF
:100740002C0484239523609118047091190440911E
:100750001B0450911C04460F571F4817590768F493
:1007600041E0409324041092170486179707E9F696
:100770001092240410921704D6CF84179507A9F776
:100780001092240441E040931704EFCF8C7FD1CF27
:10079000EF92FF920F931F93CF93DF9300D000D07F
:1007A00000D0CDB7DEB7972FE0E0E82E880FFF0826
:1007B0008E010F5F1F4F862FB7010E94890A9B0190
:1007C000D801AE0FB11D8C938A303CF5805D8C93BF
:1007D000EF5F622F932F232B71F7E43040F4D801A1
:1007E000AE0FB11D80E3EF5F8D93E430E1F7E00FD2
:1007F000F12FF11D1082F8017F01E01AF10A8191B9
:100800008111FACFE00EF11E0E151F0541F0F70120
:1008100082917F010E945300F7CF895CD8CF86EE8A
:1008200092E026960FB6F894DEBF0FBECDBFDF91E3
:10083000CF911F910F91FF90EF900C945A008091EF
:10084000C00087FFFCCF8091C6000895CF92DF9251
:10085000FF920F931F93CF93DF93EB01F42EC12CE4
:1008600098E4D92E883441F08C3419F0D12CC12C65
:1008700003C0C12C80E4D82E10E000E095B1809137
:1008800039048095892385B980913B049601002E17
:1008900002C0220F331F0A94E2F795B137FF60C000
:1008A000892B85B985B190913904892B85B90E942E
:1008B00076000F5F1F4F0031110501F710E000E0D7
:1008C00095B1809139048095892385B980913B0445
:1008D0009E01002E01C0220F0A94EAF795B127FF6E
:1008E00042C0892B85B985B190913904892B85B98E
:1008F0000E9476000F5F1F4F0830110509F710E0C6
:1009000000E0CF2DD0E095B1809139048095892306
:1009100085B980913B049E01002E01C0220F0A94EC
:10092000EAF795B127FF22C0892B85B985B190914F
:100930003904892B85B90E9476000F5F1F4F08305C
:10094000110509F795B1809139048095892385B9FE
:10095000DF91CF911F910F91FF90DF90CF9008957D
:10096000809589239ECF80958923BCCF809589234C
:10097000DCCFAF92BF92CF92DF92EF92FF920F93B4
:100980001F93CF93DF93B82E8B01C42FE8EBE80FB2
:10099000F0E0E050FF4FE080D12CC12CF12C95B15C
:1009A000809139048095892385B980913B04970112
:1009B0000C2C01C0220F0A94EAF795B127FF89C0D9
:1009C000892B85B985B190913904892B85B90E940D
:1009D00076004FEFC41AD40A58E0C516D104F9F6D0
:1009E000F12CE12C95B1809139048095892385B94A
:1009F00080913B0498010E2C02C0220F331F0A94F1
:100A0000E2F795B137FF68C0892B85B985B1909120
:100A10003904892B85B90E9476008FEFE81AF80A0D
:100A200090E1E916F104F1F687E0C82ED12CA12C53
:100A30000C2E000CDD0B07E010E0EE24E394F12C0B
:100A400095B1809139048095892385B980913B04C3
:100A500049E495B1B41243C098012C193D09AE0187
:100A600002C0440F551F2A95E2F747FF38C0892B73
:100A700085B985B190913904892B85B90E9476009A
:100A800083B190913A04892339F0C7010C2C01C03D
:100A9000880F0A94EAF7A82A51E0C51AD10880F60F
:100AA00095B1809139048095892385B997E5B9126C
:100AB00019C06CED85E00E946F008A2DDF91CF9107
:100AC0001F910F91FF90EF90DF90CF90BF90AF906C
:100AD00008958095892375CF8095892396CF809539
:100AE0008923C6CF49E4B412E8CF809112048A303A
:100AF00001F767EBDFCF40E0BC0187E50E94B90456
:100B00001092270408950F931F93CF93DF93C1E0B2
:100B1000D1E080910D04882309F479C080910D04FF
:100B2000815080930D04D0932704909122048091EA
:100B3000C6049817D1F3E0912204F0E0EE0FFF1FF6
:100B4000EA5BFB4F4081118140932F0410933004E6
:100B5000809122048F5F80932204809122048F73FE
:100B60008093220460910B0470910C048CE40E9429
:100B7000260460910B0470910C04412F88E40E94BC
:100B8000260480910B0490910C04019690930C0420
:100B900080930B04809125049091260401969093F4
:100BA00026048093250480911D04815080931D04A8
:100BB0008091310490913204019690933204809395
:100BC000310400910B0410910C0480911B0490914E
:100BD0001C040817190709F09CCF60911804709144
:100BE000190440E087E50E94B9041092270410928E
:100BF0000C0410920B0400931D0480911A04809140
:100C00001A04882309F485CFC093230482CFDF918F
:100C1000CF911F910F91089540E06AEF73E089E44E
:100C20000E94B9048FE39CE90197F1F700C000002E
:100C30008091C100877E8093C10085B78F7E85BF7C
:100C400014B817B81AB88FEF85B988B98BB983E093
:100C500084B985B18C7F85B9259A2D9816BC85E01D
:100C600085BD88B19091C904892B88B990E2A89B71
:100C7000FECFA89A85B1892785B9F9CF80E88093FE
:100C8000610081E080936100A89584B7877F84BF6D
:100C90008091600088618093600010926000809174
:100CA0007C00806480937C0085B78F7E85BF14B8FC
:100CB00017B81AB88FEF85B988B98BB983E084B9B2
:100CC00085B18C7F85B96CED85E00E946F0088E06E
:100CD00080933B0490E190933A0490E2909339041E
:100CE0008093C90484B1886284B93B9A98B1809199
:100CF000C9048095892388B96CED85E00E946F0056
:100D00001092C1001092C50089E18093C40082E076
:100D10008093C00088E18093C10086E08093C20088
:100D200098B18091C9048095892388B980E191E0C8
:100D30000E945A0090E080E02FEF30E04091C00028
:100D400047FD1FC30196813A4FE0940724F02150DC
:100D5000310990E080E02115310581F7E7CF883730
:100D600029F786E191E00E945A008091C100877EB8
:100D70008093C10085B78F7E85BF14B817B81AB8A5
:100D80008FEF85B988B98BB983E084B985B18C7F41
:100D900085B988B19091C904892B88B9FFCF85E3C3
:100DA00091E00E945A0083E491E00E945A0059C3E6
:100DB00085E391E00E945A0087E491E0F6CF8CE44D
:100DC00091E00E945A0085E691E00E945A0085E970
:100DD00093E00E945A0088E199E00FB6F894A89534
:100DE000809360000FBE90936000FFCF8AE691E091
:100DF0000E945A0085E993E00E945A0088E19AE037
:100E00000FB6F894A895809360000FBE9093600091
:100E1000FFCF83E292E00E945A0088E19AE00FB689
:100E2000F894A895809360000FBE90936000FFCF68
:100E3000843771F1883709F053C388E199E00FB620
:100E4000F894A895809360000FBE90936000FFCF48
:100E500089E392E00E945A000E941F048091C10021
:100E6000877E8093C10085B78F7E85BF14B817B881
:100E70001AB88FEF85B988B98BB983E084B985B189
:100E80008C7F85B988B19091C904892B88B9FFCF2F
:100E900089E392E00E945A000E941F040E940C06FF
:100EA0008EE592E00E945A0085E993E00E945A0084
:100EB0000E941F048434A1F481E892E00E945A0049
:100EC000D0E0C0E04FEFBE0189E40E94B904219652
:100ED000C13024E0D207B1F78DE892E00E945A00B9
:100EE00088E199E00FB6F894A895809360000FBE52
:100EF00090936000FFCF1092320410923104109250
:100F00002A041092290410923D0410923C0410927D
:100F1000280410922704109226041092250410929F
:100F20002404109223041092C604109222041092FA
:100F3000210481E090E090934504809344048091E3
:100F4000C10080688093C100789470E060E080E820
:100F50009CEA0E947B000E9438030E9412030E94B8
:100F600083050E94380380912004882309F472C00D
:100F7000C0911E04D0911F048091250490912604F5
:100F8000C817D90739F4809121048823B1F1813041
:100F900009F44EC08091250490912604C817D90702
:100FA000F1F280912404882379F0809123049091B8
:100FB0002704992309F441C0811141C0809118048C
:100FC000909119040E947B0580911704882381F079
:100FD00080912704882351F080912304811106C059
:100FE00080911804909119040E947B0510922304AB
:100FF0000E94120310922104B2CF30911A04209162
:101000001D0480911B0490911C04831B910937FDE2
:1010100093952817190609F0BDCF80912B04909164
:101020002C048C239D239093190480931804B2CF31
:101030000E94120310922104ADCF882329F220913F
:1010400018043091190480911B0490911C04820FA4
:10105000931FB8CFF8948091C1008F778093C1001F
:1010600085B18C7F85B981EA9FE02091C00027FD82
:1010700062C00197D1F780912304909127049923AE
:1010800009F45CC081115DC080911804909119042D
:101090000E947B056091160470E084EA9CEA0E943D
:1010A0007B006091150470E088EA9CEA0E947B0056
:1010B0006091140470E080EA9CEA0E947B006091D9
:1010C000130470E080EE9CEA0E947B0010923404CE
:1010D00010923304A0903104B0903204D0E0C0E00C
:1010E0005AE0E52EF12CA114B10409F495C040E0BA
:1010F000BE018CE40E94B904D82E40E0BE0188E411
:101100000E94B9042D2D30E0322F2227820F932F19
:10111000911D9093300480932F04219620912D04EB
:1011200030912E04C217D307B9F00196A9F485B106
:10113000836085B9DCCF8091C60095CF882309F400
:10114000A9CF209118043091190480911B0490912B
:101150001C04820F931F9CCF85B18C7F85B9809131
:101160002D0490912E048C179D0709F455C0C801D9
:10117000B7010E949D0A892B19F48AE20E9453004C
:1011800080913304909134040196909334048093B9
:101190003304650188E0C81AD108C50101975C01D4
:1011A00040E0BE018CE40E94B904982E40E0BE01EC
:1011B00088E40E94B904292D30E0322F2227820FC3
:1011C000932F911D9093300480932F0421960196C4
:1011D000C9F041E0A41AB10885B18C7F85B980912E
:1011E0003304909134040196909334048093330433
:1011F00080912D0490912E048C179D0719F0AC144A
:10120000BD0471F60F5F1F4F80912D0490912E0445
:10121000C817D90709F067CF85B18C7F85B985E9F3
:1012200093E00E945A0087EC92E00E945A0060917D
:101230003C0470913D048AE00E94C8038AED92E06C
:101240000E945A0060913104709132048AE00E9439
:10125000C80388EE92E00E945A00609133047091B6
:1012600034048AE00E94C8038FEE92E00E945A0084
:1012700086EF92E00E945A0070E060E088E090E51E
:101280000E947B00682F70E080E10E94C80370E03C
:1012900060E088E098E50E947B00682F70E080E1C4
:1012A0000E94C80370E060E080E090E50E947B004F
:1012B000682F70E080E10E94C80370E060E080E089
:1012C00098E50E947B00682F70E080E10E94C803CF
:1012D00085E993E00E945A0040E06FEF73E08FE4ED
:1012E0000E94B904803108F449C040E06FEF73E018
:1012F0008FE40E94B904803F08F040C040E06FEFE7
:1013000073E08FE40E94B904C82F40E06EEF73E0F1
:101310008FE40E94B904C81331C088E293E00E94B0
:101320005A0040E06EEF73E08FE40E94B904682F2A
:1013300070E08AE00E94C80382E593E00E945A00B0
:101340000E941F048835D1F48091C100877E80936C
:10135000C10085B78F7E85BF14B817B81AB88FEF54
:1013600085B988B98BB983E084B985B18C7F85B99B
:1013700088B19091C904892B88B9FFCF88E993E09F
:1013800089CD8091C600833709F0E9CC63EC84E015
:101390000E946F0098B18091C9048095892388B913
:1013A00095B1809139048095892385B963EC84E0F7
:1013B0000E946F0088B19091C904892B88B963ECB1
:1013C00084E00E946F0098B18091C90480958923C0
:1013D00088B964E685E00E946F0070E060E083E514
:1013E0009CEA0E947B00833509F013CD70E060E039
:1013F00080E090E30E947B008E3109F00ACD85E009
:101400008093120460E071E080E090E30E947B0032
:10141000F82E90E0909311048093100460E072E045
:1014200080E090E30E947B00C82FD0E0D0930F04AF
:10143000C0930E0495E9F912D9CC8F3009F4B8CCD9
:10144000843109F4ACCC823009F0B9CC85E391E069
:101450000E945A008FE391E00E945A008AE0809334
:10146000120480E490E090931C0480931B0480ECB1
:101470009FE390932C0480932B0480E090E490935E
:101480002E0480932D0480E094E0909338048093A0
:1014900037048FEF8093160497ED9093150492EE26
:1014A0009093140480931304229731F481ED809378
:1014B000150484EE8093140480E094E09093360445
:1014C0008093350487EB91E00E945A000E941F042C
:1014D000823709F4BDCC0CF0ABCC843609F4E0CCF7
:1014E0008F7D803599F785E992E00E945A000E942D
:1014F0001F048A3309F4FFCC8837C9F788E199E0E3
:101500000FB6F894A895809360000FBE909360008A
:10151000FFCFAA1BBB1B51E107C0AA1FBB1FA61709
:10152000B70710F0A61BB70B881F991F5A95A9F78C
:1015300080959095BC01CD01089597FB072E16F478
:10154000009407D077FD09D00E94890A07FC05D0D6
:101550003EF4909581959F4F0895709561957F4FCA
:101560000895EE0FFF1F0590F491E02D0994F89473
:02157000FFCFAB
:1015720028C00000200000A0000000000000004C75
:10158200732F782020000D0A554E4F20696E20637C
:101592006F6D6D20706F7274206F6E6C79206D6F3D
:1015A20064650D0A000D0A41746D656761200033A0
:1015B2003241003332380033323850000D0A556E52
:1015C2007265636F676E697365645F64657669638C
:1015D200653A20200033324B42000D0A50726F6789
:1015E20072616D6D696E672072657374726963747E
:1015F200656420746F207468652041746D6567614D
:10160200313638207573656420666F722073657495
:1016120074696E67207570205043422D313131302C
:1016220030305F56322E00206465746563746564E1
:101632002E0D0A5072657373202D702D20746F2049
:1016420070726F6772616D20666C6173682C202DF9
:10165200722D20746F2072756E20746172676574CA
:101662002C202D642D20746F20636C6561722074B0
:1016720068652074617267657420454550524F4D0C
:10168200206F72202D782D20746F20657363617036
:10169200652E005461726765745F6E6F745F646576
:1016A2007465637465640D0A000D0A536574203510
:1016B20037363030204261756420616E6420746870
:1016C200656E20707265737320414B0D0A000D0A1E
:1016D200526573657420454550524F4D2120442078
:1016E2006F7220414F4B20746F2065736361706588
:1016F2000031302073656320776169740020446F84
:101702006E650D0A000D0A53656E64206D696E697F
:101712005F4F535F70726F6772616D6D65722E6895
:10172200657820286F72207820746F20657363615A
:101732007065292E0D0A000D0A4865785F66696C8E
:10174200655F73697A653A202000202064276C6FF8
:10175200616465643A20200020696E3A20200020EE
:101762006F75740D0A00436F6E6669672062797443
:1017720065733A20467573657320657874656E6487
:1017820065642C20686967682C206C6F7720616E15
:1017920064206C6F636B0900557365722064657613
:1017A20069636520616C72656164792063616C694B
:1017B2006272617465642E20526573756C743A208E
:1017C20020000D0A5072657373205820746F2064D4
:1017D20069737361626C6520554E4F20636F6D6D46
:1017E20020706F7274206F7220414F4B20746F20F3
:1017F200726570656174206F722072657365742002
:10180200554E4F0D0A0D0A00546F2063616C6962D8
:10181200726174652073657420353736303020422A
:1018220061756420616E64207468656E20707265F3
:10183200737320414B200D0A554E4F2070757473FF
:1018420020537175617265207761766520776974BE
:10185200682036352E3533366D5320706572696FC8
:1018620064206F6E205042350D0A656C73652072DC
:0A1872006573657420554E4F0000A9
:00000001FF
