:100000000C9434000C9451000C9451000C94510049
:100010000C9451000C9451000C9451000C9451001C
:100020000C9451000C945E010C9451000C945100FE
:100030000C9451000C9451000C9451000C945100FC
:100040000C9451000C9451000C94A4010C94510098
:100050000C9451000C9451000C9451000C945100DC
:100060000C9451000C94510011241FBECFEFD8E026
:10007000DEBFCDBF14E0A0E0B1E0E2E4F5E102C0F4
:1000800005900D92A832B107D9F724E0A8E2B4E0B8
:1000900001C01D92A83EB207E1F70E943E060C94F3
:1000A0009F0A0C9400009091C00095FFFCCF8093B4
:1000B000C60008950F931F93CF93DF93EC018C013B
:1000C00008531F4F8991882329F00E945300C017BD
:1000D000D107C1F7DF91CF911F910F91089566BDB0
:1000E00085BDA89BFECFA89A15BC0895000000000E
:1000F0000000000008954F925F926F927F929F924E
:10010000AF92BF92CF92DF92EF92FF920F931F9325
:10011000CF93DF938C016B012C01712C612C320188
:1001200055244424460E571E611C711CD0E0C0E0CB
:1001300095B1809157048095892385B980915904A0
:1001400098010C2E02C0220F331F0A94E2F795B1DA
:1001500037FF58C0892B85B985B190915704892BF9
:1001600085B90E9476002196C031D10509F7D0E00B
:10017000C0E0912C8FE0E82EF12C01E010E097E038
:10018000A92EB12C95B1809157048095892385B90A
:100190008091590496010C2E02C0220F331F0A943D
:1001A000E2F795B137FF31C0892B85B985B19091C0
:1001B0005704892B85B90E947600411451046104CB
:1001C00020E57206A9F020F5411481E0580661048B
:1001D00080E3780669F0411492E05906610490E3E7
:1001E000790631F041145104610420E37206F9F4F8
:1001F000C830D105E4F083B1909158048923B9F057
:10020000C7014DC080958923A6CF80958923CDCF86
:1002100041145104610438E5730609F44AC038F505
:100220004114510498E0690690E5790609F3219696
:10023000C031D10509F0A6CF95B1809157048095C2
:10024000892385B967EB85E00E946F00892DDF91D6
:10025000CF911F910F91FF90EF90DF90CF90BF90C3
:10026000AF909F907F906F905F904F900895411452
:10027000510428E0620628E5720609F4B9CF41145A
:10028000510433E563063CEA730689F6C830D105AC
:1002900074F683B190915804892349F2C5018C1BEF
:1002A0009D0B980102C0220F331F8A95E2F7922A14
:1002B000BECFCA30D1050CF4BACF9DCF1F920F929A
:1002C0000FB60F9211248F93EF93FF938091E60462
:1002D000833091F58091E50481508093E50410927C
:1002E000B100809170008E7F809370008091E40453
:1002F0008F5F8093E4048091E4048F738093E4041F
:10030000E091E404F0E0EE0FFF1FEC59FB4F118287
:1003100010828091E4048F5F8093E4048091E40470
:100320008F738093E404E091E404F0E0EE0FFF1F8C
:10033000EC59FB4F11821082FF91EF918F910F903A
:100340000FBE0F901F9018951F920F920FB60F922D
:1003500011242F933F934F935F938F939F93EF932A
:10036000FF93E091C600E153E63108F0F7C0F0E0FA
:10037000E454FE4F0C94990AD2018E02900292022C
:100380009402960298029A029C02AA02AE02AE025F
:10039000AE02AE02AE02AE029E02A002A202A40211
:1003A000A602A80281E02091620430916304233008
:1003B000310509F412C10CF0D3C02130310509F424
:1003C0000CC12230310509F4E0C020916204309163
:1003D0006304293031050CF486C0409162045091C9
:1003E000630420915E0430915F04421753070CF0C0
:1003F0007AC0209162043091630423703327213046
:10040000310541F490E1899F9001112430936104FA
:100410002093600420916204309163042370332799
:100420002230310551F42091600430916104280F8D
:10043000311D309361042093600420916204309157
:100440006304237033272330310541F490E1899F01
:100450009001112430935D0420935C042091620488
:100460003091630423703327232BE9F520915C043A
:1004700030915D04820F932F911D90935D048093C2
:100480005C0480915C0490915D04982F8827909380
:100490005D0480935C0480915C0490915D042091E4
:1004A000600430916104820F931F909361048093E4
:1004B0006004E091E40481E08E0F8093E404809175
:1004C000600490916104F0E0EE0FFF1FEC59FB4FC8
:1004D0009183808380915A0490915B04019690935C
:1004E0005B0480935A0480916204909163040196A6
:1004F00090936304809362048091E4048F738093EB
:10050000E404FF91EF919F918F915F914F913F9103
:100510002F910F900FBE0F901F90189582E043CF40
:1005200083E041CF84E03FCF85E03DCF86E03BCF05
:1005300087E039CF88E037CF89E035CF8AE033CF05
:100540008BE031CF8CE02FCF8DE02DCF8EE02BCF05
:100550008FE029CF109263041092620480E023CFD1
:100560002530310509F453C00CF440C02630310564
:1005700009F02BCF2091600430916104280F311DC8
:10058000309361042093600416C020916004309180
:100590006104280F311D3093610420936004209181
:1005A000600430916104220F331F275F3F4F309367
:1005B0005F0420935E04E091E40491E09E0F909329
:1005C000E4042091600430916104F0E0EE0FFF1F1D
:1005D000EC59FB4F31832083F8CE90E1899F900145
:1005E00011243093610420936004EFCE20916004C5
:1005F00030916104280F311D309361042093600411
:100600002091600430916104322F2227EACF40917B
:1006100060045091610490E1899F90011124240F9E
:10062000351FDFCF80913C0490913D0490934404AA
:10063000809343042091490430914A0428233923AC
:100640003093370420933604AC01421B530B509374
:100650002A04409329042091290430912A048770A8
:100660008093380480913904821B80933B04089561
:10067000909140048091E4049817D1F3E0914004F4
:10068000F0E0EE0FFF1FEC59FB4F808180933E049A
:10069000909140049F5F90934004909140049F7319
:1006A00090934004982F87FF02C091E0980F959592
:1006B00090932B049091460490311CF491E0909318
:1006C0003F0480934604909140048091E40498177D
:1006D000D1F3E0914004F0E0EE0FFF1FEC59FB4F27
:1006E00080819181209140042F5F209340042091CC
:1006F00040042F73209340049695879590933D0472
:1007000080933C0420914704309148042F5F3F4F71
:10071000309348042093470440914304509144048B
:100720008417950741F41092410485B123FF2EC030
:10073000836085B908950097C1F3409149045091B1
:100740004A048423952360913604709137044091C4
:10075000390450913A04460F571F4817590768F457
:1007600041E0409342041092350486179707E9F65A
:100770001092420410923504D6CF84179507A9F73A
:100780001092420441E040933504EFCF8C7FD1CFEB
:10079000EF92FF920F931F93CF93DF9300D000D07F
:1007A00000D0CDB7DEB7972FE0E0E82E880FFF0826
:1007B0008E010F5F1F4F862FB7010E94710A9B01A8
:1007C000D801AE0FB11D8C938A303CF5805D8C93BF
:1007D000EF5F622F932F232B71F7E43040F4D801A1
:1007E000AE0FB11D80E3EF5F8D93E430E1F7E00FD2
:1007F000F12FF11D1082F8017F01E01AF10A8191B9
:100800008111FACFE00EF11E0E151F0541F0F70120
:1008100082917F010E945300F7CF895CD8CF87EB8C
:1008200092E026960FB6F894DEBF0FBECDBFDF91E3
:10083000CF911F910F91FF90EF900C945A008091EF
:10084000C00087FFFCCF8091C6000895CF92DF9251
:10085000FF920F931F93CF93DF93EB01F42EC12CE4
:1008600098E4D92E883441F08C3419F0D12CC12C65
:1008700003C0C12C80E4D82E10E000E095B1809137
:1008800057048095892385B9809159049601002EDB
:1008900002C0220F331F0A94E2F795B137FF60C000
:1008A000892B85B985B190915704892B85B90E9410
:1008B00076000F5F1F4F0031110501F710E000E0D7
:1008C00095B1809157048095892385B98091590409
:1008D0009E01002E01C0220F0A94EAF795B127FF6E
:1008E00042C0892B85B985B190915704892B85B970
:1008F0000E9476000F5F1F4F0830110509F710E0C6
:1009000000E0CF2DD0E095B18091570480958923E8
:1009100085B9809159049E01002E01C0220F0A94CE
:10092000EAF795B127FF22C0892B85B985B190914F
:100930005704892B85B90E9476000F5F1F4F08303E
:10094000110509F795B1809157048095892385B9E0
:10095000DF91CF911F910F91FF90DF90CF9008957D
:10096000809589239ECF80958923BCCF809589234C
:10097000DCCFAF92BF92CF92DF92EF92FF920F93B4
:100980001F93CF93DF93B82E8B01C42FE8EBE80FB2
:10099000F0E0E050FF4FE080D12CC12CF12C95B15C
:1009A000809157048095892385B9809159049701D6
:1009B0000C2C01C0220F0A94EAF795B127FF89C0D9
:1009C000892B85B985B190915704892B85B90E94EF
:1009D00076004FEFC41AD40A58E0C516D104F9F6D0
:1009E000F12CE12C95B1809157048095892385B92C
:1009F0008091590498010E2C02C0220F331F0A94D3
:100A0000E2F795B137FF68C0892B85B985B1909120
:100A10005704892B85B90E9476008FEFE81AF80AEF
:100A200090E1E916F104F1F687E0C82ED12CA12C53
:100A30000C2E000CDD0B07E010E0EE24E394F12C0B
:100A400095B1809157048095892385B98091590487
:100A500049E495B1B41243C098012C193D09AE0187
:100A600002C0440F551F2A95E2F747FF38C0892B73
:100A700085B985B190915704892B85B90E9476007C
:100A800083B190915804892339F0C7010C2C01C01F
:100A9000880F0A94EAF7A82A51E0C51AD10880F60F
:100AA00095B1809157048095892385B997E5B9124E
:100AB00019C06CED85E00E946F008A2DDF91CF9107
:100AC0001F910F91FF90EF90DF90CF90BF90AF906C
:100AD00008958095892375CF8095892396CF809539
:100AE0008923C6CF49E4B412E8CF809130048A301C
:100AF00001F767EBDFCF40E0BC0187E50E94B90456
:100B00001092450408950F931F93CF93DF93C1E094
:100B1000D1E080912B04882309F479C080912B04C3
:100B2000815080932B04D093450490914004809190
:100B3000E4049817D1F3E0914004F0E0EE0FFF1FBA
:100B4000EC59FB4F4081118140934D0410934E04AA
:100B5000809140048F5F80934004809140048F73A4
:100B6000809340046091290470912A048CE40E94CF
:100B700026046091290470912A04412F88E40E9480
:100B800026048091290490912A04019690932A04C6
:100B9000809329048091430490914404019690939A
:100BA00044048093430480913B04815080933B0430
:100BB00080914F049091500401969093500480933B
:100BC0004F040091290410912A04809139049091D6
:100BD0003A040817190709F09CCF60913604709108
:100BE000370440E087E50E94B90410924504109252
:100BF0002A041092290400933B04809138048091C8
:100C00003804882309F485CFC093410482CFDF9153
:100C1000CF911F910F91089540E06AEF73E089E44E
:100C20000E94B9048FE39CE90197F1F700C000002E
:100C30008091C100877E8093C10085B78F7E85BF7C
:100C400014B817B81AB88FEF85B988B98BB983E093
:100C500084B985B18C7F85B9259A2D9816BC85E01D
:100C600085BD88B19091E704892B88B990E2A89B53
:100C7000FECFA89A85B1892785B9F9CF80E88093FE
:100C8000610081E080936100A89584B7877F84BF6D
:100C90008091600088618093600010926000809174
:100CA0007C00806480937C0085B78F7E85BF14B8FC
:100CB00017B81AB88FEF85B988B98BB983E084B9B2
:100CC00085B18C7F85B96CED85E00E946F0088E06E
:100CD0008093590490E19093580490E290935704C4
:100CE0008093E70484B1886284B93B9A98B180917B
:100CF000E7048095892388B96CED85E00E946F0038
:100D00001092C1001092C50089E18093C40082E076
:100D10008093C00088E18093C10086E08093C20088
:100D200098B18091E7048095892388B980E191E0AA
:100D30000E945A0090E080E02FEF30E04091C00028
:100D400047FD07C30196813A4FE0940724F02150F4
:100D5000310990E080E02115310581F7E7CF84E18A
:100D600091E00E945A0082E291E00E945A0061C321
:100D700084E191E00E945A0086E291E0F6CF8BE296
:100D800091E00E945A0084E491E00E945A0084E2BB
:100D900094E00E945A0088E199E00FB6F894A89573
:100DA000809360000FBE90936000FFCF89E491E0D4
:100DB0000E945A0084E294E00E945A0088E19AE07E
:100DC0000FB6F894A895809360000FBE90936000D2
:100DD000FFCF82E092E00E945A0088E19AE00FB6CD
:100DE000F894A895809360000FBE90936000FFCFA9
:100DF000843771F1883709F05BC388E199E00FB659
:100E0000F894A895809360000FBE90936000FFCF88
:100E100088E192E00E945A000E941F048091C10064
:100E2000877E8093C10085B78F7E85BF14B817B8C1
:100E30001AB88FEF85B988B98BB983E084B985B1C9
:100E40008C7F85B988B19091E704892B88B9FFCF51
:100E500088E192E00E945A000E941F040E940C0642
:100E60008DE392E00E945A0084E294E00E945A00CE
:100E70000E941F048434A1F480E692E00E945A008C
:100E8000D0E0C0E04FEFBE0189E40E94B904219692
:100E9000C13024E0D207B1F78CE692E00E945A00FC
:100EA00088E199E00FB6F894A895809360000FBE92
:100EB00090936000FFCF1092500410924F04109254
:100EC00048041092470410925B0410925A04109246
:100ED0004604109245041092440410924304109268
:100EE0004204109241041092E404109240041092C3
:100EF0003F0481E090E090936304809362048091CA
:100F0000C10080688093C100789470E060E080E860
:100F10009CEA0E947B000E9438030E9412030E94F8
:100F200083050E94380380913E04882309F472C02F
:100F3000C0913C04D0913D048091430490914404BD
:100F4000C817D90739F480913F048823B1F1813063
:100F500009F44EC08091430490914404C817D90706
:100F6000F1F280914204882379F0809141049091BC
:100F70004504992309F441C0811141C08091360490
:100F8000909137040E947B0580913504882381F07D
:100F900080914504882351F080914104811106C05D
:100FA00080913604909137040E947B051092410491
:100FB0000E94120310923F04B2CF30913804209166
:100FC0003B048091390490913A04831B910937FDC9
:100FD00093952817190609F0BDCF80914904909187
:100FE0004A048C239D239093370480933604B2CF18
:100FF0000E94120310923F04ADCF882329F2209162
:101000003604309137048091390490913A04820F6C
:10101000931FB8CFF8948091C1008F778093C1005F
:1010200085B18C7F85B981EA9FE02091C00027FDC2
:1010300062C00197D1F780914104909145049923B2
:1010400009F45CC081115DC0809136049091370431
:101050000E947B056091340470E084EA9CEA0E945F
:101060007B006091330470E088EA9CEA0E947B0078
:101070006091320470E080EA9CEA0E947B006091FB
:10108000310470E080EE9CEA0E947B0010925204D2
:1010900010925104A0904F04B0905004D0E0C0E0F2
:1010A0005AE0E52EF12CA114B10409F495C040E0FA
:1010B000BE018CE40E94B904D82E40E0BE0188E451
:1010C0000E94B9042D2D30E0322F2227820F932F5A
:1010D000911D90934E0480934D04219620914B04D2
:1010E00030914C04C217D307B9F00196A9F485B129
:1010F000836085B9DCCF8091C60095CF882309F441
:10110000A9CF209136043091370480913904909111
:101110003A04820F931F9CCF85B18C7F85B9809153
:101120004B0490914C048C179D0709F455C0C801DD
:10113000B7010E94850A892B19F48AE20E945300A4
:10114000809151049091520401969093520480939F
:101150005104650188E0C81AD108C50101975C01F6
:1011600040E0BE018CE40E94B904982E40E0BE012C
:1011700088E40E94B904292D30E0322F2227820F03
:10118000932F911D90934E0480934D0421960196C8
:10119000C9F041E0A41AB10885B18C7F85B980916E
:1011A00051049091520401969093520480935104FB
:1011B00080914B0490914C048C179D0719F0AC144E
:1011C000BD0471F60F5F1F4F80914B0490914C044A
:1011D000C817D90709F067CF85B18C7F85B984E23C
:1011E00094E00E945A0088E992E00E945A006091BF
:1011F0005A0470915B048AE00E94C8038BEA92E073
:101200000E945A0060914F04709150048AE00E943D
:10121000C80389EB92E00E945A00609151047091DA
:1012200052048AE00E94C80380EC92E00E945A00B7
:1012300087EC92E00E945A0070E060E088E090E560
:101240000E947B00682F70E080E10E94C80370E07C
:1012500060E088E098E50E947B00682F70E080E104
:101260000E94C80370E060E080E090E50E947B008F
:10127000682F70E080E10E94C80370E060E080E0C9
:1012800098E50E947B00682F70E080E10E94C8030F
:1012900084E294E00E945A0089EF92E00E945A0092
:1012A00084E294E00E945A0040E06FEF73E08FE424
:1012B0000E94B904803108F449C040E06FEF73E048
:1012C0008FE40E94B904803F08F040C040E06FEF17
:1012D00073E08FE40E94B904C82F40E06EEF73E022
:1012E0008FE40E94B904C81331C082E493E00E94E5
:1012F0005A0040E06EEF73E08FE40E94B904682F5B
:1013000070E08AE00E94C8038CE693E00E945A00D5
:101310000E941F048835D1F48091C100877E80939C
:10132000C10085B78F7E85BF14B817B81AB88FEF84
:1013300085B988B98BB983E084B985B18C7F85B9CB
:1013400088B19091E704892B88B9FFCF82EB93E0B5
:1013500081CD8091C600833709F0E8CC63EC84E04E
:101360000E946F0098B18091E7048095892388B925
:1013700095B1809157048095892385B963EC84E009
:101380000E946F0088B19091E704892B88B963ECC3
:1013900084E00E946F0098B18091E70480958923D2
:1013A00088B964E685E00E946F0070E060E083E544
:1013B0009CEA0E947B00833509F00BCD70E060E071
:1013C00080E090E30E947B008E3109F002CD85E041
:1013D0008093300460E071E080E090E30E947B0045
:1013E000F82E90E090932F0480932E0460E072E03A
:1013F00080E090E30E947B00C82FD0E0D0932D04C2
:10140000C0932C0495E9F912D1CC8F3009F4B0CCFB
:10141000843109F4A4CC823009F0B1CC84E191E0AC
:101420000E945A008EE191E00E945A008AE0809367
:10143000300480E490E090933A048093390480EC87
:101440009FE390934A048093490480E090E4909352
:101450004C0480934B0480E094E090935604809376
:1014600055048FEF8093340497ED9093330492EEFC
:101470009093320480933104229731F481ED80936C
:10148000330484EE8093320480E094E0909354041B
:101490008093530486E991E00E945A000E941F0441
:1014A000823709F4B5CC0CF0A3CC843609F4D8CC3F
:1014B0008F7D803599F784E792E00E945A000E9460
:1014C0001F048A3309F4F7CC8837C9F788E199E01B
:1014D0000FB6F894A895809360000FBE90936000BB
:1014E000FFCFAA1BBB1B51E107C0AA1FBB1FA6173A
:1014F000B70710F0A61BB70B881F991F5A95A9F7BD
:1015000080959095BC01CD01089597FB072E16F4A8
:10151000009407D077FD09D00E94710A07FC05D01E
:101520003EF4909581959F4F0895709561957F4FFA
:101530000895EE0FFF1F0590F491E02D0994F894A3
:02154000FFCFDB
:1015420028C00000200000A0000000000000004CA5
:10155200732020000D0A41746D65676120003332EB
:1015620041003332380033323850000D0A556E7262
:1015720065636F676E697365645F646576696365E9
:101582003A20200033324B42000D0A50726F6772CC
:10159200616D6D696E6720726573747269637465DB
:1015A2006420746F207468652041746D65676131D1
:1015B2003638207573656420666F722073657474A3
:1015C200696E67207570205043422D3131313030C1
:1015D200305F56322E002064657465637465642E34
:1015E2000D0A5072657373202D702D20746F207058
:1015F200726F6772616D20666C6173682C202D7248
:101602002D20746F2072756E207461726765742C60
:10161200202D642D20746F20636C656172207468C4
:10162200652074617267657420454550524F4D20A4
:101632006F72202D782D20746F2065736361706541
:101642002E005461726765745F6E6F745F646574B7
:1016520065637465640D0A000D0A5365742035379D
:10166200363030204261756420616E642074686592
:101672006E20707265737320414B0D0A000D0A5281
:101682006573657420454550524F4D212044206FAB
:101692007220414F4B20746F206573636170650047
:1016A20031302073656320776169740020446F6E66
:1016B200650D0A000D0A53656E6420686578206620
:1016C200696C6520286F72207820746F20657363BF
:1016D200617065292E0D0A000D0A4865785F6669FA
:1016E2006C655F73697A653A202000202064276C5C
:1016F2006F616465643A20200020696E3A20200000
:10170200206F75740D0A00436F6E666967206279F7
:101712007465733A20467573657320657874656ED7
:101722006465642C20686967682C206C6F7720617F
:101732006E64206C6F636B09000D0A554E4F5F702B
:10174200726F6772616D6D65725F56332E300D0A6E
:101752005573656420746F20696E697469616C6980
:10176200736520746865205043422D313131303029
:10177200305F56322041746D6567613136382E0D07
:101782000A00557365722064657669636520616C31
:1017920072656164792063616C6962726174656407
:1017A2002E20526573756C743A2020000D0A507217
:1017B200657373205820746F206469737361626C5F
:1017C2006520554E4F20636F6D6D20706F727420CF
:1017D2006F7220414F4B20746F2072657065617487
:1017E200206F7220726573657420554E4F0D0A0D7D
:1017F2000A00546F2063616C6962726174652073C0
:101802006574203537363030204261756420616E50
:1018120064207468656E20707265737320414B207A
:101822000D0A554E4F207075747320537175617295
:1018320065207761766520776974682036352E35A4
:1018420033366D5320706572696F64206F6E20505D
:1018520042350D0A656C7365207265736574205597
:081862004E4F0D0A0D0A0000B3
:00000001FF
