:100000000C9434000C9446000C9446000C9441016E
:100010000C9446000C9446000C94EC000C944600A2
:100020000C9446000C9446000C9446000C94460038
:100030000C9446000C9446000C9446000C94460028
:100040000C9446000C9446000C9446000C94460018
:100050000C9446000C9446000C9446000C94460008
:100060000C9446000C94460011241FBECFEFD8E03C
:10007000DEBFCDBF21E0A0E0B1E001C01D92A730FE
:10008000B207E1F70E945C010C945A040C94000042
:100090008EE98093850082E6809384008FEF86BB93
:1000A00083E080938100B09902C0A895FCCFB09AFC
:1000B0001092810008958093BB0084E88093BC0077
:1000C0008091BC0087FFFCCF08958093BB0084EC37
:1000D0008093BC008091BC0087FFFCCF0895CF9235
:1000E000DF92EF92FF920F931F93CF93DF93C82F6E
:1000F000062F142FD52F84E48093BC0090E080E07D
:100100002091BC0027FD07C00196893823E19207A2
:1001100029F0A895F5CF873893412CF078948091F9
:10012000BC0087FFFCCF8091BB008C2F0E94650034
:10013000802F0E946500E12EFD2E10E000E00C2EC5
:10014000000CDD0B6E01F1E0CF1AD1080C171D0772
:1001500074F4F70181917F010C151D0529F40E94AB
:100160005B000F5F1F4FF2CF0E946500FACF80E85F
:100170008093BC00DF91CF911F910F91FF90EF9082
:10018000DF90CF900895CF93DF9300D000D0CDB70C
:10019000DEB789839A836B837C83AE014F5F5F4FA9
:1001A00061E084E00E946F000F900F900F900F901D
:1001B000DF91CF91089530E020E042EB55E046BD5D
:1001C00055BDA89BFECFA89A15BCA8952F5F3F4FA1
:1001D00082179307A1F708951F920F920FB60F92FF
:1001E00011248091030190910401A0910501B09127
:1001F000060181159048A105B10561F481E090E008
:10020000A0E0B0E08093030190930401A093050166
:10021000B093060160910301709104018091050182
:100220009091060180E190E00E94400460910301FA
:10023000709104018091050190910601672F782F3C
:10024000892F992787FD9A9581E190E00E944004CB
:100250006091020182E190E00E944004249A2C986F
:10026000439A3B9A8FE99FE00197F1F700C00000A5
:1002700043988FE99FE00197F1F700C00000439A8F
:10028000FFCF1F920F920FB60F9211248F939F935F
:100290001E990BC088E199E00FB6F894A895809359
:1002A00060000FBE90936000FFCF9F918F910F90E1
:1002B0000FBE0F901F901895CF93DF931F92CDB76D
:1002C000DEB784B7A89584B7877F84BF809160002C
:1002D0008861809360001092600082E08093BA0091
:1002E00080917C00806480937C0085B78F7E85BF81
:1002F0008AB18B778AB98BB184688BB926982E9A8C
:1003000083E084B985B78F7E85BF84B18B7784B94C
:1003100087B1887F87B98AB187788AB985B18468BF
:1003200085B988B1876088B98BB188678BB96091CE
:1003300066008DEF93E00E944004499BFECF85E06C
:1003400090E00E94DB008EEF93E00E943804182FAB
:1003500080EF810F803E40F48FEF93E00E943804DD
:10036000181302C0109366001092C1001092C500CD
:1003700080E18093C40082E08093C00088E1809394
:10038000C10086E08093C20019824A9B02C01E9978
:1003900089B14A9906C01E9904C04F9B02C081E0F2
:1003A00089834A9906C01E9B04C04F9902C082E00F
:1003B00089834A9B06C01E9904C04F9902C083E0FE
:1003C0008983AE014F5F5F4F61E581E00E946F005E
:1003D00081E090E00E94DB0084E48093BC0090E028
:1003E00080E02091BC0027FD07C00196893823E1F9
:1003F000920729F0A895F5CF873893412CF078948F
:100400008091BC0087FFFCCF8091BB0080E00E9400
:10041000650086E50E945B0084E88093BC008091C3
:10042000BC0081648093BC0084E48093BC0090E0B5
:1004300080E02091BC0027FD07C00196893823E1A8
:10044000920729F0A895F5CF873893412CF078943E
:100450008091BC0087FFFCCF8091BB0084E8809333
:10046000BC008091BC0087FFFCCF8091BB00813035
:1004700009F076C080E88093BC0088E199E00FB66F
:10048000F894A895809360000FBE909360008CEF65
:1004900091E00E94380481110BC08BEF91E00E9423
:1004A0003804811105C06FEF8CEF91E00E94400489
:1004B000F12C10E000E0C801F11012C0009781F4A7
:1004C0008CEF91E00E943804182F8BEF91E00E948E
:1004D0003804212F30E0322F2227820F932F911DD5
:1004E0008C01169507959C0136952795369527958D
:1004F000AC01B3E056954795BA95E1F72427352727
:100500002827392745E0969587954A95E1F7822770
:1005100093279927869597958827082B192BF3946D
:100520008FEFF81212C0612F8CEF91E00E9440040F
:10053000602F8BEF91E00E94400485B1982F92705C
:10054000F92E81FF0BC02998F12CB801660F771F97
:10055000C8010E94C3000E944800ADCF299AF5CF80
:1005600080E88093BC0081E190E00E943804182F5D
:100570008F3F09F085C080E190E00E9438048F3FF2
:1005800009F07EC081E090E0A0E0B0E0809303013C
:1005900090930401A0930501B093060182E190E0DD
:1005A0000E9438048F3F09F087C0109202014091E9
:1005B0000301509104016091050170910601809141
:1005C000030190910401A0910501B0910601BA01C7
:1005D0000E94C3000E9448000E9448000E944800F8
:1005E0000E944800A8958FB780930101F8948091EC
:1005F000600088618093600089E48093600014BE8D
:10060000809101018FBF80916800816080936800B4
:1006100080916B00806480936B00789414E400E810
:1006200059E1E52E412C512C3201439440E1C42E76
:10063000D12CF12C409103015091040160910501EE
:10064000709106018091030190910401A091050130
:10065000B0910601BA010E94C30086E090E00E94BA
:10066000DB001093BC0090E080E02091BC0027FDEF
:100670002BC00196893823E1920749F1A895F5CF5F
:1006800080E190E00E943804912F092E000CAA0B03
:10069000BB0B8093030190930401A0930501B093D9
:1006A00006016FEF81E190E00E9440046FEF80E16E
:1006B00090E00E94400472CF809302016FEF82E1CC
:1006C00090E00E94400473CF873893412CF07894D7
:1006D0008091BC0087FFFCCF8091BB0080E00E942E
:1006E000650085E50E945B000093BC003EE1A32EFF
:1006F000B12C1093BC0090E080E02091BC0027FD5D
:100700000BC00196893823E1920751F578948091C6
:10071000BC0087FFFCCF03C087389341BCF78091B2
:10072000BB0081E00E945B0089E7F8120093BC00E7
:1007300091E0A91AB108E9F61093BC0090E080E0BE
:100740002091BC0027FD0EC00196893823E1920755
:1007500009F04DC078948091BC0087FFFCCF05C0A4
:10076000A895CBCF87389341ACF78091BB0080E050
:100770000E945B000093BC00809102016E2D0E94DC
:100780004E049F5D8091C00085FFFCCF9093C60012
:10079000809102018F5F809302018091030190910B
:1007A0000401A0910501B091060181159048A105B1
:1007B000B105F9F4409203015092040160920501E1
:1007C000709206018091C00087FF28C0F090C6009B
:1007D00088E7F81223C0F89488E19DE00FB6F894FA
:1007E000A895809360000FBE90936000FFCFA895FE
:1007F000A7CF8091030190910401A0910501B091D0
:100800000601880F991FAA1FBB1F809303019093B5
:100810000401A0930501B0930601D4CF99E7F91222
:1008200021C01093BC0090E080E02091BC0027FD27
:1008300007C00196893823E1920729F0A895F5CFE2
:10084000873893412CF078948091BC0087FFFCCFCF
:100850008091BB0080E00E94650087E00E945B0001
:100860000093BC0081E0C81AD10809F0E3CEDECEC7
:10087000F999FECF92BD81BDF89A992780B5089568
:10088000262FF999FECF1FBA92BD81BD20BD0FB6AC
:10089000F894FA9AF99A0FBE01960895991B79E097
:1008A00004C0991F961708F0961B881F7A95C9F700
:0808B00080950895F894FFCF34
:00000001FF
