:100000000C9434000C943E000C943E000C943E0082
:100010000C943E000C943E000C943E000C943E0068
:100020000C943E000C943E000C943E000C943E0058
:100030000C943E000C943E000C943E000C943E0048
:100040000C943E000C943E000C943E000C943E0038
:100050000C943E000C943E000C943E000C943E0028
:100060000C943E000C943E0011241FBECFEFD8E04C
:10007000DEBFCDBF0E94A8000C9470010C9400005C
:100080008093BB0084EC8093BC008091BC0087FF10
:10009000FCCF0895BF92CF92DF92EF92FF920F9321
:1000A0001F93CF93DF93C82F062F142FD52F84E4EF
:1000B0008093BC008091BC0087FFFCCF8091BB0087
:1000C0008C2F0E944000802F0E944000E12EFD2EC8
:1000D00010E000E00C2E000CDD0B6E0181E0C81A70
:1000E000D10884E8B82E0C171D07A4F4F7018191FC
:1000F0007F01C016D10659F48093BB00B092BC00BA
:100100008091BC0087FFFCCF0F5F1F4FECCF0E9498
:100110004000FACF80E88093BC00DF91CF911F911F
:100120000F91FF90EF90DF90CF90BF90089530E057
:1001300020E042EB55E046BD55BDA89BFECFA89AF6
:1001400015BCA8952F5F3F4F82179307A1F708951D
:10015000CF93DF9300D000D0CDB7DEB784B7A8959A
:1001600084B7877F84BF809160008861809360003E
:100170001092600082E08093BA0080917C008064DD
:1001800080937C0085B78F7E85BF8AB18B778AB9D3
:100190008BB184688BB926982E9A83E084B985B791
:1001A0008F7E85BF84B18B7784B987B1887F87B90B
:1001B0008AB187788AB985B1846885B988B1876042
:1001C00088B98BB188678BB9609166008DEF93E039
:1001D0000E946201499BFECF85E090E00E9497005B
:1001E0008EEF93E00E945A01182F80EF810F803E1E
:1001F00040F48FEF93E00E945A01181302C010934D
:1002000066001092C1001092C50080E18093C40086
:1002100082E08093C00088E18093C10086E08093F3
:10022000C20019824A9B02C01E9989B14A9906C030
:100230001E9904C04F9B02C081E089834A9906C081
:100240001E9B04C04F9902C082E089834A9B06C06E
:100250001E9904C04F9902C083E08983AE014F5FAD
:100260005F4F61E581E00E944A0090E1E92EF12CA8
:1002700001E010E009831A830B831C83AE014F5FFA
:100280005F4F61E084E00E944A008CE090E00E94B1
:100290009700000F111F81E0E81AF10859F788E173
:1002A00099E00FB6F894A895809360000FBE9093E4
:1002B0006000FFCFF999FECF92BD81BDF89A9927D2
:1002C00080B50895262FF999FECF1FBA92BD81BD42
:1002D00020BD0FB6F894FA9AF99A0FBE01960895C8
:0402E000F894FFCFC0
:00000001FF
