:100000000C9434000C9451000C9451000C94510049
:100010000C9451000C9451000C9451000C9451001C
:100020000C9451000C9451000C9451000C9451000C
:100030000C9451000C9451000C9451000C945100FC
:100040000C9451000C9451000C9451000C945100EC
:100050000C9451000C9451000C9451000C945100DC
:100060000C9451000C94510011241FBECFEFD8E026
:10007000DEBFCDBF11E0A0E0B1E0E8E9F8E002C0EA
:1000800005900D92A233B107D9F721E0A2E3B1E0C8
:1000900001C01D92AE33B207E1F70E94A1010C949A
:1000A0004A040C9400008093BB0084EC8093BC0055
:1000B0008091BC0087FFFCCF0895BF92CF92DF9262
:1000C000EF92FF920F931F93CF93DF93C82F062FCA
:1000D000142FD52F84E48093BC008091BC0087FF4F
:1000E000FCCF8091BB008C2F0E945300802F0E9478
:1000F0005300E12EFD2E10E000E00C2E000CDD0B75
:100100006E0181E0C81AD10884E8B82E0C171D07CB
:10011000A4F4F70181917F01C016D10659F48093B0
:10012000BB00B092BC008091BC0087FFFCCF0F5F8A
:100130001F4FECCF0E945300FACF80E88093BC00A1
:10014000DF91CF911F910F91FF90EF90DF90CF90B3
:10015000BF9008959091C00095FFFCCF8093C6009A
:1001600008954F925F926F927F92BF92CF92DF92EB
:10017000EF92FF920F931F93CF93DF93CDB7DEB72C
:100180002D970FB6F894DEBF0FBECDBFB82E77FF08
:1001900064C02AE0821364C07095609550954195C3
:1001A0005F4F6F4F7F4F3DE23D87F42FE52FCB012F
:1001B0009E012F5F3F4F6901790110E000E04B2C59
:1001C0000B2C000C5508660877086F2F7E2FA301B3
:1001D00092010E94EF03F70160836A3008F043C088
:1001E000605D60830F5F1F4FF22FE32FCA016FEF37
:1001F000E61AF60A232B242B252B39F7F601E00FFC
:10020000F11F10828D858D3229F4EAE0BE1202C002
:100210000E94AA007601E00EF11EF70182917F0193
:100220000E94AA00CE14DF04C1F780E20E94AA0057
:10023000802F2D960FB6F894DEBF0FBECDBFDF9195
:10024000CF911F910F91FF90EF90DF90CF90BF90D3
:100250007F906F905F904F9008958BE28D87A5CF30
:10026000EBE2ED87A2CF695CBCCF0F931F93CF93D6
:10027000DF93EC018C0108531F4F8991882329F0EB
:100280000E94AA00C017D107C1F7DF91CF911F913B
:100290000F910895AF92BF92CF92DF92EF92FF92AB
:1002A0000F931F93CF93DF936B017C01D0E0C0E0ED
:1002B0000FE010E0AA24A394B12CC8018C1B9D0B65
:1002C000950102C0220F331F8A95E2F7C901092E5A
:1002D000000CAA0BBB0B8C219D21AE21BF21892BC9
:1002E0008A2B8B2BD9F081E30E94AA00CE01837068
:1002F0009927039721F480E091E00E94350121962F
:10030000C031D105D1F6DF91CF911F910F91FF90B0
:10031000EF90DF90CF90BF90AF90089580E3E4CF4F
:1003200030E020E042EB55E046BD55BDA89BFECF36
:10033000A89A15BCA8952F5F3F4F82179307A1F786
:100340000895CF93DF9300D000D0CDB7DEB784B748
:10035000A89584B7877F84BF80916000886180936F
:1003600060001092600082E08093BA0080917C006F
:10037000806480937C0085B78F7E85BF8AB18B7740
:100380008AB98BB184688BB926982E9A83E084B998
:1003900085B78F7E85BF84B18B7784B987B1887F1D
:1003A00087B98AB187788AB985B1846885B988B1F7
:1003B000876088B98BB188678BB9609166008DEFD3
:1003C00093E00E94E103499BFECF85E090E00E940C
:1003D00090018EEF93E00E94D903182F80EF810FD8
:1003E000803E40F48FEF93E00E94D903181302C0BF
:1003F000109366001092C1001092C50080E18093B6
:10040000C40082E08093C00088E18093C10086E050
:100410008093C20019824A9B02C01E9989B14A99F1
:1004200006C01E9904C04F9B02C081E089834A998F
:1004300006C01E9B04C04F9902C082E089834A9B7C
:1004400006C01E9904C04F9902C083E08983AE01A3
:100450004F5F5F4F61E581E00E945D0081E090E0C9
:100460000E94900184E48093BC008091BC0087FFCF
:10047000FCCF8091BB0080E00E94530086E5809312
:10048000BB0084E88093BC008091BC0087FFFCCF58
:1004900084E88093BC008091BC0081648093BC00A0
:1004A00084E48093BC008091BC0087FFFCCF8091E6
:1004B000BB0084E88093BC008091BC0087FFFCCF28
:1004C0008091BB00813009F092C080E88093BC002D
:1004D00088E199E00FB6F894A895809360000FBE6C
:1004E000909360008CEF93E00E94D90381110BC0C0
:1004F0008BEF93E00E94D903811105C06FEF8CEF61
:1005000093E00E94E103F12C10E000E05EE9E52EAB
:1005100062E6D62ECC24CA9473E0B72EC801F1103F
:1005200012C0009781F48CEF93E00E94D903182F3A
:100530008BEF93E00E94D903212F30E0322F222746
:10054000820F932F911D8C01169507959C0136956E
:10055000279536952795AC01A3E056954795AA9522
:10056000E1F72427352728273927B5E09695879581
:10057000BA95E1F78227932799278695979588273B
:10058000082B192BF3942FEFF21212C0612F8CEF6E
:1005900093E00E94E103602F8BEF93E00E94E10360
:1005A00085B1982F9270F92E81FF1BC02998F12CEC
:1005B000C801880F991F09831A838B839C83AE011E
:1005C0004F5F5F4F61E084E00E945D00E092850034
:1005D000D0928400C6BAB0928100B09904C0A895A8
:1005E000FCCF299AE5CFB09A1092810097CF80E88E
:1005F0008093BC0083E091E00E94350102E311E0AA
:100600008091C00087FD02C0A895FACF8091C600F6
:10061000F8018D3029F081938F010E94AA00F0CF5C
:100620001082E2E3F1E0C12CD12C760181919FEBA5
:10063000980F8823B1F18033E4F38A33D4F09630F5
:10064000C0F754E0CC0CDD1CEE1CFF1C5A95D1F712
:10065000082E000C990BAA0BBB0B8C0D9D1DAE1D1B
:10066000BF1D6C017D0127E3C21AD108E108F10822
:10067000DDCF64E0CC0CDD1CEE1CFF1C6A95D1F7CD
:10068000082E000C990BAA0BBB0B8C0D9D1DAE1DEB
:10069000BF1D6C017D0120E3C21AD108E108F108F9
:1006A000C5CF8BE291E00E94350130E1832E912C81
:1006B000A12CB12C4AE0442E512C612C712CB70195
:1006C000A60180E10E94B100082F880F110B2EE1D6
:1006D000222E312C201A310A0215130534F480E23F
:1006E0000E94AA000F5F1F4FF7CFB701A6018AE053
:1006F0000E94B1008EE291E00E943501B701992776
:1007000077FD9095892F0E944A0180E091E00E9438
:100710003501C701B601882799270E944A018BE25B
:1007200091E00E9435018091C00087FD02C0A8952C
:10073000FACF8091C6008837E9F078F4883559F10E
:10074000893591F188E199E00FB6F894A8958093E6
:1007500060000FBE90936000FFCF893799F08A3711
:1007600089F7F094E094D094C094C11CD11CE11C92
:10077000F11CA5CF84E0CC0CDD1CEE1CFF1C8A957F
:10078000D1F79DCFC701B601A50194010E941104C4
:1007900069017A0194CFAAE0B0E0A70196010E9416
:1007A00030046B017C018BCFC701B601A30192011C
:1007B000EDCFF999FECF92BD81BDF89A992780B50A
:1007C0000895262FF999FECF1FBA92BD81BD20BD95
:1007D0000FB6F894FA9AF99A0FBE01960895A1E21D
:1007E0001A2EAA1BBB1BFD010DC0AA1FBB1FEE1FAB
:1007F000FF1FA217B307E407F50720F0A21BB30BF6
:10080000E40BF50B661F771F881F991F1A9469F771
:1008100060957095809590959B01AC01BD01CF01CD
:100820000895052E97FB1EF400940E94280457FD9E
:1008300007D00E94EF0307FC03D04EF40C94280469
:1008400050954095309521953F4F4F4F5F4F0895FC
:1008500090958095709561957F4F8F4F9F4F08952C
:100860000E943B04A59F900DB49F900DA49F800D06
:10087000911D11240895A29FB001B39FC001A39FB1
:10088000700D811D1124911DB29F700D811D1124C9
:08089000911D0895F894FFCFBB
:10089800202000456E74657220686578206E756D3D
:1008A800626572207468656E20782C2058206F72FB
:1008B80020792C2059206F7220414B0D0A0009091C
:0208C80000002E
:00000001FF
