:100000000C9435000C945D000C945D000C945D0024
:100010000C945D000C945D000C945D000C945D00EC
:100020000C945D000C945D000C945D000C945D00DC
:100030000C945D000C94C9030C945D000C945D005D
:100040000C945D000C945D000C9419030C94F30265
:100050000C945D000C945D000C945D000C945D00AC
:100060000C944B030C945D00DA0311241FBECFEFF8
:10007000D8E0DEBFCDBF12E0A0E0B1E0EAE4FDE0F1
:1000800002C005900D92A037B107D9F723E0A0E791
:10009000B2E001C01D92AA37B207E1F710E0C5E354
:1000A000D0E004C02197FE010E949D06C433D10711
:1000B000C9F70E9407040C94A3060C940000AF92A9
:1000C000BF92CF92DF92EF92FF920F931F93CF9345
:1000D000DF936C017B018B01040F151FEB015E01A7
:1000E000AE18BF08C017D10759F06991D601ED913C
:1000F000FC910190F081E02DC6010995892B79F7DB
:10010000C501DF91CF911F910F91FF90EF90DF908C
:10011000CF90BF90AF900895FC01538D448D252F53
:1001200030E0842F90E0821B930B541710F0CF9691
:10013000089501970895FC01918D828D981761F0C3
:10014000A28DAE0FBF2FB11D5D968C91928D9F5FDA
:100150009F73928F90E008958FEF9FEF0895FC01B9
:10016000918D828D981731F0828DE80FF11D858D6C
:1001700090E008958FEF9FEF0895FC01918D228DFF
:10018000892F90E0805C9F4F821B91098F73992784
:100190000895FC01A48DA80FB92FB11DA35ABF4F1C
:1001A0002C91848D90E001968F739927848FA68976
:1001B000B7892C93A089B1898C91837080648C93CA
:1001C000938D848D981306C00288F389E02D808179
:1001D0008F7D80830895EF92FF920F931F93CF93AB
:1001E000DF93EC0181E0888F9B8D8C8D98131AC072
:1001F000E889F989808185FF15C09FB7F894EE8959
:10020000FF896083E889F9898081837080648083B5
:100210009FBF81E090E0DF91CF911F910F91FF9000
:10022000EF900895F62E0B8D10E00F5F1F4F0F73A8
:100230001127E02E8C8D8E110CC00FB607FCFACF63
:10024000E889F989808185FFF5CFCE010E94C90038
:10025000F1CFEB8DEC0FFD2FF11DE35AFF4FF08234
:100260009FB7F8940B8FEA89FB8980818062CFCF9A
:10027000CF93DF93EC01888D8823B9F0AA89BB89DD
:10028000E889F9898C9185FD03C0808186FD0DC0C8
:100290000FB607FCF7CF8C9185FFF2CF808185FFE9
:1002A000EDCFCE010E94C900E9CFDF91CF91089533
:1002B000CF93C82F85E48093BC001092CF02109298
:1002C000CE021092C9021092CA021092CB02109272
:1002D000CC028091CE029091CF020F97D4F310926E
:1002E000CF021092CE021092BC006091C9027091B0
:1002F000CA028091CB029091CC0297FF07C09095E3
:100300008095709561957F4F8F4F9F4F2AE030E029
:1003100040E050E00E945C06CC2399F0E091C702D7
:10032000F091C802EE0FFF1FEB58FD4F3183208381
:100330008091C7029091C80201969093C802809361
:10034000C702CA01B901CF9108958093BB0084E828
:100350008093BC008091BC0087FFFCCF089584E4AB
:100360008093BC008091BC0087FFFCCF8091BB00D4
:100370001092BB0084EC8093BC008091BC0087FF8E
:10038000FCCF85E50E94A50180E88093BC0008951C
:10039000CF92DF92EF92FF92CF93CFB78093660018
:1003A00080916F00816080936F000E94AF0184E4B0
:1003B0008093BC008091BC0087FFFCCF8091BB0084
:1003C00081E00E94A50180E88093BC001092850026
:1003D0001092840081E080938100789480E00E94F4
:1003E00058016B017C0184E48093BC008091BC00C7
:1003F00087FFFCCF8091BB0080E00E94A50180E8D0
:100400008093BC0080916F008E7F80936F00CFBF80
:100410008091D00280936600C701B601CF91FF9012
:10042000EF90DF90CF9008958DED92E00E94BD0097
:10043000892B11F4A895F8CF8DED92E00E949B00D6
:1004400008950F931F93CF93DF938C01D0E0C0E00A
:100450008DED92E00E94BD00892B79F42196A8953C
:10046000C1348FE1D807A4F30150110979F780E076
:10047000DF91CF911F910F91089581E0F9CFFC0199
:1004800001900020E9F73197AF01481B590BBC01DF
:100490008DED92E00C945F0087E991E00C943F02AF
:1004A000CF92DF92EF92FF92CF93DF930E941402DC
:1004B000C82F803334F08A3334F08FEB8C0F8630C2
:1004C00010F0CD3299F70E944C026C2F8DED92E026
:1004D0000E94EB00C12CD12C7601CD3261F080ED71
:1004E0008C0F8A3014F089EC8C0FC82E880FDD0831
:1004F000EE08FF08CBE288E090E00E94210288230A
:10050000D1F38DED92E00E949B00D82F8D30E9F45D
:1005100081E090E00E942102882321F08DED92E09D
:100520000E949B00CD3241F4F094E094D094C094AA
:10053000C11CD11CE11CF11CC701B601DF91CF9198
:10054000FF90EF90DF90CF9008958A3009F38033C9
:1005500094F28A3324F08FEB8D0F863060F66D2F86
:100560008DED92E00E94EB0080ED8D0F8A3010F04F
:1005700089EC8D0F94E0CC0CDD1CEE1CFF1C9A95D1
:10058000D1F7C80ED11CE11CF11CB5CF41ED52E0F2
:10059000FA0101900020E9F7AF01425D524061EDA0
:1005A00072E08DED92E00C945F00CF93C42F20E1B8
:1005B00041ED52E00E9405060E94C6026C2F8DEDAF
:1005C00092E0CF910C94EB00CF93C42F2AE041ED41
:1005D00052E00E9405060E94C6026C2F8DED92E04B
:1005E000CF910C94EB001F920F920FB60F92112433
:1005F0002F933F934F935F936F937F938F939F932B
:10060000AF93BF93EF93FF938DED92E00E94C900EB
:10061000FF91EF91BF91AF919F918F917F916F91DA
:100620005F914F913F912F910F900FBE0F901F90B0
:1006300018951F920F920FB60F9211242F938F933C
:100640009F93EF93FF93E091ED02F091EE02808192
:10065000E091F302F091F40282FD1BC09081809141
:10066000F6028F5F8F732091F702821741F0E091BD
:10067000F602F0E0E352FD4F958F8093F602FF9172
:10068000EF919F918F912F910F900FBE0F901F9020
:1006900018958081F4CF1F920F920FB60F921124FC
:1006A0002F933F934F935F936F937F938F939F937A
:1006B000AF93BF93EF93FF938091BB0081E00E94C3
:1006C000A50180E88093BC001092810040918400D5
:1006D00050918500109285001092840021E02093B3
:1006E00081002091CE023091CF0225303105FCF4FB
:1006F0001092CD028091CE029091CF0201969093FC
:10070000CF028093CE0285E48093BC00FF91EF91ED
:10071000BF91AF919F918F917F916F915F914F9119
:100720003F912F910F900FBE0F901F90189570E082
:1007300060E08091CD028823D9F01092CD028091A3
:10074000C9029091CA02A091CB02B091CC02840F51
:10075000951FA61FB71F8752944FAF4FBF4F80936F
:10076000C9029093CA02A093CB02B093CC02C2CF2D
:100770008091C9029091CA02A091CB02B091CC02A3
:10078000840F951FA61FB71F8452944FA109B1096A
:10079000E6CF1F920F920FB60F9211248F93809184
:1007A000CD028F5F8093CD028F910F900FBE0F907F
:1007B0001F901895EDEDF2E01382128288EE93E01F
:1007C000A0E0B0E084839583A683B78384E091E0C2
:1007D0009183808385EC90E09587848784EC90E01A
:1007E0009787868780EC90E0918B808B81EC90E0FE
:1007F000938B828B82EC90E0958B848B86EC90E0DF
:10080000978B868B118E128E138E148E089584B75B
:10081000A89584B7877F84BF8091600088618093AA
:1008200060001092600082E08093BA0080917C00AA
:10083000806480937C0085B78F7E85BF8AB18B777B
:100840008AB98BB184688BB926982E9A83E084B9D3
:1008500085B78F7E85BF84B18B7784B987B1887F58
:1008600087B98AB187788AB985B1846885B988B132
:10087000876088B98BB188678BB9609166008DEF0E
:1008800091E00E944E06499BFECF85E090E022EB6E
:1008900035E026BD35BDA89BFECFA89A15BCA8950E
:1008A0000197B9F78EEF91E00E944606C82F80EFBE
:1008B0008C0F803E40F48FEF91E00E944606C813F3
:1008C00002C0C0936600E091ED02F091EE0282E07A
:1008D0008083E091E902F091EA021082E091EB025C
:1008E000F091EC0280E180831092F502E091F10238
:1008F000F091F20286E08083E091EF02F091F00245
:10090000808180618083E091EF02F091F00280812C
:1009100088608083E091EF02F091F002808180682E
:100920008083E091EF02F091F00280818F7D8083DF
:1009300078948DEF91E00E94460680937402809136
:1009400066008093D00282E191E00E943F026091B4
:10095000D00270E090E080E04DE00E94D50280E59A
:1009600091E00E943F026091740270E090E080E0AC
:100970004DE00E94D5028DE691E00E943F022FE7F4
:1009800088E391E0215080409040E1F700C00000F2
:1009900080916F00816080936F000E94AF0184E4BA
:1009A0008093BC008091BC0087FFFCCF8091BB008E
:1009B00081E00E94A50180E88093BC001092850030
:1009C0001092840081E080938100809166008451C0
:1009D00080936600C9E2D0E081E00E9458018091D6
:1009E00066008F5F809366002197B1F78091D002F7
:1009F0008093660084E48093BC008091BC0087FFF4
:100A0000FCCF8091BB0080E00E94A50180E880932C
:100A1000BC0080916F008E7F80936F0005E712E02D
:100A2000D0E0C0E081E7C82E82E0D82EE12CF12C86
:100A30006091D0026451770B6C0F7D1F072E000C64
:100A4000880B990B49E00E94D502F8016081718101
:100A5000072E000C880B990B40E20E94E40285E50A
:100A600092E00E943F02F801619171918F01072E7F
:100A7000000C880B990BA70196010E945C06CA0125
:100A8000B90145E20E94E4020E944C022196C9325B
:100A9000D10571F68AE991E00E943F020E9450025E
:100AA000609373028DEE91E00E943F020E94140257
:100AB000893771F00E944C026FE38DED92E00E9445
:100AC000EB000E945002609373028FE092E0ECCF43
:100AD000C0917302CF3F79F5809174020E94C801E2
:100AE000693E734081059105DCF06091D0028EEF84
:100AF00091E00E944E066091D0028FEF91E00E943B
:100B00004E0683E192E00E943F0288E199E00FB631
:100B1000F894A895809360000FBE90936000FFCF7B
:100B20006FEF8EEF91E00E944E066FEF8FEF91E036
:100B30000E944E06EACF8C2F0E94C8016B017C01F7
:100B400029EEC21623E0D206E104F10424F10E944A
:100B50004C0240E2C701B6010E94E4028AE292E040
:100B60000E943F020E944C026091D0028EEF91E001
:100B70000E944E066091D0028FEF91E00E944E06D7
:100B800088E199E00FB6F894A895809360000FBEB5
:100B900090936000FFCF6C2F8EEF91E00E944E0685
:100BA000609173028FEF91E00E944E068DE392E018
:100BB0000E943F028EEF91E00E944606682F70E08F
:100BC00090E080E040E20E94D5028AE592E00E9437
:100BD0003F028FEF91E00E944606682F70E090E0A0
:100BE00080E04DE00E94D5028FE592E00E943F0236
:100BF0000E94140288E199E00FB6F894A8958093BA
:100C000060000FBE90936000FFCFBB272A3051F4E5
:100C1000992342F4BDE290958095709561957F4F40
:100C20008F4F9F4F0C941506BB27FA01A62F621712
:100C3000710581059105330B30FB66F0AA27660F1D
:100C4000771F881F991FAA1FA21710F0A21B639578
:100C50003850A9F7A05DAA3308F0A95DA19336F733
:100C6000B111B1931082CA010C943606DC01FC016B
:100C7000672F71917723E1F7329704C07C916D93D0
:100C800070836291AE17BF07C8F30895F999FECF3C
:100C900092BD81BDF89A992780B50895262FF999BC
:100CA000FECF1FBA92BD81BD20BD0FB6F894FA9A4F
:100CB000F99A0FBE01960895052E97FB1EF4009435
:100CC0000E94730657FD07D00E947B0607FC03D0E5
:100CD0004EF40C94730650954095309521953F4FF6
:100CE0004F4F5F4F089590958095709561957F4F18
:100CF0008F4F9F4F0895A1E21A2EAA1BBB1BFD0127
:100D00000DC0AA1FBB1FEE1FFF1FA217B307E407EA
:100D1000F50720F0A21BB30BE40BF50B661F771F42
:100D2000881F991F1A9469F7609570958095909522
:100D30009B01AC01BD01CF010895EE0FFF1F05908F
:0A0D4000F491E02D0994F894FFCF20
:100D4A0000000000EB005F008C003801BD009B0032
:100D5A00AF000D0A41544D45474120313638206DC8
:100D6A00616E75616C2063616C6962726174696F2E
:100D7A006E0D0A43616C20666163746F7220776F2F
:100D8A00726B696E672076616C7565202020090098
:100D9A0043616C20666163746F7220646566617575
:100DAA006C742076616C75652020200900446F6997
:100DBA006E672063616C63756C6174696F6E732E04
:100DCA0020506C6561736520776169742031302029
:100DDA007365636F6E64730D0A00456E74657220E5
:100DEA006E657720757365722063616C2076616C1D
:100DFA00756520285573652063617069746F6C206E
:100E0A006C657474657273290D0A6F7220656E744D
:100E1A00657220464620746F2064656C657465208F
:100E2A0074686520757365722063616C000D0A50E1
:100E3A00726573732079206966204F4B206F722088
:100E4A00414F4B20616E64207265706561740020A9
:100E5A00793F000A0D44656661756C742076616C91
:100E6A007565206E6F74204F4B0020204572726F9B
:100E7A007220746F6F20677265617421000D0A56C3
:100E8A00616C75657320736176656420746F2045A3
:100E9A004550524F4D202020090020202020000DCF
:100EAA000A414B20746F207265706561740D0A00E7
:00000001FF
