:100000000C94D3010C94F0010C94F0010C94F001C9
:100010000C94F0010C94F0010C94F0010C94021378
:100020000C94F0010C943A1A0C94F0010C94F00129
:100030000C94F0010C9487120C94F0010C94F001D4
:100040000C94B0110C94F0010C94F0010C94F0019C
:100050000C94F0010C94F0010C94F0010C94F0015C
:100060000C942D130C94F001740270027E022C0289
:10007000330237023E0245024902500254025B023B
:1000800062027E027E027E027E027E027E027E028C
:100090007E027E027E027E0278027E027E027E0266
:1000A0007E027E027E027E027E027E027E02690265
:1000B0007E027E027E027E027E027E027E02780246
:1000C0007E027E027E027E027E027E0270027E023E
:1000D0007E027E027E027E0278029A028C028E02EC
:1000E00090029202940296029802FE0220034203BA
:1000F00064038603A803CA03EB031F041C041C0447
:100100001904150519041904190419046305630574
:10011000630563056305630563056305630563059F
:10012000630563056305630563056305630563058F
:10013000630563056305630563056305630563057F
:10014000630563056305630563056305630563056F
:10015000630563056305630563056305630563055F
:10016000630563056305630563056305630563054F
:100170006305630563056305630519041904190420
:100180001904190419041C04630519041904190439
:1001900019046305630563051904630563056305B5
:1001A00063056305630563051F042B0448046504A8
:1001B0008204A004BD04DA04F704050A190A2E0A11
:1001C000430A580A6D0A820A970AAC0AC10AD60A7B
:1001D000EB0A000B150B290B3D0B620B770B8C0BFD
:1001E000A10BB60BCB0BE00BF50B0A0C1F0C340C60
:1001F000490C5D0C710CFE0C1F0D400D620D840D41
:10020000A60DC80DEA0D0C0E2E0E500E720E940E99
:10021000B60ED80EF90E2A0F3F0F540F690F7E0F3E
:10022000930FA80FBD0FD20FE70FFC0F1110261070
:100230003A104E102C122F123212351238123B1275
:100240003E125E126112641267126A126D1270120F
:10025000491353136513CB13781382139413BF13ED
:1002600037153B153E153C1650158215C515F7156B
:10027000CA1DDB1DDB1D5D1E631E941E291D291D6D
:10028000291D291D291D291D291D291D291D291D3E
:10029000291D291D291D291D291D291D291D291D2E
:1002A000291D291D291D291D291D291D291D291D1E
:1002B000291D291D291D291D291D291D291D291D0E
:1002C000291D291D291D291D291D291D291D291DFE
:1002D000291D291D291D291D291D291D291D291DEE
:1002E000291D291D291D291D291D291D291D291DDE
:1002F000291D291D9F1EA21EA51EA81EC51ECB1EA0
:10030000D11E681F851F9C1FF81FFB1FFE1F9E200C
:10031000B320291D291D291DCF20D320291DF720F9
:10032000291DFA20EA1DFF1DED1DF01DF31DF61D10
:10033000F91DFC1DFC1DFC1DFC1DFC1DFC1DFC1DF8
:10034000FC1DFC1DFC1DFC1DFC1DFC1DFC1DFC1DE5
:10035000FC1DFC1DFC1DFC1DFC1DFC1DFC1DFC1DD5
:10036000FC1DFC1DEA1DFF1DED1DF01DF31DF61DFE
:10037000F91DB01FB51FBA1FC11FC61FCB1FD01F4D
:10038000D51F322039203D2044204B204F205620BD
:100390005A20612068207B207F20832087208B20AB
:1003A0008F209320972011241FBECFEFD8E0DEBF0F
:1003B000CDBF11E0A0E0B1E0E4E7F3E402C00590B6
:1003C0000D92AE3BB107D9F722E0AEEBB1E001C030
:1003D0001D92AC3AB207E1F70E948E1C0C94B82132
:1003E0000C94000066BD85BD0895709385006093F0
:1003F0008400809381000895709385006093840049
:100400009FEF96BB80938100B09BFECF86B3816047
:1004100086BB10928100089581E48093A70285EA4B
:100420008093BC001092700210926F02109296029C
:100430000895E0916A02F0916B02E65FFD4FE08162
:100440008E2F90E0FC01BD97E933F10508F056C00E
:10045000EC5CFF4F0C94882185B18D7F85B98BB101
:1004600083788BB908958BB1837F8BB9089585B15B
:100470008D7F85B98BB18B748BB9089585B18D7FD4
:1004800085B98BB183768BB908958BB183738BB9A2
:10049000089585B18D7F85B98BB187728BB9089529
:1004A0008BB187708BB9089585B18D7F85B98BB17C
:1004B000837F8BB9089585B18D7F85B98BB18370AA
:1004C0008BB9089585B18D7F85B98BB183738BB955
:1004D000089585B18D7F85B98BB18B718BB90895E6
:1004E0008BB18F7E8BB908958BB18F778BB90895BF
:1004F00085B18D7F85B98BB18F708BB90895E091EF
:100500006A02F0916B02E830F10520F4E359FF4FE5
:100510000C94882180E00FC082E00DC084E00BC005
:1005200088E009C080E107C080E205C080E403C024
:1005300080E801C081E090910A02982319F095B1FA
:100540009D7F95B990910B02982319F09BB19F77ED
:100550009BB990910C02982319F09BB19F7E9BB997
:1005600090910D02982319F09BB19B7F9BB99091BC
:100570000E02982319F09BB1977F9BB990910F02BF
:10058000982319F09BB19F7D9BB99091100289230C
:1005900019F08BB18F7B8BB9089580916A0290918D
:1005A0006B02019690936B0280936A0280916A02BB
:1005B00090916B0287709078992324F40197886F4B
:1005C0009F6F019690936B0280936A0285B1827C43
:1005D00085B988B1887F88B985B1826085B98BB1CA
:1005E0008C6F8BB9E0916A02F0916B02E830F105F3
:1005F00008F011C1EB58FF4F0C94882180916C02D8
:1006000080FF1AC0E8E8F2E0208181E0820F808359
:1006100089E3289F812D112486958695880F982F30
:10062000990F990F990F890F281B2D3008F0F3C0EF
:1006300085B1806185B9EFC085B1806185B9EBC0B6
:1006400080916C0281FF1AC0E8E8F2E0218181E02C
:10065000820F818389E3289F812D112486958695B9
:10066000880F982F990F990F990F890F281B2D30FC
:1006700008F0D1C085B1886085B9CDC085B18860EA
:1006800085B9C9C080916C0282FF1AC0E8E8F2E027
:10069000228181E0820F828389E3289F812D1124AA
:1006A00086958695880F982F990F990F990F890F26
:1006B000281B2D3008F0AFC085B1846085B9ABC070
:1006C00085B1846085B9A7C080916C0283FF1AC090
:1006D000E8E8F2E0238181E0820F838389E3289FA9
:1006E000812D112486958695880F982F990F990F43
:1006F000990F890F281B2D3008F08DC085B18160BE
:1007000085B989C085B1816085B985C080916C0249
:1007100084FF1AC0E8E8F2E0248181E0820F84833C
:1007200089E3289F812D112486958695880F982F1F
:10073000990F990F990F890F281B2D3008F06BC066
:1007400088B1846088B967C088B1846088B963C0A3
:1007500080916C0285FF1AC0E8E8F2E0258181E013
:10076000820F858389E3289F812D112486958695A4
:10077000880F982F990F990F990F890F281B2D30EB
:1007800008F049C088B1826088B945C088B18260EC
:1007900088B941C080916C0286FF19C0E8E8F2E098
:1007A000268181E0820F868389E3289F812D112491
:1007B00086958695880F982F990F990F990F890F15
:1007C000281B2D3040F588B1816088B924C088B1DC
:1007D000816088B920C080916C028823CCF4E8E85D
:1007E000F2E0278181E0820F878389E3289F812DB2
:1007F000112486958695880F982F990F990F990F38
:10080000890F281B2D3038F485B1806285B903C06B
:1008100085B1806285B9E09106018E2F90E0FC01E0
:100820003197E835F10508F04EC1E358FF4F0C94BD
:1008300088210E94190208950E947F020895E09184
:100840006A02F0916B02E830F10508F03CC1EB520E
:10085000FF4F0C94882180910A0280FF03C08BB166
:100860008B7F8BB980910A0281FF03C08BB18F7B94
:100870008BB980910C0280FF03C08BB1877F8BB94D
:1008800080910C0281FF1FC18BB18F7D8BB90895C0
:1008900080910A0282FF03C08BB18B7F8BB980915C
:1008A0000A0283FF03C08BB18F7B8BB980910C024E
:1008B00082FF03C08BB1877F8BB980910C0283FFCD
:1008C00002C18BB18F7D8BB9089580910A0284FF9C
:1008D00003C08BB18B7F8BB980910A0285FF03C067
:1008E0008BB18F7B8BB980910C0284FF03C08BB1DD
:1008F000877F8BB980910C0285FFE5C08BB18F7D1E
:100900008BB9089580910A0286FF03C08BB18B7F5B
:100910008BB980910A0288231CF48BB18F7B8BB931
:1009200080910C0286FF03C08BB1877F8BB98091C9
:100930000C0288230CF0C7C08BB18F7D8BB9089552
:1009400080910B0280FF03C08BB18B7F8BB98091AC
:100950000B0281FF03C08BB18F7B8BB980910D029D
:1009600080FF03C08BB1877F8BB980910D0281FF1F
:10097000AAC08BB18F7D8BB9089580910B0282FF45
:1009800003C08BB18B7F8BB980910B0283FF03C0B7
:100990008BB18F7B8BB980910D0282FF03C08BB12D
:1009A000877F8BB980910D0283FF8DC08BB18F7DC6
:1009B0008BB9089580910B0284FF03C08BB18B7FAC
:1009C0008BB980910B0285FF03C08BB18F7B8BB9F4
:1009D00080910D0284FF03C08BB1877F8BB980911A
:1009E0000D0285FF70C08BB18F7D8BB9089580910A
:1009F0000B0286FF03C08BB18B7F8BB980910B02FA
:100A000088231CF48BB18F7B8BB980910D0286FFFC
:100A100003C08BB1877F8BB980910D0288230CF0C6
:100A200052C08BB18F7D8BB908950E9419028091BD
:100A30006A0290916B0285309105C9F01CF404970D
:100A400039F008958630910509F1079771F10895FD
:100A50008091830280FF03C08BB1837F8BB980912B
:100A6000830281FF30C08BB18F798BB9089580915B
:100A7000830282FF03C08BB1837F8BB98091830295
:100A800083FF21C08BB18F798BB908958091830248
:100A900084FF03C08BB1837F8BB98091830285FF74
:100AA00012C08BB18F798BB908958091830286FF34
:100AB00003C08BB1837F8BB98091830288231CF4A0
:100AC0008BB18F798BB9089580919002813009F0B4
:100AD00058C08091C201893330F4E2ECF1E08081AA
:100AE0008F5F80834EC0E2ECF1E080E38083818100
:100AF000853320F481818F5F818343C0E2ECF1E094
:100B000080E381838381893320F483818F5F8383B2
:100B100038C0E2ECF1E080E383838481853320F404
:100B200084818F5F84832DC0E2ECF1E080E38483D5
:100B30008781803330F1823318F0823399F021C0FD
:100B40008091C801893330F4E2ECF1E086818F5F57
:100B5000868317C0E2ECF1E080E3868387818F5FB4
:100B600087830FC08091C801833330F4E2ECF1E059
:100B700086818F5F868305C0E2ECF1E080E38683A7
:100B8000878380919002823071F580919F02893332
:100B900030F4ECE9F2E083818F5F838324C0ECE9D9
:100BA000F2E080E383838481853320F484818F5F46
:100BB000848319C0ECE9F2E080E384838681893381
:100BC00020F486818F5F86830EC0ECE9F2E080E33B
:100BD00086838781853320F487818F5F878303C075
:100BE00080E38093A302809190028330C9F58091C5
:100BF0009E02893330F4ECE9F2E082818F5F8283D8
:100C00000895ECE9F2E080E382838381853320F468
:100C100083818F5F83830895ECE9F2E080E383832F
:100C20008581893320F485818F5F85830895ECE980
:100C3000F2E080E385838681853320F486818F5FAF
:100C400086830895ECE9F2E080E386838781893327
:100C500020F487818F5F8783089580E38093A302C8
:100C6000089580919002823081F0833031F5809137
:100C70009C02893330F4ECE9F2E080818F5F80835D
:100C8000089580E380939C02089580919C028933AB
:100C900030F4ECE9F2E080818F5F80830895ECE925
:100CA000F2E080E380838181893320F481818F5F4A
:100CB0008183089580E380939D02089520E030E0D1
:100CC00006C0F901E65FFD4F10822F5F3F4F2430D1
:100CD0003105BCF3803859F4EAE0F2E088E3808320
:100CE00082E3818381E382838DE283830895882375
:100CF0001CF4982F919501C0982F40E0E42FF0E06C
:100D000027E69202212D11242595259597FD2395FF
:100D1000522F550F352F330F330F350F931B905D27
:100D2000E65FFD4F90834F5F922F12163CF38823AE
:100D300034F4E42FF0E0E65FFD4F8DE28083089508
:100D400020E030E006C0F901E65FFD4F10822F5F22
:100D50003F4F24303105BCF330E0E32FF0E09DEC51
:100D6000899F912D1124969596959695492F440F1C
:100D7000242F220F220F240F821B805DE65FFD4F80
:100D800080833F5F892F9111E8CF0895CF92DF9242
:100D9000EF92FF921F93CF93DF936B017C0180E072
:100DA00090E005C0FC01E65FFD4F1082019688309F
:100DB0009105C4F3D701C60181589946A746BF4F94
:100DC0008F379747AE48B64098F5FF2044F4662722
:100DD0007727CB016C197D098E099F0902C0C701D5
:100DE000B60110E0C12FD0E02AE030E040E050E052
:100DF0000E946921605DC65FDD4F68831F5F622FBF
:100E0000732F842F952F161617061806190654F3FC
:100E1000FF209CF4E12FF0E0E65FFD4F8DE2808340
:100E20000CC0FC01E65FFD4F2FE52083019602C058
:100E300080E090E088309105A4F3DF91CF911F917D
:100E4000FF90EF90DF90CF9008954F925F926F9256
:100E50007F929F92AF92BF92CF92DF92EF92FF92DA
:100E60000F931F93CF93DF9300D000D000D0CDB766
:100E7000DEB75C0149835A836B837C83922E4115D4
:100E800051056105704809F048C08AE0981621F0C4
:100E900090E1991661F192C098E3D5019C9384E3A7
:100EA00011968C93119726E312962C93129723E3B5
:100EB00013962C93139714969C93149715968C93D2
:100EC000159797E316969C93169717968C931797FA
:100ED00081E318968C93189782E319968C9319974F
:100EE0008DE21A968C931A971B961C9267C080E32A
:100EF000F5018083818382838383848385838683D2
:100F000088E38783108611861286138657C0F50101
:100F1000E80FF91F1082019602C080E090E08C304B
:100F20009105ACF389819A81AB81BC81BB235CF4D0
:100F30006C017D01F094E094D094C094C11CD11C4C
:100F4000E11CF11C04C0C980DA80EB80FC801E82A9
:100F50001D820D811E810A0D1B1D492C512C612CF7
:100F6000712CC701B601A30192010E946921F80109
:100F700060836A3018F4605D608302C0695C6083DE
:100F8000ED81FE813196FE83ED83C701B601A30199
:100F900092010E94692169017A0112161306140652
:100FA0001506BCF289819A81AB81BC81BB2334F4E4
:100FB000AD81BE81AA0DBB1D8DE28C9326960FB626
:100FC000F894DEBF0FBECDBFDF91CF911F910F917F
:100FD000FF90EF90DF90CF90BF90AF909F907F9069
:100FE0006F905F904F900895BC0140E050E002C0C8
:100FF0004F5F5F4FFB01E40FF51F90819111F8CF18
:101000009A010DC0F9013796E41BF50B2150310907
:10101000DB01A20FB31F8C91E65FFD4F808321158A
:10102000310581F70895CF93DF93CDB7DEB72C97C5
:101030000FB6F894DEBF0FBECDBF282FCE010196AC
:101040000E942507CE0101960E94F4072C960FB648
:10105000F894DEBF0FBECDBFDF91CF9108958F9280
:101060009F92AF92BF92CF92DF92EF92FF920F9337
:101070001F93CF93DF93CDB7DEB72C970FB6F894BD
:10108000DEBF0FBECDBFF9014A015B0196E3991A9D
:1010900095E6A90A94ECB90A60E070E001E010E07E
:1010A00020E030E014C0000F111F221F331F680121
:1010B0007901CC0CDD1CEE1CFF1CCC0CDD1CEE1CE5
:1010C000FF1C0C0D1D1D2E1D3F1D6F5F7F4FA8E0E7
:1010D000B0E07D01EE1AFF0A6E157F0524F3B90119
:1010E000A801440F551F661F771F440F551F661F29
:1010F000771F040F151F261F371FB501A401400FCE
:10110000511F621F731F282FCE0101960E942507D1
:1011100080E090E009C0E1E0F0E0EC0FFD1FE80F97
:10112000F91F20E220830196E816F906A4F78EE263
:101130008A8788E090E001C0C9019C0121503109F3
:10114000F901E65FFD4F40814111F6CF20E030E02C
:1011500012C00197E9E0F0E0E21BF30B41E050E040
:101160004C0F5D1FE40FF51F4081FC01E65FFD4F52
:1011700040832F5F3F4F009761F72C960FB6F8948E
:10118000DEBF0FBECDBFDF91CF911F910F91FF90BA
:10119000EF90DF90CF90BF90AF909F908F90089589
:1011A000CF92DF92EF92FF926A017B0186E3D81A19
:1011B00085E6E80A84ECF80AE0E0F0E081E090E0FF
:1011C000A0E0B0E013C0880F991FAA1FBB1FAC019D
:1011D000BD01440F551F661F771F440F551F661F23
:1011E000771F840F951FA61FB71F319668E070E028
:1011F000621B730BE617F70734F3AC01BD01440F14
:10120000551F661F771F440F551F661F771F840FDA
:10121000951FA61FB71F8C0D9D1DAE1DBF1D8115EF
:101220009449A543B74710F080E001C081E0FF90EA
:10123000EF90DF90CF900895BC0194EA9093BC00AA
:101240009091BC009923E4F793E09093BB0094E85D
:101250009093BC009091BC009923E4F79091B90061
:10126000903459F784E88093BC009091BC00992396
:10127000E4F78091BB0094E89093BC00803389F040
:10128000823309F447C00895A90141505109FA0178
:10129000E65FFD4F9081F901E65FFD4F90839A0173
:1012A00002C028E030E02115310571F78091CB01B3
:1012B0009091CC0120919802309199028217930766
:1012C00081F0821B930B680F791FFB01319780819E
:1012D00080930A022F5F3F4F309399022093980228
:1012E00008958091810290918202833091054CF49F
:1012F00021E620930A020196909382028093810254
:101300000895109282021092810210929902109216
:1013100098020895109206011092C1011092B20035
:101320001092B100E0E7F0E080818E7F8083089525
:10133000FC0120E030E002C02F5F3F4FDF01A20F31
:10134000B31F8C918111F8CF84EA8093BC00809107
:10135000BC008823E4F782E08093BB0084E880939C
:10136000BC008091BC008823E4F78091B9008831EB
:1013700059F7C9016AE070E00E943321605D609313
:10138000BB0084E88093BC008091BC008823E4F714
:10139000C9016AE070E00E943321805D8093BB0048
:1013A00084E88093BC008091BC008823E4F740E08F
:1013B00050E00FC0DF01A40FB51F8C918093BB00DC
:1013C00084E88093BC008091BC008823E4F74F5FE1
:1013D0005F4FC90101978417950764F784E98093EB
:1013E000BC0008951F93CF93DF93DB0120E030E032
:1013F00040E050E0BA0156C12031310508F050C13B
:10140000F901E352FF4F0C948821CFE0D0E0C21BDA
:10141000D30BE1E0F0E002C0EE0FFF1FCA95E2F748
:10142000EA23FB23EF2B09F43BC15B596243724E65
:1014300037C1CFE0D0E0C21BD30BE1E0F0E002C047
:10144000EE0FFF1FCA95E2F7EA23FB23EF2B09F407
:1014500027C140585D446941714F22C1CFE0D0E0BF
:10146000C21BD30BE1E0F0E002C0EE0FFF1FCA95F4
:10147000E2F7EA23FB23EF2B09F412C1405C564A42
:101480006C48784F0DC1CFE0D0E0C21BD30BE1E038
:10149000F0E002C0EE0FFF1FCA95E2F7EA23FB233C
:1014A000EF2B09F4FDC04056534566447C4FF8C00D
:1014B000CFE0D0E0C21BD30BE1E0F0E002C0EE0FC2
:1014C000FF1FCA95E2F7EA23FB23EF2B09F4E8C0DC
:1014D000405B594263427E4FE3C0CFE0D0E0C21B85
:1014E000D30BE1E0F0E002C0EE0FFF1FCA95E2F778
:1014F000EA23FB23EF2B09F4D3C0485D5449614133
:101500007F4FCEC0CFE0D0E0C21BD30BE1E0F0E0D4
:1015100002C0EE0FFF1FCA95E2F7EA23FB23EF2B71
:1015200009F4BEC04C565A4C68487F4FB9C0CFE052
:10153000D0E0C21BD30BE1E0F0E002C0EE0FFF1FD2
:10154000CA95E2F7EA23FB23EF2B09F4A9C046531F
:101550005546644C7F4FA4C0CFE0D0E0C21BD30BF4
:10156000E1E0F0E002C0EE0FFF1FCA95E2F7EA23C8
:10157000FB23EF2B09F494C04B595243624E7F4F2B
:101580008FC0CFE0D0E0C21BD30BE1E0F0E002C09F
:10159000EE0FFF1FCA95E2F7EA23FB23EF2B09F4B6
:1015A0007FC04D545941614F7F4F7AC0CFE0D0E0AA
:1015B000C21BD30BE1E0F0E002C0EE0FFF1FCA95A3
:1015C000E2F7EA23FB23EF2B09F46AC0475A5C4891
:1015D000684F7F4F65C0CFE0D0E0C21BD30BE1E086
:1015E000F0E002C0EE0FFF1FCA95E2F7EA23FB23EB
:1015F000EF2B09F455C0435556446C4F7F4F50C0F4
:10160000CFE0D0E0C21BD30BE1E0F0E002C0EE0F70
:10161000FF1FCA95E2F7EA23FB23EF2B09F440C032
:101620004A5253426E4F7F4F3BC0CFE0D0E0C21BC7
:10163000D30BE1E0F0E002C0EE0FFF1FCA95E2F726
:10164000EA23FB23EF2B61F1455951416F4F7F4F47
:1016500027C0CFE0D0E0C21BD30BE1E0F0E002C036
:10166000EE0FFF1FCA95E2F7EA23FB23EF2BC1F031
:101670004A5C58486F4F7F4F13C0CFE0D0E0C21B89
:10168000D30BE1E0F0E002C0EE0FFF1FCA95E2F7D6
:10169000EA23FB23EF2B21F04556544C6F4F7F4F2D
:1016A0002F5F3F4F203131050CF4A6CE20E030E013
:1016B0002DC12E30310508F027C1F901E351FF4F4C
:1016C0000C948821AFE0B0E0A21BB30BE1E0F0E0A6
:1016D00002C0EE0FFF1FAA95E2F7E823F923EF2BD4
:1016E00009F412C14353524E6F4F7F4F0DC1AFE00B
:1016F000B0E0A21BB30BE1E0F0E002C0EE0FFF1F71
:10170000AA95E2F7E823F923EF2B09F4FDC049512C
:10171000514F6F4F7F4FF8C0AFE0B0E0A21BB30B4B
:10172000E1E0F0E002C0EE0FFF1FAA95E2F7E82328
:10173000F923EF2B09F4E8C04D58584F6F4F7F4FF6
:10174000E3C0AFE0B0E0A21BB30BE1E0F0E002C009
:10175000EE0FFF1FAA95E2F7E823F923EF2B09F418
:10176000D3C046545C4F6F4F7F4FCEC0AFE0B0E068
:10177000A21BB30BE1E0F0E002C0EE0FFF1FAA9541
:10178000E2F7E823F923EF2B09F4BEC043525E4F82
:101790006F4F7F4FB9C0AFE0B0E0A21BB30BE1E0E9
:1017A000F0E002C0EE0FFF1FAA95E2F7E823F9234D
:1017B000EF2B09F4A9C042515F4F6F4F7F4FA4C078
:1017C000AFE0B0E0A21BB30BE1E0F0E002C0EE0F2F
:1017D000FF1FAA95E2F7E823F923EF2B09F494C041
:1017E00049585F4F6F4F7F4F8FC0AFE0B0E0A21BF3
:1017F000B30BE1E0F0E002C0EE0FFF1FAA95E2F7A5
:10180000E823F923EF2B09F47FC0445C5F4F6F4F4F
:101810007F4F7AC0AFE0B0E0A21BB30BE1E0F0E095
:1018200002C0EE0FFF1FAA95E2F7E823F923EF2B82
:1018300009F46AC0425E5F4F6F4F7F4F65C0AFE0F3
:10184000B0E0A21BB30BE1E0F0E002C0EE0FFF1F1F
:10185000AA95E2F7E823F923EF2B09F455C0415F7D
:101860005F4F6F4F7F4F50C0AFE0B0E0A21BB30B94
:10187000E1E0F0E002C0EE0FFF1FAA95E2F7E823D7
:10188000F923EF2B09F440C0495F5F4F6F4F7F4F43
:101890003BC0AFE0B0E0A21BB30BE1E0F0E002C060
:1018A000EE0FFF1FAA95E2F7E823F923EF2B61F172
:1018B0004C5F5F4F6F4F7F4F27C0AFE0B0E0A21B80
:1018C000B30BE1E0F0E002C0EE0FFF1FAA95E2F7D4
:1018D000E823F923EF2BC1F04E5F5F4F6F4F7F4F2F
:1018E00013C0AFE0B0E0A21BB30BE1E0F0E002C038
:1018F000EE0FFF1FAA95E2F7E823F923EF2B21F063
:101900004F5F5F4F6F4F7F4F2F5F3F4F203131054C
:101910000CF4CFCE485F5F4F6F4F7F4FCB01BA01C2
:10192000607FDF91CF911F9108958F929F92AF9228
:10193000BF92CF92DF92EF92FF926B017C019923CD
:101940001CF46095709500C080E090E00E94F20960
:101950004B015C01FF20E4F46701FF24D7FCF09405
:10196000EF2C8FEFC816D806E806F80639F4EAE03F
:10197000F2E08DE2878380E3868312C0B701A6017F
:101980004F5F5F4F6F4F7F4F8AE00E94130808C080
:10199000A701772757FD7095672F8AE00E941308EB
:1019A00025E030E0B501A4018AE00E942F08FF90F5
:1019B000EF90DF90CF90BF90AF909F908F90089561
:1019C0004F925F926F927F928F929F92AF92BF924F
:1019D000CF92DF92EF92FF926B017C019B0180E03E
:1019E00090E040E050E0BA0125C28031910508F056
:1019F00020C2FC01E550FF4F0C9488214701BB2415
:101A000097FCB094AB2CAFE0B0E0A81BB90BE1E0C1
:101A1000F0E002C0EE0FFF1FAA95E2F72F01FF0FC3
:101A20006608770884209520A620B72089288A2870
:101A30008B2809F4FEC15A5C6A497B43FAC147010D
:101A4000BB2497FCB094AB2CAFE0B0E0A81BB90B63
:101A5000E1E0F0E002C0EE0FFF1FAA95E2F72F01D0
:101A6000FF0F6608770884209520A620B7208928D4
:101A70008A288B2809F4DDC15B596243724ED9C1B3
:101A80004701BB2497FCB094AB2CAFE0B0E0A81B9F
:101A9000B90BE1E0F0E002C0EE0FFF1FAA95E2F7FC
:101AA0002F01FF0F6608770884209520A620B72015
:101AB00089288A288B2809F4BCC140585D446941B3
:101AC000714FB7C14701BB2497FCB094AB2CAFE07A
:101AD000B0E0A81BB90BE1E0F0E002C0EE0FFF1F81
:101AE000AA95E2F72F01FF0F66087708842095205A
:101AF000A620B72089288A288B2809F49AC1405C3F
:101B0000564A6C48784F95C14701BB2497FCB09466
:101B1000AB2CAFE0B0E0A81BB90BE1E0F0E002C0F5
:101B2000EE0FFF1FAA95E2F72F01FF0F6608770857
:101B300084209520A620B72089288A288B2809F49C
:101B400078C14056534566447C4F73C14701BB245E
:101B500097FCB094AB2CAFE0B0E0A81BB90BE1E070
:101B6000F0E002C0EE0FFF1FAA95E2F72F01FF0F72
:101B70006608770884209520A620B72089288A281F
:101B80008B2809F456C1405B594263427E4F51C1D4
:101B90004701BB2497FCB094AB2CAFE0B0E0A81B8E
:101BA000B90BE1E0F0E002C0EE0FFF1FAA95E2F7EB
:101BB0002F01FF0F6608770884209520A620B72004
:101BC00089288A288B2809F434C1485D5449614129
:101BD0007F4F2FC14701BB2497FCB094AB2CAFE0E3
:101BE000B0E0A81BB90BE1E0F0E002C0EE0FFF1F70
:101BF000AA95E2F72F01FF0F660877088420952049
:101C0000A620B72089288A288B2809F412C14C56AF
:101C10005A4C68487F4F0DC14701BB2497FCB094D4
:101C2000AB2CAFE0B0E0A81BB90BE1E0F0E002C0E4
:101C3000EE0FFF1FAA95E2F72F01FF0F6608770846
:101C400084209520A620B72089288A288B2809F48B
:101C5000F0C046535546644C7F4FEBC04701BB2450
:101C600097FCB094AB2CAFE0B0E0A81BB90BE1E05F
:101C7000F0E002C0EE0FFF1FAA95E2F72F01FF0F61
:101C80006608770884209520A620B72089288A280E
:101C90008B2809F4CEC04B595243624E7F4FC9C0C6
:101CA0004701BB2497FCB094AB2CAFE0B0E0A81B7D
:101CB000B90BE1E0F0E002C0EE0FFF1FAA95E2F7DA
:101CC0002F01FF0F6608770884209520A620B720F3
:101CD00089288A288B2809F4ACC04D545941614F9A
:101CE0007F4FA7C04701BB2497FCB094AB2CAFE05B
:101CF000B0E0A81BB90BE1E0F0E002C0EE0FFF1F5F
:101D0000AA95E2F72F01FF0F660877088420952037
:101D1000A620B72089288A288B2809F48AC0475A28
:101D20005C48684F7F4F85C04701BB2497FCB09447
:101D3000AB2CAFE0B0E0A81BB90BE1E0F0E002C0D3
:101D4000EE0FFF1FAA95E2F72F01FF0F6608770835
:101D500084209520A620B72089288A288B2809F47A
:101D600068C0435556446C4F7F4F63C04701BB2446
:101D700097FCB094AB2CAFE0B0E0A81BB90BE1E04E
:101D8000F0E002C0EE0FFF1FAA95E2F72F01FF0F50
:101D90006608770884209520A620B72089288A28FD
:101DA0008B2809F446C04A5253426E4F7F4F41C0C0
:101DB0004701BB2497FCB094AB2CAFE0B0E0A81B6C
:101DC000B90BE1E0F0E002C0EE0FFF1FAA95E2F7C9
:101DD0002F01FF0F6608770884209520A620B720E2
:101DE00089288A288B2829F1455951416F4F7F4F07
:101DF00020C04701BB2497FCB094AB2CAFE0B0E00F
:101E0000A81BB90BE1E0F0E002C0EE0FFF1FAA959E
:101E1000E2F72F01FF0F6608770884209520A6209F
:101E2000B72089288A288B2821F04A5C58486F4FB0
:101E30007F4F0196803191050CF4D7CD80E090E082
:101E400041C18F30910508F03CC1FC01E55FFE4FB8
:101E50000C948821AFE0B0E0A81BB90BE1E0F0E002
:101E600002C0EE0FFF1FAA95E2F7E223F323EF2B48
:101E700009F427C14556544C6F4F7F4F22C1AFE044
:101E8000B0E0A81BB90BE1E0F0E002C0EE0FFF1FCD
:101E9000AA95E2F7E223F323EF2B09F412C143538F
:101EA000524E6F4F7F4F0DC1AFE0B0E0A81BB90B92
:101EB000E1E0F0E002C0EE0FFF1FAA95E2F7E22397
:101EC000F323EF2B09F4FDC04951514F6F4F7F4F62
:101ED000F8C0AFE0B0E0A81BB90BE1E0F0E002C051
:101EE000EE0FFF1FAA95E2F7E223F323EF2B09F48D
:101EF000E8C04D58584F6F4F7F4FE3C0AFE0B0E0A0
:101F0000A81BB90BE1E0F0E002C0EE0FFF1FAA959D
:101F1000E2F7E223F323EF2B09F4D3C046545C4FDE
:101F20006F4F7F4FCEC0AFE0B0E0A81BB90BE1E030
:101F3000F0E002C0EE0FFF1FAA95E2F7E223F323C1
:101F4000EF2B09F4BEC043525E4F6F4F7F4FB9C0B5
:101F5000AFE0B0E0A81BB90BE1E0F0E002C0EE0F8B
:101F6000FF1FAA95E2F7E223F323EF2B09F4A9C0A0
:101F700042515F4F6F4F7F4FA4C0AFE0B0E0A81B4E
:101F8000B90BE1E0F0E002C0EE0FFF1FAA95E2F707
:101F9000E223F323EF2B09F494C049585F4F6F4FAE
:101FA0007F4F8FC0AFE0B0E0A81BB90BE1E0F0E0DD
:101FB00002C0EE0FFF1FAA95E2F7E223F323EF2BF7
:101FC00009F47FC0445C5F4F6F4F7F4F7AC0AFE032
:101FD000B0E0A81BB90BE1E0F0E002C0EE0FFF1F7C
:101FE000AA95E2F7E223F323EF2B09F46AC0425EDD
:101FF0005F4F6F4F7F4F65C0AFE0B0E0A81BB90BDC
:10200000E1E0F0E002C0EE0FFF1FAA95E2F7E22345
:10201000F323EF2B09F455C0415F5F4F6F4F7F4FA4
:1020200050C0AFE0B0E0A81BB90BE1E0F0E002C0A7
:10203000EE0FFF1FAA95E2F7E223F323EF2B09F43B
:1020400040C0495F5F4F6F4F7F4F3BC0AFE0B0E094
:10205000A81BB90BE1E0F0E002C0EE0FFF1FAA954C
:10206000E2F7E223F323EF2B61F14C5F5F4F6F4FF9
:102070007F4F27C0AFE0B0E0A81BB90BE1E0F0E074
:1020800002C0EE0FFF1FAA95E2F7E223F323EF2B26
:10209000C1F04E5F5F4F6F4F7F4F13C0AFE0B0E0B6
:1020A000A81BB90BE1E0F0E002C0EE0FFF1FAA95FC
:1020B000E2F7E223F323EF2B21F04F5F5F4F6F4FE7
:1020C0007F4F0196803191050CF4BBCECB01BA0154
:1020D000FF90EF90DF90CF90BF90AF909F908F9048
:1020E0007F906F905F904F9008954F925F926F92A4
:1020F0007F928F929F92AF92BF92EF92FF920F9337
:102100001F93CF93DF93CDB7DEB72C970FB6F8941C
:10211000DEBF0FBECDBF4B015C01F42E890180E014
:1021200090E005C0F801E80FF91F10820196803198
:102130009105C4F3C501B4010E94E00C2B013C01E0
:10214000BB2024F4409450946094709427E030E0D5
:10215000B301A2018AE00E94D008882309F449C093
:1021600086E3581A85E6680A84EC780A20E030E0B5
:1021700081E090E0A0E0B0E014C0880F991FAA1F92
:10218000BB1FAC01BD01440F551F661F771F440FD5
:10219000551F661F771F840F951FA61FB71F2F5F40
:1021A0003F4F121613064CF7AC01BD01440F551FEB
:1021B000661F771F440F551F661F771F840F951FDB
:1021C000A61FB71FB301A201480F591F6A1F7B1F2B
:1021D0002AE0C8010E94250780E090E005C0F801D0
:1021E000E80FF91F1082019682309105C4F380E058
:1021F00004C080E3F801808781E09EE2F8019187C6
:1022000090E39287BB2014F49DE29387813019F408
:1022100081E3F801828780E090E001C00196F80137
:10222000E80FF91F20812223C9F32033B9F320E0FE
:1022300030E0D801A20FB31FFC01E20FF31FE00F43
:10224000F11F40814C932F5F3F4F6FE070E0681BA0
:10225000790B621773076CF7FF2009F450C04F2DFC
:10226000FF0C550B660B770B2AE0CE0101960E94FE
:10227000250740E050E002C04F5F5F4FE1E0F0E033
:10228000EC0FFD1FE40FF51F80818111F5CFDA01FE
:10229000129660E070E02FE030E0C901861B970BDA
:1022A0007801E80EF91E8A1B9B0BF801E80FF91F55
:1022B0008081F70180836F5F7F4F2A1B3B0B2617BE
:1022C00037074CF780E090E00CC0D801A80FB91F89
:1022D000E1E0F0E0EC0FFD1FE80FF91F20812C93E7
:1022E0000196841795078CF3F801E80FF91F28E58C
:1022F00020830196F801E80FF91F80E28083109295
:10230000CC011092CB0105C001969093CC01809333
:10231000CB018091CB019091CC01FC01E750FE4FA5
:1023200020812111F1CF10929902109298021092FF
:102330008202109281022C960FB6F894DEBF0FBE77
:10234000CDBFDF91CF911F910F91FF90EF90BF9084
:10235000AF909F908F907F906F905F904F90089577
:102360001F920F920FB60F9211242F933F934F930A
:102370005F936F937F938F939F93AF93BF93CF930D
:10238000DF93EF93FF9380917C02811111C08091C4
:102390000601863459F4C0E7D0E088811882789429
:1023A0000E94CD0288818360888302C00E94CD0292
:1023B0008BEF93E00E94A221813009F416BC8BEFD1
:1023C00093E00E94A2218230B9F484ED86BD809111
:1023D0007C02882319F0813029F00EC081E08093BF
:1023E0007C020AC085B1826085B98BB18C6F8BB9D4
:1023F00010927C0282E386BD8BEF93E00E94A221C3
:10240000833009F071C080917B02811118C080EF88
:1024100086BD80917C02882319F0813029F064C048
:1024200081E080937C0260C085B1826085B98BB108
:102430008C6F8BB910927C0280E186BD55C0E09113
:102440007B028E2F90E0FC013197E730F105C0F45C
:10245000E65EFE4F0C94882188EF86BD11C084EFA4
:1024600086BD0EC080EF86BD0BC08BEF86BD08C059
:102470008AEF86BD05C086EF86BD02C080EF86BDAF
:1024800080917C02882319F0813029F02DC081E0F1
:1024900080937C0229C085B1826085B98BB18C6F35
:1024A0008BB9E0917B028E2F90E0FC013197E730F1
:1024B000F105C0F4EF5DFE4F0C9488218CE686BDDB
:1024C00011C08CE486BD0EC080E186BD0BC085EBDB
:1024D00086BD08C086EA86BD05C08AE686BD02C004
:1024E00080E186BD10927C02FF91EF91DF91CF9148
:1024F000BF91AF919F918F917F916F915F914F911C
:102500003F912F910F900FBE0F901F9018951F9223
:102510000F920FB60F9211242F933F934F935F9317
:102520006F937F938F939F93AF93BF93EF93FF939B
:10253000809106018F3430F48D3408F047C0893023
:1025400041F04AC0843509F441C0883509F044C0DF
:102550003DC08091660290916702892B39F00BC0D3
:10256000FC01E65FFD4F1082019602C080E090E022
:1025700088309105ACF38091660290916702E7E0A4
:10258000F0E0E81BF90BE65FFD4F8FE5808380915B
:1025900066029091670201969093670280936602AB
:1025A000809166029091670287709078992324F455
:1025B0000197886F9F6F01969093670280936602E0
:1025C00063EC70EF85E00E94F5010BC08091CE01B5
:1025D0008F5F8093CE0105C081E08093C00110928F
:1025E0008100FF91EF91BF91AF919F918F917F916A
:1025F0006F915F914F913F912F910F900FBE0F9070
:102600001F9018951F920F920FB60F9211242F93BF
:102610003F934F935F936F937F938F939F93AF936A
:10262000BF93EF93FF93E3EBF0E08081875D8083BE
:10263000808180830E940C02FF91EF91BF91AF9146
:102640009F918F917F916F915F914F913F912F91CA
:102650000F900FBE0F901F9018951F920F920FB6FC
:102660000F9211242F933F938F939F93AF93BF9318
:10267000EF93FF93E091A7028E2F90E0FC01E154CD
:10268000F109E830F10508F086C0E85DFE4F0C94D2
:10269000882183E08093BB0085E88093BC0082E4BE
:1026A0008093A70278C08091B900803439F485E81E
:1026B0008093BC0083E48093A7026DC085EA809379
:1026C000BC0081E48093A70266C08091BB00809328
:1026D000960280919602811104C08AE58093A70238
:1026E0005AC085EA8093BC0085E48093A70253C05A
:1026F00083E08093BB0085E88093BC0086E48093F0
:10270000A70249C08091B900803439F085EA8093EE
:10271000BC0085E48093A7023EC085EC8093BC009A
:1027200087E48093A70237C0E0916F02F0917002B6
:102730008091BB00E65FFD4F808380916F02909196
:10274000700201969093700280936F0280919602BE
:1027500090E0019720916F0230917002281739079D
:102760003CF485EC8093BC0087E48093A70213C0FF
:1027700085E88093BC0088E48093A7020CC0E091B8
:102780006F02F09170028091BB00E65FFD4F808385
:102790008AE58093A7028091A7028A3521F484E913
:1027A0008093BC00A895FF91EF91BF91AF919F914D
:1027B0008F913F912F910F900FBE0F901F90189502
:1027C0001092850010928400109281001092B10046
:1027D0008091B60080FDFCCF1092B0008091B600D1
:1027E00081FDFCCF1092B2008091B60084FDFCCF39
:1027F000089581E08093B1008091B60080FDFCCF08
:1028000081E08093810008951092B1009091B6000C
:1028100090FDFCCF1092B0009091B60091FDFCCFDE
:102820001092B2009091B60094FDFCCF882369F01D
:10283000E0E7F0E080818160808381E08093B100F7
:102840008091B60080FDFCCF0895E0E7F0E0808144
:102850008E7F80831092060108958F929F92AF928F
:10286000BF92CF92DF92EF92FF920F931F93CF937D
:10287000623019F0C1E092E002C0C4E096E0653039
:1028800011F4CAE09FE0109213021092120210920B
:10289000A8021092A9021092AA021092AB02692F0C
:1028A00070E0E0911202F0911302E617F707BCF313
:1028B0001092130210921202C090A802D090A902A6
:1028C000E090AA02F090AB0241110AC0FF2044F44C
:1028D000F094E094D094C094C11CD11CE11CF11C74
:1028E0008823F1F000916802109169028C2E912CDE
:1028F000A12CB12CC701B601A50194010E94692148
:10290000000F111FF801EC5EFD4F31832083809191
:10291000680290916902019690936902809368021F
:102920002C2F30E040E050E0C701B6010E94692141
:10293000CA01B901CF911F910F91FF90EF90DF90E5
:10294000CF90BF90AF909F908F9008954F925F92DD
:102950006F927F928F929F92AF92BF92CF92DF92AF
:10296000EF920F931F93CF93DF934C016B01EA011A
:1029700059011FC0F60180818093660040E06E2DF2
:1029800080E00E942D14F50160837183828393831C
:102990002401092C000C6608770864157505860566
:1029A000970554F0F60180818150808388818F5F84
:1029B000888388818431F0F28881843128F4809181
:1029C0006600F801808304C0F8018081809366006E
:1029D000DF91CF911F910F91EF90DF90CF90BF903B
:1029E000AF909F908F907F906F905F904F900895E1
:1029F00080E090E00CC0E7E0F0E0E81BF90BDC01C0
:102A0000AE52BE4F2C91EE53FE4F2083019688307C
:102A100091058CF380E090E009C0FC01EE53FE4F7D
:102A20002081FC01E65FFD4F2083019688309105EF
:102A3000A4F382E08093B100E0E7F0E08081816060
:102A4000808381E08093BF01809390020895E0919C
:102A5000D201E093DC018E2F90E0FC01F197E83089
:102A6000F10508F009C1E05DFE4F0C94882181E07A
:102A70008093BF0101C11092BF01FEC01092BF013F
:102A800080E090E009C0FC01EE53FE4F2081FC0184
:102A9000E65FFD4F2083019688309105A4F3ECC0DA
:102AA0008091C201893330F4E2ECF1E080818F5FE4
:102AB000808324C0E2ECF1E080E380838181853370
:102AC00020F481818F5F818319C0E2ECF1E080E323
:102AD00081838381893320F483818F5F83830EC058
:102AE000E2ECF1E080E383838481853320F4848108
:102AF0008F5F848303C080E38093C60181E080936D
:102B0000BF01BAC08091C501813330F0E2ECF1E041
:102B100083818150838335C0E2ECF1E089E38383D4
:102B20008481813320F08481815084832AC0E2EC47
:102B3000F1E085E384838781803399F010F183335A
:102B400000F58091C801813320F086818150868311
:102B500018C0E2ECF1E089E38683878181508783A6
:102B600010C08091C801813330F0E2ECF1E0868141
:102B70008150868306C0E2ECF1E083E3868382E342
:102B8000878381E08093BF0177C08091C201813348
:102B900030F0E2ECF1E080818150808324C0E2ECEF
:102BA000F1E089E380838181813320F0818181504C
:102BB000818319C0E2ECF1E085E381838381813375
:102BC00020F08381815083830EC0E2ECF1E089E341
:102BD00083838481813320F084818150848303C086
:102BE00085E38093C60181E08093BF0145C0809159
:102BF000C501893330F4E2ECF1E083818F5F838398
:102C000038C0E2ECF1E080E383838481853320F4F3
:102C100084818F5F84832DC0E2ECF1E080E38483C4
:102C20008781803330F1823318F0823399F021C0EC
:102C30008091C801893330F4E2ECF1E086818F5F46
:102C4000868317C0E2ECF1E080E3868387818F5FA3
:102C500087830FC08091C801833330F4E2ECF1E048
:102C600086818F5F868305C0E2ECF1E080E3868396
:102C7000878381E08093BF0181E080939002089573
:102C8000BF92CF92DF92EF92FF920F931F93CF9359
:102C9000DF93CDB7DEB7CF55D1090FB6F894DEBFBD
:102CA0000FBECDBF3091D20180E090E006C0FC01A4
:102CB000E456FD4F20E32083019688309105BCF354
:102CC000323341F482E080939002ECE9F2E0128228
:102CD000158207C083E080939002ECE9F2E0118254
:102CE00014821092B20082E08093B100E0E7F0E03D
:102CF000808181608083E12CF12CC12CD12C00E0FB
:102D000010E0BB24B39402C0BB24B39484EA809344
:102D1000BC009091BC009923E4F783E08093BB0052
:102D200084E88093BC009091BC009923E4F78091E3
:102D3000B900803409F441C08091B20090E0209144
:102D40000401309105018217930701F78091040176
:102D5000909105018996907899231CF401979F6FB3
:102D60000196909305018093040180919002823036
:102D700071F0833071F48091BE018F5F8093BE014A
:102D80008A3039F40E9431061092BE0102C00E94BE
:102D9000310621E0B212BACF0AC0FC01E456FD4F61
:102DA0002081FC01E65FFD4F2083019602C080E098
:102DB00090E0883091058CF3A9CF84EC8093BC001F
:102DC0008091BC008823E4F78091BB008093960239
:102DD00084EC8093BC009091BC009923E4F780912F
:102DE000BB008093060184E88093BC009091BC00F6
:102DF0009923E4F78091BB008093DC0184E9809300
:102E0000BC00809106018A3091F41092B100E0E795
:102E1000F0E08081108280E090E005C0FC01E65F78
:102E2000FD4F1082019688309105C4F38EC08091C9
:102E3000DC018233A9F020F4813309F465CF66CF39
:102E40008333D9F1843309F452C060CFFC01E456D6
:102E5000FD4F2081FC01E65FFD4F2083019602C0FB
:102E600080E090E0883091058CF380E090E00FC026
:102E7000F801E80FF91FDC01A65FBD4F2C9141E07E
:102E800050E04C0F5D1FE40FF51F20830196883042
:102E9000910574F3C801089660E570E00E94332143
:102EA0008C015FEFE51AF50AB12C30CFFC01E45636
:102EB000FD4F20E32083019602C080E090E088303F
:102EC0009105A4F380919002823021F4ECE9F2E0C4
:102ED0001282158280919002833021F4ECE9F2E0B5
:102EE000118214821092B200BB24B3940FCFE1146C
:102EF000F10489F40BCFF601E80FF91F21E030E06F
:102F00002C0F3D1FE20FF31F2081FC01E65FFD4FF8
:102F10002083019602C080E090E0883091055CF348
:102F20003AE0E316F10444F4C6010896B8010E94A1
:102F300033216C01B12CEACEC601089660E570E041
:102F40000E9433216C01B12CE1CEC15ADF4F0FB684
:102F5000F894DEBF0FBECDBFDF91CF911F910F91CF
:102F6000FF90EF90DF90CF90BF900895CF9388EFC0
:102F700093E00E94A221811105C06FEF88EF93E0DA
:102F80000E94AA2188EF93E00E94A221C82FC69533
:102F9000C695282F269526952695982F92959F7051
:102FA000382F3695C827C227C927C795CC27C7957C
:102FB000C32B6C2F88EF93E00E94AA218C2FCF9116
:102FC00008958093BB0084E88093BC008091BC008E
:102FD0008823E4F70895AF92BF92CF92DF92EF92E9
:102FE000FF920F931F93CF93DF93EEE6F0E0808183
:102FF0008E7F808382E08093CD01C0E1D0E04FC01E
:103000000F2EF0E7EF2EF12CF02DF701808181607B
:1030100080830FE610E0F8018081816080830E9448
:10302000E0130E94F9130F2EF6E6AF2EB12CF02D0F
:10303000F501C0836091CD0141E080E00E942D1434
:10304000D62EC72E80910902F50180830E94E013DD
:10305000F70180818E7F8083F80180818E7F80835D
:1030600084EA8093BC008091BC008823E4F782E06E
:103070008093BB0084E88093BC008091BC008823CF
:10308000E4F78091B900883159F78C2D0E94E1173F
:103090008D2D0E94E11784E98093BC002196C13FE9
:1030A000D1050CF4ADCFEEE6F0E080818160808345
:1030B000DF91CF911F910F91FF90EF90DF90CF9014
:1030C000BF90AF900895AF92BF92CF92DF92EF92F0
:1030D0000F931F93CF93DF93CDB7DEB727970FB62C
:1030E000F894DEBF0FBECDBF1B828BB18F798BB939
:1030F00085B1806185B96BE771EE85E00E94FC01C6
:1031000081E08093CD0184E580930601E0E7F0E063
:10311000808181608083EFE6F0E080818160808340
:103120000E94E0130E94F91381EF898329818BEAC1
:10313000289F812D112486958695982F990F890FA8
:10314000982F990F291304C095B180E1892785B97B
:10315000898181508983809366006091CD0140E030
:1031600080E00E942D146C837D838E839F83298150
:10317000213EE0F6683E734081059105BCF68091E2
:1031800066008B831A8295B180E1892785B985E035
:103190008093CD01CC24C394D12C0F2EF8EEAF2E0A
:1031A000F3E0BF2EF02D22C0C60163E070E00E9464
:1031B0003321892B21F495B180E1892785B984E6F3
:1031C000A81AB108E090CD018E010D5F1F4F9E013E
:1031D0002C5F3F4FAE014E5F5F4FBE016F5F7F4F71
:1031E000C5010E94A6142FEFC21AD20A8AE0C8169F
:1031F000D104D4F26091CD0140E080E00E942D1412
:103200006C837D838E839F83E09066000E94E01331
:10321000E0E7F0E080818E7F8083EFE6F0E0808160
:103220008E7F80836E2D8EEF93E00E94AA216E2DFB
:103230008FEF93E00E94AA2189EF93E00E94A221E0
:10324000813039F56FEF89EF93E00E94AA2184EA7B
:103250008093BC008091BC008823E4F782E08093D7
:10326000BB0084E88093BC008091BC008823E4F715
:103270008091B900883159F7809166000E94E1176A
:103280008D810E94E1178C810E94E11784E980936F
:10329000BC0085B1827C85B988B1887F88B985B149
:1032A000826085B98BB18C6F8BB927960FB6F89475
:1032B000DEBF0FBECDBFDF91CF911F910F91EF9079
:1032C000DF90CF90BF90AF900895EF92FF920F9351
:1032D0001F93CF93DF9300E710E0F80180818160B6
:1032E0008083CFE6D0E08881816088830E94E013EC
:1032F0000E94F91385E08093CD016091CD0140E0FB
:1033000080E00E942D146091CD0140E080E00E9499
:103310002D146091CD0140E080E00E942D14F62E26
:10332000E72E0E94E013F80180818E7F80838881E0
:103330008E7F888384EA8093BC008091BC008823C0
:10334000E4F782E08093BB0084E88093BC00809126
:10335000BC008823E4F78091B900883159F7809147
:1033600066000E94E1178E2D0E94E1178F2D0E94AA
:10337000E11784E98093BC00DF91CF911F910F91F9
:10338000FF90EF900895FF920F931F93CF93DF93D9
:1033900080E090E00E94A221082F10E0102F00276B
:1033A00081E090E00E94A221080F111DF12CC5E0E0
:1033B000D0E007C0CE010E94A221811101C0F39488
:1033C00021960C171D07B4F7FA940E94B6176F2DBB
:1033D0000E94272101E0090F11F402E0090F11E01A
:1033E000C5E0D0E0101741F0CE010E94A22181116A
:1033F00001C01F5F2196F6CF84EA8093BC008091C4
:10340000BC008823E4F782E08093BB0084E88093CB
:10341000BC008091BC008823E4F78091B90088311A
:1034200059F7CE010E94A2210E94E1172196CE01F8
:103430000E94A2218111F5CF0E94E11780E00E9435
:10344000E11784E98093BC00DF91CF911F910F9128
:10345000FF900895811104C084E88093BC0003C0EC
:1034600084EC8093BC008091BC008823E4F78091B9
:10347000BB0008951F920F920FB60F9211242F9345
:103480003F934F935F936F937F938F939F93AF93EC
:10349000BF93CF93DF93EF93FF93809106018F3417
:1034A00028F48D34E8F48B3451F0B2C0853509F43A
:1034B0008FC08835A9F0843509F0AAC011C0809169
:1034C000C1018F5F8093C1018091C101833009F0F8
:1034D000BFC01092C10189EF91E00E941C09B8C0E1
:1034E000E1E8F0E01082C4E8D0E088819981A0E0B2
:1034F000B0E01982188221E020832091CD0130E0D4
:103500004091120250911302421753071CF410927B
:10351000CE0154C02091CE012130E9F018F02230C4
:1035200099F14AC08452944FA109B1094091A8026F
:103530005091A9026091AA027091AB02840F951F6D
:10354000A61FB71F8093A8029093A902A093AA0276
:10355000B093AB0231C08452944FAF4FBF4F4091F4
:10356000A8025091A9026091AA027091AB02840F47
:10357000951FA61FB71F8093A8029093A902A0933E
:10358000AA02B093AB0218C08452944FAE4FBF4F03
:103590004091A8025091A9026091AA027091AB02D9
:1035A000840F951FA61FB71F8093A8029093A902AE
:1035B000A093AA02B093AB021092CE0180911202A6
:1035C000909113020196909313028093120240C0CF
:1035D00084EA8093BC008091BC008823E4F783E0F8
:1035E0008093BB0084E88093BC008091BC0088235A
:1035F000E4F78091B900803459F780E00E942A1ADC
:1036000094E99093BC00811123C00E94041420C04F
:103610008091C1018F5F8093C1018091C101803190
:10362000B9F41092C10180910601863441F00E94E4
:10363000640589E290E090930501809304018091F4
:103640000601863429F489E28093B3000E940C02BB
:10365000FF91EF91DF91CF91BF91AF919F918F91AA
:103660007F916F915F914F913F912F910F900FBE7E
:103670000F901F901895CF92DF92EF92FF920F93C9
:103680001F93CF93DF93EEE6F0E080818E7F8083FF
:10369000109269021092680285E08093CD01E0E704
:1036A000F0E0808181608083EFE6F0E080818160DE
:1036B00080830E94E0130E94F913E6E6F0E0808127
:1036C00084518083C0E0D0E00CC06091CD0141E026
:1036D00081E00E942D14E6E6F0E080818F5F808318
:1036E0002196C932D1058CF380910902809366003E
:1036F0000E94E013E0E7F0E080818E7F8083EFE6B8
:10370000F0E080818E7F808384EA8093BC0080918A
:10371000BC008823E4F782E08093BB0084E88093B8
:10372000BC008091BC008823E4F78091B900883107
:1037300059F78091D0010E94E117809109028451CC
:103740000E94E11700E010E00DC0E801CC0FDD1F82
:10375000CC5EDD4F89810E94E11788810E94E117CC
:103760000F5F1F4F0932110584F3809109020E94F7
:10377000E11784E98093BC0084EA8093BC008091C7
:10378000BC008823E4F783E08093BB0084E8809347
:10379000BC008091BC008823E4F78091B90080349C
:1037A00059F780E00E942A1AC82F84E98093BC0050
:1037B000E0E7F0E0808181608083EFE6F0E08081E7
:1037C000816080830E94E0130E94F913CF3F29F4A7
:1037D000809109028093660002C0C093660085E074
:1037E0008093CD016091CD0140E080E00E942D14D6
:1037F0006091CD0140E080E00E942D146091CD01E8
:1038000040E080E00E942D146B017C010E94E013D7
:10381000E0E7F0E080818E7F8083EFE6F0E080815A
:103820008E7F808384EA8093BC008091BC008823D3
:10383000E4F782E08093BB0084E88093BC00809131
:10384000BC008823E4F78091B900883159F787EDEF
:10385000C81686E0D806E104F104DCF088E50E9491
:10386000E1178D2D0E94E1178C2D0E94E11784E94C
:103870008093BC006FEF8EEF93E00E94AA216FEF60
:103880008FEF93E00E94AA21809109028093660045
:103890003CC089E50E94E1176C2F8EEF93E00E94F7
:1038A000AA216C2F8FEF93E00E94AA21CF3F29F429
:1038B000809109028093660006C0E6E6F0E0C083CE
:1038C0008081809309028EEF93E00E94A221809371
:1038D000BB0084E88093BC008091BC008823E4F79F
:1038E0008FEF93E00E94A2218093BB0084E8809335
:1038F000BC008091BC008823E4F784E98093BC007D
:10390000EEE6F0E0808181608083DF91CF911F91AE
:103910000F91FF90EF90DF90CF90089504B602FED4
:1039200003C084B78B7F84BFECE7F0E080818064C4
:103930008083A89584B7877F84BFE0E6F0E080812C
:1039400088618083108285B78F7E85BF14B817B8D1
:103950001AB88FEF85B988B98BB988B1877F88B9D4
:1039600084B18F6384B987B1876087B98AB18C6F5E
:103970008AB985B1827C85B988B1887F88B985B1DB
:10398000826085B98BB18C6F8BB9EFE7F2E0108262
:1039900011821092970210927E0210927D02109274
:1039A0006E0210926D021092CA011092DE01109206
:1039B0009202109293021092940210929502109229
:1039C000910280E28093B8008093B6001092C1010A
:1039D0008DEF93E00E94A2218093D001789489EF2B
:1039E00093E00E94A221813011F40E946318499B48
:1039F00004C004B600FC0E94631884B78E7F84BFA5
:103A000080916600809309028BEF93E00E94A221CF
:103A1000813019F0833031F00AC060E083E00E9409
:103A2000F2010EC060EF83E00E94F20109C062E083
:103A30008BEF93E00E94AA2164ED83E00E94F201E3
:103A400010927C02EEE6F0E080818160808310922B
:103A50007B02809106018634E1F3809106018B346C
:103A6000C1F3809106018535A1F384EA8093BC00FF
:103A70008091BC008823E4F783E08093BB0084E856
:103A80008093BC008091BC008823E4F78091B9004A
:103A90008034A9F08091BF01813039F70AC0FC0160
:103AA000EE53FE4F2081FC01E65FFD4F208301961F
:103AB00002C080E090E0883091058CF3D6CF109260
:103AC000BF0181E00E942A1A182F882331F081E07B
:103AD0000E942A1A8093060105C080E00E942A1ADB
:103AE0008093060180910601883011F010926C02DB
:103AF000111116C01FC00197C817D90741F480E003
:103B00000E942A1AFE01EE52FE4F808307C081E018
:103B10000E942A1AFE01EE52FE4F8083219602C0B7
:103B2000C0E0D0E0812F90E0C817D90724F384E9E2
:103B30008093BC00809106018634A1F018F4833094
:103B400061F410C0893471F0813539F40BC0FC0187
:103B5000E65FFD4F1082019602C080E090E0883061
:103B60009105ACF3E09106018E2F90E0FC013197B6
:103B7000EA35F10508F06DCFE85CFE4F0C94882122
:103B8000FC01EE52FE4F2081FC01E65FFD4F2083D9
:103B9000019602C080E090E0843091058CF384E0CF
:103BA00090E005C0FC01E65FFD4F10820196883071
:103BB0009105C4F34ECFE2EDF1E08081418190E0C8
:103BC000FC01E154F109E732F105B0F4EE56FE4F85
:103BD0000C94882180E090E014C084E090E011C053
:103BE00082E090E00EC085E090E00BC086E090E0BF
:103BF00008C081E090E005C088E090E002C083E06A
:103C000090E08830910509F424CF483008F021CFA6
:103C1000209106012230C1F425B1227C25B928B1BA
:103C2000287F28B925B1226025B92BB12C6F2BB97B
:103C300020E030E006C0F901E65FFD4F10822F5F03
:103C40003F4F28303105BCF320910601233009F0A5
:103C500000CFFC01E65FFD4F208130E0042E02C062
:103C6000359527950A94E2F720FF0FC0FC01E65F27
:103C7000FD4F908121E030E002C0220F331F4A95B2
:103C8000E2F7209529232083E4CEFC01E65FFD4F77
:103C9000208181E090E002C0880F991F4A95E2F7E9
:103CA000822B8083D6CEFC01EE52FE4F2081FC0198
:103CB000E65FFD4F2083019602C080E090E08830EF
:103CC00091058CF3C6CEE2EDF1E080818093830212
:103CD000C18180E090E005C0FC01E65FFD4F1082ED
:103CE000019688309105C4F3C33721F48091830293
:103CF0000E945E06C53709F0ACCE809183020E9417
:103D0000A006A7CEF901EE52FE4F4081640F711D4F
:103D1000811D911D2330310524F4982F872F762F94
:103D200066272F5F3F4F05C020E030E060E070E085
:103D3000CB012430310534F30E94C6068ACE0E949E
:103D4000F81487CE0E94271584CE0E94401681CE9B
:103D500082E08093B100E0E7F0E0808183608083BF
:103D60009BE088E10FB6F894A895809360000FBEA1
:103D7000909360006ECEFC01EE52FE4F2081FC015C
:103D8000E65FFD4F2083019602C080E090E088301E
:103D900091058CF35ECE0E94C3195BCE2150310990
:103DA00002C027E030E0F901E65FFD4F8081882303
:103DB000A9F3F901E65FFD4F80818D3221F4215096
:103DC0003109EDE201C0EBE280E090E0DC011FC0D0
:103DD000880F991FAA1FBB1FAC01BD01440F551FBF
:103DE000661F771F440F551F661F771F840F951F8F
:103DF000A61FB71FE901C65FDD4F4881840F911DE3
:103E0000A11DB11DC097A109B1092150310933236A
:103E1000FCF6ED3239F4B095A095909581959F4FC1
:103E2000AF4FBF4F20E030E00FC0E3E0F0E0E21B17
:103E3000F30BEC57FD4F8083892F9A2FAB2FBB27B5
:103E4000A7FDBA952F5F3F4F2430310574F384EA04
:103E50008093BC008091BC008823E4F782E08093CB
:103E6000BB0084E88093BC008091BC008823E4F709
:103E70008091B900883159F710C0F901EC57FD4F16
:103E800080818093BB0084E88093BC008091BC005B
:103E90008823E4F72F5F3F4F02C020E030E024305A
:103EA00031055CF384E98093BC00D3CDF901EE5277
:103EB000FE4F4081640F711D811D911D233031051E
:103EC00024F4982F872F762F66272F5F3F4F05C04A
:103ED00020E030E060E070E0CB012430310534F3C5
:103EE0000E94950CB6CDF901EE52FE4F4081640F51
:103EF000711D811D911D2330310524F4982F872FCA
:103F0000762F66272F5F3F4F05C020E030E060E04E
:103F100070E0CB012430310534F34091D60129EF14
:103F200031E00E94751082E08093B100E0E7F0E09C
:103F30008081816080838DCD8091D20180937B02CE
:103F400063E08BEF93E00E94AA2180917B0290E0D6
:103F50008830910578F5FC01E754FE4F0C948821D8
:103F600060EF83E00E94F20109C068EF84E00E94E4
:103F7000F20104C064EF84E00E94F20120E030E02E
:103F800033C060EF84E00E94F201F8CF6BEF85E070
:103F90000E94F201F3CF6AEF85E00E94F201EECFBA
:103FA00066EF85E00E94F201E9CF60EF85E00E94B4
:103FB000F201E4CF60EF83E00E94F201DFCF809155
:103FC0007B02A901480F511DCA018770907899237F
:103FD00024F40197886F9F6F0196805DF901E65F79
:103FE000FD4F80832F5F3F4F2830310544F331CDA3
:103FF0000E94EB172ECD0E943B1B2BCDEEE6F0E08E
:1040000080818E7F808385B1827C85B988B1887FED
:1040100088B985B1826085B98BB18C6F8BB984EA20
:104020008093BC008091BC008823E4F783E08093F8
:10403000BB0084E88093BC008091BC008823E4F737
:104040008091B900803459F781E00E942A1A90E0EB
:10405000FC01F097EA30F10508F040C0EF53FE4F45
:104060000C94882185B18D7F85B98BB183788BB90C
:1040700035C08BB1837F8BB931C085B18D7F85B958
:104080008BB18B748BB92AC085B18D7F85B98BB10B
:1040900083768BB923C08BB183738BB91FC085B175
:1040A0008D7F85B98BB187728BB918C08BB1877042
:1040B0008BB914C085B18D7F85B98BB1837F8BB9E6
:1040C0000DC085B18D7F85B98BB183708BB906C06A
:1040D00085B18D7F85B98BB183738BB980E00E94E8
:1040E0002A1A90E0FC01F097E830F10518F5E55345
:1040F000FE4F0C94882185B1806185B91BC085B1C4
:10410000886085B917C085B1846085B913C085B151
:10411000816085B90FC088B1846088B90BC088B14F
:10412000826088B907C088B1816088B903C085B151
:10413000806285B984E98093BC008BCC8091D201E8
:10414000803319F0813341F084CC80910201909149
:1041500003010E9498097DCC80910001909101019A
:104160000E94980976CC8091D201813021F0A0F094
:10417000833039F00CC061E08BEF93E00E94AA21FC
:104180000BC063E08BEF93E00E94AA2105C062E0C0
:104190008BEF93E00E94AA2110927C025ACC81E01E
:1041A0000E94041456CC84EA8093BC008091BC0029
:1041B0008823E4F782E08093BB0084E88093BC000E
:1041C0008091BC008823E4F78091B900883159F7C9
:1041D0008CEF93E00E94A2210E94E11784E9809372
:1041E000BC0060E08CEF93E00E94AA2132CC0E94D8
:1041F00065192FCC84EA8093BC008091BC00882391
:10420000E4F782E08093BB0084E88093BC00809157
:10421000BC008823E4F78091B900883159F7809178
:1042200066000E94E1178EEF93E00E94A2210E9497
:10423000E1178FEF93E00E94A2210E94E117809185
:1042400009020E94E11784E98093BC0002CC991B0B
:1042500079E004C0991F961708F0961B881F7A957D
:10426000C9F78095089597FB072E16F4009407D0A0
:1042700077FD09D00E948E2107FC05D03EF4909571
:1042800081959F4F0895709561957F4F0895A1E2A4
:104290001A2EAA1BBB1BFD010DC0AA1FBB1FEE1FC0
:1042A000FF1FA217B307E407F50720F0A21BB30B0B
:1042B000E40BF50B661F771F881F991F1A9469F787
:1042C00060957095809590959B01AC01BD01CF01E3
:1042D0000895052E97FB1EF400940E94802157FD3F
:1042E00007D00E94472107FC03D04EF40C94802194
:1042F00050954095309521953F4F4F4F5F4F089512
:1043000090958095709561957F4F8F4F9F4F089541
:10431000EE0FFF1F0590F491E02D0994AA1BBB1B23
:1043200051E107C0AA1FBB1FA617B70710F0A61BB5
:10433000B70B881F991F5A95A9F780959095BC01D6
:10434000CD010895F999FECF92BD81BDF89A9927C4
:1043500080B50895262FF999FECF1FBA92BD81BD71
:1043600020BD0FB6F894FA9AF99A0FBE01960895F7
:04437000F894FFCFEF
:1043740007018001290001535720696E666F726D31
:104384006174696F6E3A5573652050726F6A656324
:10439400745F7063625F3136385F56322E33305F3C
:1043A40041726475696E6F5F563220746F20757048
:1043B400646174652073797374656D2066696C65D6
:1043C400730D0A536565204E616E6F2070726F6ABB
:1043D40065637473206469726563746F72792066AF
:1043E4006F72207573657220776F726B2E0D0A00E1
:1043F40053797374656D2066696C65733A204D69F1
:104404006E692D4F535F5632395F434120706C758E
:1044140073207063625F426F6F746C6F6164657266
:0E4424005F56345F33315F4341200D0A0000C4
:00000001FF
