:100000000C94D3010C94F0010C94F0010C94F001C9
:100010000C94F0010C94F0010C94F0010C94671016
:100020000C94F0010C941B180C94F0010C94F0014A
:100030000C94F0010C94FC0F0C94F0010C94F00162
:100040000C942B0F0C94F0010C94F0010C94F00123
:100050000C94F0010C94F0010C94F0010C94F0015C
:100060000C9492100C94F001560254025C0220028F
:10007000250229022E02330237023C0240024502C9
:100080004A025C025C025C025C025C025C025C0292
:100090005C025C025C025C0258025C025C025C0274
:1000A0005C025C025C025C025C025C025C024F026D
:1000B0005C025C025C025C025C025C025C02580254
:1000C0005C025C025C025C025C025C0254025C0248
:1000D0005C025C025C025C025802680276026A0200
:1000E0006C026E02700272027402CF02ED020B0308
:1000F00029034703650382039F03CF03CC03CC038B
:10010000C9036F04C903C903C903C903BD04BD04FE
:10011000BD04BD04BD04BD04BD04BD04BD04BD04D7
:10012000BD04BD04BD04BD04BD04BD04BD04BD04C7
:10013000BD04BD04BD04BD04BD04BD04BD04BD04B7
:10014000BD04BD04BD04BD04BD04BD04BD04BD04A7
:10015000BD04BD04BD04BD04BD04BD04BD04BD0497
:10016000BD04BD04BD04BD04BD04BD04BD04BD0487
:10017000BD04BD04BD04BD04BD04C903C903C90356
:10018000C903C903C903CC03BD04C903C903C90317
:10019000C903BD04BD04BD04C903BD04BD04BD0441
:1001A000BD04BD04BD04BD04CF03DB03ED03FF03A9
:1001B00011042504370449045B049D09A709B40907
:1001C000C109CE09DC09E909F609020A0E0A1A0A70
:1001D000260A320A3D0A490A540AA60AAF0AB90A8F
:1001E000C40ACF0AD90AE40AEE0AF80A010B0C0B7A
:1001F000160B200B2A0B680C740C800C8D0C9A0CBF
:10020000A80CB60CC40CD20CE00CEE0CFC0C0A0DC5
:10021000150D200D2B0D850D8C0D950D9E0DA70D2B
:10022000B00DB80DC20DCB0DD40DDD0DE60DEF0DEB
:10023000F80D010EA30FA60FA90FAC0FAF0FB20F51
:10024000B50FD30FD60FD90FDC0FDF0FE20FE50F7D
:10025000AE10B810CA103011DD10E710F9102411DB
:10026000A312A712AA12A713BB12ED123013621326
:10027000BA1BD01BD01B391C471C661C171B171B35
:10028000171B171B171B171B171B171B171B171BDE
:10029000171B171B171B171B171B171B171B171BCE
:1002A000171B171B171B171B171B171B171B171BBE
:1002B000171B171B171B171B171B171B171B171BAE
:1002C000171B171B171B171B171B171B171B171B9E
:1002D000171B171B171B171B171B171B171B171B8E
:1002E000171B171B171B171B171B171B171B171B7E
:1002F000171B171B8D1C901C931C961CA91CB71C4C
:10030000B41B241D4B1D7D1DD51DD81DDB1D541E8A
:10031000691E171B171B171B851E891E171BA81E7E
:10032000171BAB1EEA1BE41EDE1BE71EE11BE41BD2
:10033000E71B171B171B171B171B171B171B171B5D
:10034000171B171B171B171B171B171B171B171B1D
:10035000171B171B171B171B171B171B171B171B0D
:10036000171B171BEA1BE41EDE1BE71EE11BE41B29
:10037000E71B911D951D9A1D9F1DA41DA91DAE1D56
:10038000B31D071E0C1E101E151E1A1E1E1E231E38
:10039000271E2C1E311E421E441E461E481E4A1E8B
:1003A0004C1E4E1E501E11241FBECFEFD8E0DEBFE4
:1003B000CDBF11E0A0E0B1E0E4E3FFE302C00590AF
:1003C0000D92A23AB107D9F722E0A2EAB1E001C04A
:1003D0001D92A039B207E1F70E94731A0C94981F7E
:1003E0000C94000070938500609384009FEF96BB8F
:1003F00080938100B09BFECFB09A10928100089547
:1004000081E480938B0285EA8093BC0010925402B1
:100410001092530210927A020895E0914E02F091E8
:100420004F02E251FE4FE0818E2F90E0FC01BD971C
:10043000E933F10508F040C0EC5CFF4F0C94681FF5
:1004400029988BB183788BB908958BB1837F8BB951
:10045000089529988BB18B748BB9089529988BB125
:1004600083768BB908958BB183738BB908952998DE
:100470008BB187728BB908958BB187708BB9089552
:1004800029988BB1837F8BB9089529988BB183709C
:100490008BB9089529988BB183738BB908952998E6
:1004A0008BB18B718BB908955C9808955F9808950E
:1004B00029988BB18F708BB90895E0914E02F0911D
:1004C0004F02E830F105B8F5E359FF4F0C94681F6F
:1004D00081E00DC084E00BC088E009C080E107C066
:1004E00080E205C080E403C080E801C082E0909112
:1004F000EE01982309F029989091EF01982309F0D3
:100500005F989091F001982309F05C989091F10127
:10051000982309F05A989091F201982309F05B987A
:100520009091F301982309F05D989091F40189234B
:1005300031F05E9808958091EE0180E0DDCF08955E
:1005400080914E0290914F02019690934F028093BA
:100550004E0280914E0290914F02877090789923BD
:1005600024F40197886F9F6F019690934F028093B8
:100570004E0285B1827C85B988B1887F88B9299A75
:100580008BB18C6F8BB9E0914E02F0914F02E83045
:10059000F10508F0F0C0EB58FF4F0C94681F8091F4
:1005A000500280FF18C0ECE6F2E0908181E0890FF4
:1005B000808389E3989F812D112486958695880FE5
:1005C000282F220F220F220F820F981B9D3008F038
:1005D000D2C02C9AD0C02C9ACEC08091500281FFFC
:1005E00018C0ECE6F2E0918181E0890F818389E314
:1005F000989F812D112486958695880F282F220F8C
:10060000220F220F820F981B9D3008F0B4C02B9A46
:10061000B2C02B9AB0C08091500282FF18C0ECE6A5
:10062000F2E0928181E0890F828389E3989F812D96
:10063000112486958695880F282F220F220F220FCE
:10064000820F981B9D3008F096C02A9A94C02A9A6F
:1006500092C08091500283FF18C0ECE6F2E09381D3
:1006600081E0890F838389E3989F812D11248695EA
:100670008695880F282F220F220F220F820F981B9A
:100680009D3008F078C0289A76C0289A74C080916E
:10069000500284FF18C0ECE6F2E0948181E0890FFB
:1006A000848389E3989F812D112486958695880FF0
:1006B000282F220F220F220F820F981B9D3008F047
:1006C0005AC0429A58C0429A56C08091500285FF43
:1006D00017C0ECE6F2E0958181E0890F858389E31C
:1006E000989F812D112486958695880F282F220F9B
:1006F000220F220F820F981B9D30E8F5419A3BC0D4
:10070000419A39C08091500286FF17C0ECE6F2E0B2
:10071000968181E0890F868389E3989F812D11243A
:1007200086958695880F282F220F220F220F820F81
:10073000981B9D3000F5409A1EC0409A1CC08091C5
:1007400050028823BCF4ECE6F2E0978181E0890F47
:10075000878389E3989F812D112486958695880F3C
:10076000282F220F220F220F820F981B9D3018F482
:100770002D9A01C02D9AE09106018E2F90E0FC0188
:100780003197E835F10508F0F8C0E358FF4F0C94B5
:10079000681F0E940D0208950E945D020895E09175
:1007A0004E02F0914F02E830F10508F0E6C0EB523E
:1007B000FF4F0C94681F8091EE0180FD5A98809144
:1007C000EE0181FD5E988091F00180FD5B98809143
:1007D000F00181FFD2C05D9808958091EE0182FD05
:1007E0005A988091EE0183FD5E988091F00182FD20
:1007F0005B988091F00183FFC0C05D98089580915F
:10080000EE0184FD5A988091EE0185FD5E988091FD
:10081000F00184FD5B988091F00185FFAEC05D988A
:1008200008958091EE0186FD5A988091EE0188230B
:100830000CF45E988091F00186FD5B988091F00148
:1008400088230CF09AC05D9808958091EF0180FD97
:100850005A988091EF0181FD5E988091F10180FDB1
:100860005B988091F10181FF88C05D980895809127
:10087000EF0182FD5A988091EF0183FD5E9880918F
:10088000F10182FD5B988091F10183FF76C05D9854
:1008900008958091EF0184FD5A988091EF0185FDC4
:1008A0005E988091F10184FD5B988091F10185FF54
:1008B00064C05D9808958091EF0186FD5A988091FB
:1008C000EF0188230CF45E988091F10186FD5B981E
:1008D0008091F10188230CF050C05D9808950E942A
:1008E0000D0280914E0290914F0285309105C9F022
:1008F0001CF4049739F008958630910509F10797A3
:1009000071F108958091670280FF03C08BB1837FEE
:100910008BB98091670281FF30C08BB18F798BB921
:1009200008958091670282FF03C08BB1837F8BB9EA
:100930008091670283FF21C08BB18F798BB90895B5
:100940008091670284FF03C08BB1837F8BB9809154
:10095000670285FF12C08BB18F798BB908958091A2
:10096000670286FF03C08BB1837F8BB980916702DA
:1009700088231CF48BB18F798BB908958091740210
:10098000813009F058C08091A601893330F4E6EA3D
:10099000F1E080818F5F80834EC0E6EAF1E080E382
:1009A00080838181853320F481818F5F818343C07F
:1009B000E6EAF1E080E381838381893320F4838157
:1009C0008F5F838338C0E6EAF1E080E3838384812C
:1009D000853320F484818F5F84832DC0E6EAF1E0C3
:1009E00080E384838781803330F1823318F082334F
:1009F00099F021C08091AC01893330F4E6EAF1E04E
:100A000086818F5F868317C0E6EAF1E080E3868304
:100A100087818F5F87830FC08091AC01833330F46F
:100A2000E6EAF1E086818F5F868305C0E6EAF1E0C1
:100A300080E38683878380917402823071F5809190
:100A40008302893330F4E0E8F2E083818F5F8383AF
:100A500024C0E0E8F2E080E383838481853320F4DE
:100A600084818F5F848319C0E0E8F2E080E38483AF
:100A70008681893320F486818F5F86830EC0E0E80B
:100A8000F2E080E386838781853320F487818F5F5E
:100A9000878303C080E38093870280917402833050
:100AA000C9F580918202893330F4E0E8F2E0828176
:100AB0008F5F82830895E0E8F2E080E382838381A0
:100AC000853320F483818F5F83830895E0E8F2E02B
:100AD00080E383838581893320F485818F5F8583DB
:100AE0000895E0E8F2E080E385838681853320F491
:100AF00086818F5F86830895E0E8F2E080E3868355
:100B00008781893320F487818F5F8783089580E30D
:100B100080938702089580917402823081F083303F
:100B200031F580918002893330F4E0E8F2E0808191
:100B30008F5F8083089580E3809380020895809181
:100B40008002893330F4E0E8F2E080818F5F8083B7
:100B50000895E0E8F2E080E380838181893320F426
:100B600081818F5F8183089580E38093810208955E
:100B7000EEEEF1E01082118212821382803849F485
:100B800088E3808382E3818381E382838DE28383B0
:100B90000895982F97FD919540E067E6E42FF0E0E7
:100BA0009602212D11242595259597FD2395522FE9
:100BB000550F352F330F330F350F931B905DE251D7
:100BC000FE4F90834F5F922F121644F3882334F424
:100BD000E42FF0E0E251FE4F8DE280830895EEEEC7
:100BE000F1E0108211821282138230E05DECE32F7B
:100BF000F0E0859F912D1124969596959695492F15
:100C0000440F242F220F220F240F821B805DE251FC
:100C1000FE4F80833F5F892F9111E9CF08958F9216
:100C20009F92AF92BF92CF92DF92EF92FF921F936B
:100C3000CF93DF936B017C0180E090E0FC01E251F7
:100C4000FE4F1082019688309105C1F7D701C60189
:100C500081589946A746BF4F8F379747AE48B64051
:100C600090F5D701C601FF203CF488279927DC01C5
:100C70008C199D09AE09BF09BC01CD0110E00F2EF2
:100C8000FAE08F2E912CA12CB12CF02DC12FD0E0A9
:100C9000A50194010E94491F605DC251DE4F688327
:100CA0001F5F622F732F842F952F161617061806B5
:100CB000190664F3FF2094F4E12FF0E0E251FE4FB7
:100CC0008DE280830BC080E090E02FE5FC01E251D3
:100CD000FE4F2083019688309105C1F7DF91CF91B7
:100CE0001F91FF90EF90DF90CF90BF90AF909F90BB
:100CF0008F9008952F923F924F925F926F927F92C2
:100D00008F929F92AF92BF92CF92DF92EF92FF921B
:100D10000F931F93CF93DF931C012A013B014115D1
:100D200051056105704859F52A3019F02031B9F0A4
:100D300064C098E3F101908384E3818326E32283F6
:100D400023E323839483858397E39683878381E3D7
:100D5000808782E381878DE2828713864EC080E39D
:100D6000F101808381838283838384838583868367
:100D700088E3878310861186128613863EC0E101C0
:100D8000C1010C96F1011192E817F907E1F773011F
:100D9000620177203CF4CC24DD247601C418D50808
:100DA000E608F70800E010E0822E912CA12CB12C6F
:100DB000C701B601A50194010E94491F68836A30EA
:100DC00018F4605D688302C0695C68830F5F1F4F21
:100DD000C701B601A50194010E94491F69017A016A
:100DE0002196121613061406150614F377202CF418
:100DF000F101E00FF11F8DE28083DF91CF911F9110
:100E00000F91FF90EF90DF90CF90BF90AF909F90A9
:100E10008F907F906F905F904F903F902F900895AC
:100E2000CF93DF93EC0188818823C9F0DE0111960E
:100E3000E0E0F0E031969D919111FCCF309779F090
:100E4000EC0FFD1FAE0127E030E09291D901A251D5
:100E5000BE4F9C93215031094E175F07B1F7DF91C8
:100E6000CF910895CF93DF93CDB7DEB72C970FB610
:100E7000F894DEBF0FBECDBF282FCE0101960E9491
:100E80007A06CE0101960E9410072C960FB6F894B0
:100E9000DEBF0FBECDBFDF91CF9108954F925F921D
:100EA0006F927F928F929F92AF92BF92EF92FF923A
:100EB0000F931F93CF93DF93CDB7DEB72C970FB669
:100EC000F894DEBF0FBECDBF2A013B0196E3591A4D
:100ED00095E6690A94EC790AE8E0F0E07F01E21A0D
:100EE000F30A1E141F04F4F460E070E001E010E067
:100EF00020E030E0000F111F221F331F480159016D
:100F0000880C991CAA1CBB1C880C991CAA1CBB1C15
:100F1000080D191D2A1D3B1D6F5F7F4F6E157F0544
:100F200049F731C04B5F55436546744C282FCE01BD
:100F300001960E947A06FF2054F0FE01319680E06F
:100F400090E020E221930196E816F906DCF78EE2A4
:100F50008A8788E090E001C0C9019C0121503109D5
:100F6000F901E251FE4F40814111F6CF009729F17E
:100F7000FE013B9601972291DC01A251BE4F2C93BA
:100F80000097C1F71AC0B901A801440F551F661F89
:100F9000771F440F551F661F771F040F151F261F4D
:100FA000371FB901A801440D551D661D771D282F57
:100FB000CE0101960E947A06C0CF2C960FB6F89407
:100FC000DEBF0FBECDBFDF91CF911F910F91FF907C
:100FD000EF90BF90AF909F908F907F906F905F90B9
:100FE0004F9008958F929F92AF92BF92CF92DF92CF
:100FF000EF92FF924A015B0186E3981A85E6A80A00
:1010000084ECB80A68E070E0621B730B16161706D2
:10101000F4F420E030E081E090E0A0E0B0E0880F60
:10102000991FAA1FBB1F6C017D01CC0CDD1CEE1C9F
:10103000FF1CCC0CDD1CEE1CFF1C8C0D9D1DAE1D81
:10104000BF1D2F5F3F4F2617370749F704C081E0C8
:1010500090E0A0E0B0E0AC01BD01440F551F661F59
:10106000771F440F551F661F771F840F951FA61FFC
:10107000B71F880D991DAA1DBB1D21E0811594493C
:10108000A543B74708F020E0822FFF90EF90DF9054
:10109000CF90BF90AF909F908F900895CF93DF93A4
:1010A000AC01ECEBF0E084EACBEBD0E033E024E8F9
:1010B000A9EBB0E0808390819923ECF738832083FB
:1010C00090819923ECF79C919034A1F784E8809368
:1010D000BC00ECEBF0E090819923ECF78091BB0031
:1010E00094E89093BC00803321F0823309F444C02B
:1010F00050C028E030E0C9010197FC01E251FE4FE9
:101100006081F901E251FE4F60839C01892B99F7C0
:101110008091AF019091B00120917C0230917D02CD
:101120008217930781F0821B930B480F591FFA0116
:10113000319780818093EE012F5F3F4F30937D0286
:1011400020937C0226C080916502909166028330D4
:1011500091054CF421E62093EE01019690936602EE
:101160008093650216C0109266021092650210927A
:101170007D0210927C020DC0109206011092A50112
:101180001092B2001092B100E0E7F0E080818E7F13
:101190008083DF91CF9108950F931F93CF93DF93B7
:1011A0008C01FC018081882349F0319620E030E0F9
:1011B0002F5F3F4F81918111FBCF02C020E030E0D3
:1011C000ECEBF0E054EACBEBD0E042E094E8A9EBA2
:1011D000B0E0508380818823ECF74883908380813E
:1011E0008823ECF78C918831A1F7C9016AE070E09F
:1011F0000E94131F605D6093BB0084E88093BC0075
:10120000ECEBF0E080818823ECF7C9016AE070E044
:101210000E94131F805D8093BB0084E88093BC0014
:10122000ECEBF0E080818823ECF7C90101978AF0AC
:10123000D801200F311FCBEBD0E0ECEBF0E044E81D
:101240008D918883408390819923ECF72A173B077F
:10125000B9F784E98093BC00DF91CF911F910F9182
:1012600008952F923F924F925F926F927F928F924A
:101270009F92AF92BF92CF92DF92EF92FF920F9325
:101280001F93CF93DF93CDB7DEB72E970FB6F894A9
:10129000DEBF0FBECDBF21E030E0412C512C32012A
:1012A0008B0102701127AB01447055275E874D8773
:1012B000DB01A870BB27AB01407155277B01E0E241
:1012C000EE22FF246B01F0E4CF22DD245B01E0E895
:1012D000AE22BB244B018824F1E09F22FB01EE27C4
:1012E000F270FA83E983FB01EE27F470FC83EB8351
:1012F000FB01EE27F870FE83ED83FB01EE27F07112
:10130000F887EF83FB01EE27F072FA87E987FB018C
:10131000EE27F074FC87EB871B012224F0E83F22C4
:1013200002C02F5F3F4FF9013197E031F10508F01E
:10133000C4C0E352FF4F0C94681F2114310489F399
:10134000FBE95F1AF2E36F0AF2EE7F0AEACFEB8560
:10135000FC85EF2B31F3F0E84F1AFDE45F0AF9E169
:101360006F0AF1EF7F0ADDCFE985FA85EF2BC9F22D
:10137000F0EC4F1AF6EA5F0AFCE86F0AF8EF7F0A12
:10138000D0CFEF81F885EF2B61F2F0E64F1AF3E54D
:101390005F0AF6E46F0AFCEF7F0AC3CFED81FE819E
:1013A000EF2B09F4BECFF0EB4F1AF9E25F0AF3E23C
:1013B0006F0AFEEF7F0AB5CFEB81FC81EF2B09F4BA
:1013C000B0CFF8E24F0EFBE65F1EFEEE6F1E711C03
:1013D000A8CFE981FA81EF2B09F4A3CFF4E94F0EEE
:1013E000F5E35F1EF7E76F1E711C9BCF811491041C
:1013F00009F497CFEAEC4E0EEAE95E1EEBE36E1EAF
:10140000711C8FCFA114B10409F48BCFF5E64F0EF8
:10141000FDEC5F1EFDE16F1E711C83CFC114D10472
:1014200009F47FCFE3EB4E0EE6EE5E1EEEE06E1E9D
:10143000711C77CFE114F10409F473CFF9E54F0E75
:10144000F3E75F1EF7E06F1E711C6BCF411551056E
:1014500009F467CFEDEA4E0EE9EB5E1EE3E06E1E87
:10146000711C5FCF109709F45CCFF6ED4F0EFCEDC9
:101470005F1EF1E06F1E711C54CFED85FE85EF2BD2
:1014800009F44FCFFBE64F0EFEEE5F1E611C711C90
:1014900048CF0115110509F444CFE6E34E0EE7E706
:1014A0005E1E611C711C3DCF60FF0BC0FBE94F0E3F
:1014B000FBE35F1E611C711C04C0203131050CF47C
:1014C00030CF21E030E05C0144E0A422BB246C0179
:1014D00058E0C522DD247C0160E1E622FF248C0176
:1014E00000721127FC01E074FF27F887EF83DC010D
:1014F000A078BB27AC01442751704C018824F2E04E
:101500009F22BC01662774707A836983BC016627B9
:101510007870FC01EE27F071FC83EB83FC01EE2771
:10152000F072FE83ED831C012224F0E43F22882721
:10153000907802C02F5F3F4FF9013197EE30F105EF
:1015400008F092C0E351FF4F0C94681F009791F38D
:10155000FDEC4F0EFDE15F1E611C711CEBCF2114F1
:10156000310441F3E7EE4E0EEEE05E1E611C711C8D
:10157000E1CFED81FE81EF2BE9F2F3E74F0EF7E0CB
:101580005F1E611C711CD6CFEB81FC81EF2B91F2A9
:10159000FAEB4F0EF3E05F1E611C711CCBCF61159F
:1015A000710541F2EDED4E0EE1E05E1E611C711C15
:1015B000C1CFE981FA81EF2B09F4BCCFFEEE4F0ECB
:1015C000511C611C711CB6CF8114910409F4B2CF77
:1015D000E7E74E0E511C611C711CACCF4115510543
:1015E00009F4A8CFFCE34F0E511C611C711CA2CF63
:1015F000109709F49FCFEEE14E0E511C611C711C37
:1016000099CFEF81F885EF2B09F494CFFFE04F0ECF
:10161000511C611C711C8ECF0115110509F48ACF74
:10162000E7E04E0E511C611C711C84CFE114F104E3
:1016300009F480CFF4E04F0E511C611C711C7ACF6D
:10164000C114D10409F476CFE2E04E0E511C611CA6
:10165000711C70CFA114B10409F46CCFFFEF4F1AC5
:101660005F0A6F0A7F0A66CF203131050CF462CF22
:10167000D301C2010896A11DB11DBC01CD01607F3F
:101680002E960FB6F894DEBF0FBECDBFDF91CF917F
:101690001F910F91FF90EF90DF90CF90BF90AF9090
:1016A0009F908F907F906F905F904F903F902F9082
:1016B00008958F929F92AF92BF92CF92DF92EF9256
:1016C000FF926B017C019923A4F46095709580E0F2
:1016D00090E00E9431094B015C016701FF24D7FCB7
:1016E000F094EF2C8FEFC816D806E806F806B9F488
:1016F0000FC080E090E00E9431094B015C01A7011E
:10170000772757FD7095672F8AE00E94320710C037
:10171000EEEEF1E08DE2878380E3868309C0B701B6
:10172000A6014F5F5F4F6F4F7F4F8AE00E943207E5
:1017300025E030E0B501A4018AE00E944E07FF9049
:10174000EF90DF90CF90BF90AF909F908F900895D3
:101750002F923F924F925F926F927F928F929F92C1
:10176000AF92BF92CF92DF92EF92FF920F931F93AF
:10177000CF93DF93CDB7DEB7E4970FB6F894DEBF13
:101780000FBECDBFDB018C01332717FD3095232F12
:101790002801390142E04422552466247724480177
:1017A000590154E085229924AA24BB2468017901B7
:1017B00068E0C622DD24EE24FF24B901A8014071AF
:1017C0005527662777274DA75EA76FA778ABB90186
:1017D000A801407255276627772749A75AA76BA704
:1017E0007CA7B901A80140745527662777274DA328
:1017F0005EA36FA378A7B901A80140785527662793
:10180000772749A35AA36BA37CA3B901A801442756
:101810005170662777274D8F5E8F6F8F78A3B90140
:10182000A8014427527066277727498F5A8F6B8FFC
:101830007C8FB901A80144275470662777274D8B08
:101840005E8B6F8B788FB901A8014427587066278B
:101850007727498B5A8B6B8B7C8BB901A801442766
:101860005071662777274D875E876F87788BB90120
:10187000A801442750726627772749875A876B87C4
:101880007C87B901A80144275074662777274D83C8
:101890005E836F837887B901A80144275078498314
:1018A0005A836B837C8381E090E040E050E0BA0192
:1018B00009AB1AAB2BAB3CAB01C00196FC013197D5
:1018C000E031F10508F0D2C0E550FF4F0C94681FDD
:1018D00009811A812B813C81012B022B032B69F397
:1018E0005A5C6A497B43E9CF0D811E812F8138857F
:1018F000012B022B032B09F35B596243724EDDCFA0
:1019000009851A852B853C85012B022B032BA9F217
:1019100040585D446941714FD0CF0D851E852F859C
:101920003889012B022B032B41F2405C564A6C484C
:10193000784FC3CF09891A892B893C89012B022B47
:10194000032B09F4BACF4056534566447C4FB5CFBC
:101950000D891E892F89388D012B022B032B09F449
:10196000ACCF405B594263427E4FA7CF098D1A8DA1
:101970002B8D3C8D012B022B032B09F49ECF485D50
:10198000544961417F4F99CF0D8D1E8D2F8D38A108
:10199000012B022B032B09F490CF4C565A4C68486C
:1019A0007F4F8BCF09A11AA12BA13CA1012B022BA8
:1019B000032B09F482CF46535546644C7F4F7DCFAD
:1019C0000DA11EA12FA138A5012B022B032B09F479
:1019D00074CF4B595243624E7F4F6FCF09A51AA562
:1019E0002BA53CA5012B022B032B09F466CF4D54EC
:1019F0005941614F7F4F61CF0DA51EA52FA538A975
:101A0000012B022B032B09F458CF475A5C48684F2F
:101A10007F4F53CFC114D104E104F10409F44DCF39
:101A2000435556446C4F7F4F48CF81149104A10415
:101A3000B10409F442CF4A5253426E4F7F4F3DCF1B
:101A4000411451046104710409F437CF45595141DF
:101A50006F4F7F4F32CF09A91AA92BA93CA900FFCC
:101A600009C04A5C58486F4F7F4F04C080319105D0
:101A70000CF423CF81E090E05D0112E0A122BB24B1
:101A80006D0124E0C222DD247D0138E0E322FF2441
:101A90008D01007111279D01207233274D01E0E473
:101AA0008E2299243D01F0E86F2277242D014424F1
:101AB000E1E05E22FD01EE27F270FA8BE98B1D0159
:101AC0002224F4E03F22FD01EE27F870FA83E98337
:101AD000FD01EE27F071FE83ED83FD01EE27F0722C
:101AE000FA87E987FD01EE27F074FE87ED87AA27C4
:101AF000B07801C00196FC013197EF30F10508F094
:101B000089C0E55FFE4F0C94681F109799F3455606
:101B1000544C6F4F7F4FEECFED85FE85EF2B51F389
:101B20004353524E6F4F7F4FE5CFE985FA85EF2B38
:101B300009F34951514F6F4F7F4FDCCFED81FE814B
:101B4000EF2BC1F24D58584F6F4F7F4FD3CFE981E4
:101B5000FA81EF2B79F246545C4F6F4F7F4FCACF1B
:101B60002114310439F243525E4F6F4F7F4FC2CF81
:101B7000E989FA89EF2B09F4BDCF42515F4F6F4FCE
:101B80007F4FB8CF4114510409F4B4CF49585F4F87
:101B90006F4F7F4FAFCF6114710409F4ABCF445C3A
:101BA0005F4F6F4F7F4FA6CF8114910409F4A2CFEE
:101BB000425E5F4F6F4F7F4F9DCF2115310509F476
:101BC00099CF415F5F4F6F4F7F4F94CF0115110544
:101BD00009F490CF495F5F4F6F4F7F4F8BCFE11478
:101BE000F10409F487CF4C5F5F4F6F4F7F4F82CF77
:101BF000C114D10409F47ECF4E5F5F4F6F4F7F4F0A
:101C000079CFA114B10409F475CF4F5F5F4F6F4FC7
:101C10007F4F70CF803191050CF46CCFCB01BA01AE
:101C2000E4960FB6F894DEBF0FBECDBFDF91CF9123
:101C30001F910F91FF90EF90DF90CF90BF90AF90EA
:101C40009F908F907F906F905F904F903F902F90DC
:101C500008953F924F925F926F927F928F929F92E0
:101C6000AF92BF92CF92DF92EF92FF920F931F93AA
:101C7000CF93DF93CDB7DEB72C970FB6F894DEBFC6
:101C80000FBECDBF2B013C01342E790169018901C2
:101C9000005F1F4FF9011192E017F107E1F7C3014F
:101CA000B2010E94A80B4B015C01772024F48094C0
:101CB0009094A094B09427E030E0B501A4018AE0AC
:101CC0000E94F2078823C9F0B501A4014E5C554378
:101CD0006546744C2AE0C7010E947A06D7011C921F
:101CE00011961C9211978EE219968C93199780E3A6
:101CF0001A968C93772074F491C080E3F701808763
:101D00009EE29187828777200CF484C081E3D7011B
:101D10001A968C93F70120E030E002C02F5F3F4F0E
:101D200081918823D9F38033C9F3D701A20FB31F60
:101D3000F70180E090E04FE050E0421B530B2D9103
:101D40002193019648175907D4F7332009F445C069
:101D5000432D330C550B660B770B2AE0CE01019611
:101D60000E947A068981882351F0FE01329620E094
:101D700030E02F5F3F4F81918111FBCF02C020E007
:101D800030E0F701E21BF30B3D9680E090E06DE060
:101D900070E0621B730B4081D8014E938D01019658
:101DA000319768177907BCF7121613066CF4FE0119
:101DB0003196AF01420F531F8191D6018D936D0172
:101DC000E417F507C9F702C020E030E0F701E20FA1
:101DD000F31F88E5808380E281831092B001109226
:101DE000AF018091DD01882361F0EEEDF1E09F010C
:101DF0002D5D314081918111FACF3093B001209354
:101E0000AF0110927D0210927C0210926602109235
:101E1000650209C08DE2F701838778CF8DE2D70193
:101E20001B968C9377CF2C960FB6F894DEBF0FBE1F
:101E3000CDBFDF91CF911F910F91FF90EF90DF9079
:101E4000CF90BF90AF909F908F907F906F905F905A
:101E50004F903F9008951F920F920FB60F9211244A
:101E60002F933F934F935F936F937F938F939F93A2
:101E7000AF93BF93CF93DF93EF93FF938091600273
:101E8000811111C080910601863459F4C0E7D0E079
:101E90008881188278940E94A00288818360888358
:101EA00002C00E94A0028BEF93E00E94821F81304B
:101EB00009F416BC8BEF93E00E94821F8230A9F4D4
:101EC00084ED86BD80916002882319F0813029F06D
:101ED0000CC081E08093600208C0299A8BB18C6F9E
:101EE0008BB91092600282E386BD8BEF93E00E9473
:101EF000821F833009F06DC080915F02811116C08E
:101F000080EF86BD80916002882319F0813029F02E
:101F100060C081E0809360025CC0299A8BB18C6FB5
:101F20008BB91092600280E186BD53C0E0915F02E0
:101F30008E2F90E0FC013197E730F105C0F4E65EAA
:101F4000FE4F0C94681F88EF86BD11C084EF86BDDC
:101F50000EC080EF86BD0BC08BEF86BD08C08AEF38
:101F600086BD05C086EF86BD02C080EF86BD80912C
:101F70006002882319F0813029F02BC081E0809322
:101F8000600227C0299A8BB18C6F8BB9E0915F02F8
:101F90008E2F90E0FC013197E730F105C0F4EF5D42
:101FA000FE4F0C94681F8CE686BD11C08CE486BD84
:101FB0000EC080E186BD0BC085EB86BD08C086EAF9
:101FC00086BD05C08AE686BD02C080E186BD10924E
:101FD0006002FF91EF91DF91CF91BF91AF919F91FF
:101FE0008F917F916F915F914F913F912F910F90C2
:101FF0000FBE0F901F9018951F920F920FB60F9261
:1020000011248F939F93EF93FF93809106018F3458
:1020100030F48D3408F047C0893041F04AC084352F
:1020200009F441C0883509F044C03DC080914A029E
:1020300090914B02892B51F480E090E0FC01E25139
:10204000FE4F1082019688309105C1F780914A02B7
:1020500090914B02E5EFF1E0E81BF90B8FE58083EF
:1020600080914A0290914B02019690934B0280938B
:102070004A0280914A0290914B028770907899238E
:1020800024F40197886F9F6F019690934B02809381
:102090004A0280EF8093850083EC8093840085E082
:1020A000809381000BC08091B2018F5F8093B20159
:1020B00005C081E08093A40110928100FF91EF910F
:1020C0009F918F910F900FBE0F901F9018951F92A8
:1020D0000F920FB60F9211242F933F934F935F935C
:1020E0006F937F938F939F93AF93BF93EF93FF93E0
:1020F000E3EBF0E08081875D8083808180830E94B4
:102100000002FF91EF91BF91AF919F918F917F91CD
:102110006F915F914F913F912F910F900FBE0F9054
:102120001F9018951F920F920FB60F9211242F93A4
:102130003F938F939F93AF93BF93EF93FF93E09160
:102140008B028E2F90E0FC01E154F109E830F1059B
:1021500008F086C0E85DFE4F0C94681F83E0809312
:10216000BB0085E88093BC0082E480938B0278C03A
:102170008091B900803439F485E88093BC0083E411
:1021800080938B026DC085EA8093BC0081E48093CC
:102190008B0266C08091BB0080937A0280917A02A4
:1021A000811104C08AE580938B025AC085EA80932E
:1021B000BC0085E480938B0253C083E08093BB0016
:1021C00085E88093BC0086E480938B0249C08091AF
:1021D000B900803439F085EA8093BC0085E48093AF
:1021E0008B023EC085EC8093BC0087E480938B0219
:1021F00037C0E0915302F09154028091BB00E2514C
:10220000FE4F8083809153029091540201969093E7
:1022100054028093530280917A02209153023091AC
:10222000540290E00197281739073CF485EC80931D
:10223000BC0087E480938B0213C085E88093BC00C8
:1022400088E480938B020CC0E0915302F091540219
:102250008091BB00E251FE4F80838AE580938B0220
:1022600080918B028A3521F484E98093BC00A89583
:10227000FF91EF91BF91AF919F918F913F912F91DE
:102280000F900FBE0F901F9018951092850010921E
:102290008400109281001092B100E6EBF0E08081A2
:1022A00080FDFDCF1092B000E6EBF0E0808181FD73
:1022B000FDCF1092B200E6EBF0E0808184FDFDCF0F
:1022C000089581E08093B100E6EBF0E0808180FD2D
:1022D000FDCF81E08093810008951092B100E6EB7C
:1022E000F0E0908190FDFDCF1092B000E6EBF0E0C1
:1022F000908191FDFDCF1092B200E6EBF0E090816D
:1023000094FDFDCF882371F0E0E7F0E080818160EB
:10231000808381E08093B100E6EBF0E0808180FD76
:10232000FDCF0895E0E7F0E080818E7F80831092FA
:10233000060108958F929F92AF92BF92CF92DF9243
:10234000EF92FF920F931F93CF93623029F0653085
:1023500031F4CAE0EFE005C0C4E0E6E002C0C1E04D
:10236000E2E01092F7011092F60110928C021092A6
:102370008D0210928E0210928F02F0E06091F601B1
:102380007091F7016E177F07CCF31092F70110924E
:10239000F601C0908C02D0908D02E0908E02F090F9
:1023A0008F0241110AC0FF2044F4F094E094D094CD
:1023B000C094C11CD11CE11CF11C8823F1F00091D8
:1023C0004C0210914D02000F111F08501E4F8C2E11
:1023D000912CA12CB12CC701B601A50194010E943A
:1023E000491FF8013183208380914C0290914D0266
:1023F000019690934D0280934C022C2F30E040E0E8
:1024000050E0C701B6010E94491FCA01B901CF912E
:102410001F910F91FF90EF90DF90CF90BF90AF9002
:102420009F908F9008954F925F926F927F928F92BC
:102430009F92AF92BF92CF92DF92EF920F931F9332
:10244000CF93DF932C01EB016A015901FA019081CE
:10245000943170F50F2EF6E68F2E912CF02D052C71
:10246000000C660877088881F401808340E06E2DB7
:1024700080E00E949A11F5016083718382839383C7
:10248000641575058605970554F088818150888309
:10249000F60180818F5F8083843128F309C0F601C3
:1024A0008081843128F480916600F801808304C023
:1024B000F801808180936600DF91CF911F910F9189
:1024C000EF90DF90CF90BF90AF909F908F907F90D4
:1024D0006F905F904F900895E6EBF1E087E090E019
:1024E0002191DC01AA55BE4F2C930197C8F780E0DB
:1024F00090E0FC01EA55FE4F2081FC01E251FE4FC5
:102500002083019688309105A1F782E08093B10085
:10251000E0E7F0E080818160808381E08093A30127
:10252000809374020895E091B601E093C0018E2F6C
:1025300090E0FC01F197E830F10508F008C1E05D9A
:10254000FE4F0C94681F81E08093A30100C110929C
:10255000A301FDC01092A30180E090E0FC01EA55C8
:10256000FE4F2081FC01E251FE4F2083019688300E
:102570009105A1F7ECC08091A601893330F4E6EA19
:10258000F1E080818F5F808324C0E6EAF1E080E3A0
:1025900080838181853320F481818F5F818319C09D
:1025A000E6EAF1E080E381838381893320F483814B
:1025B0008F5F83830EC0E6EAF1E080E3838384814A
:1025C000853320F484818F5F848303C080E380930C
:1025D000AA0181E08093A301BAC08091A90181334F
:1025E00030F0E6EAF1E083818150838335C0E6EA8A
:1025F000F1E089E383838481813320F084818150F9
:1026000084832AC0E6EAF1E085E38483878180330E
:1026100099F010F1833300F58091AC01813320F003
:1026200086818150868318C0E6EAF1E089E38683DB
:1026300087818150878310C08091AC01813330F055
:10264000E6EAF1E086818150868306C0E6EAF1E0A1
:1026500083E3868382E3878381E08093A30177C04D
:102660008091A601813330F0E6EAF1E0808181506B
:10267000808324C0E6EAF1E089E3808381818133AD
:1026800020F081818150818319C0E6EAF1E085E381
:1026900081838381813320F08381815083830EC0C5
:1026A000E6EAF1E089E383838481813320F0848149
:1026B0008150848303C085E38093AA0181E08093E5
:1026C000A30145C08091A901893330F4E6EAF1E025
:1026D00083818F5F838338C0E6EAF1E080E3838300
:1026E0008481853320F484818F5F84832DC0E6EA62
:1026F000F1E080E384838781803330F1823318F006
:10270000823399F021C08091AC01893330F4E6EA3C
:10271000F1E086818F5F868317C0E6EAF1E080E30F
:10272000868387818F5F87830FC08091AC0183335D
:1027300030F4E6EAF1E086818F5F868305C0E6EA41
:10274000F1E080E38683878381E08093A30181E0C9
:102750008093740208952F923F924F925F926F92EE
:102760007F928F929F92AF92BF92CF92DF92EF9221
:10277000FF920F931F93CF93DF93CDB7DEB7C3566E
:10278000D1090FB6F894DEBF0FBECDBF3091B601B0
:1027900080E090E020E3FC01E058FD4F20830196AB
:1027A00088309105C1F7323341F482E0809374029E
:1027B000E0E8F2E01282158207C083E080937402A1
:1027C000E0E8F2E0118214821092B20082E080937D
:1027D000B100E0E7F0E0808181608083812C912C62
:1027E000A4961FAE1EAEA497A2961FAE1EAEA297D1
:1027F000222423940CEB10E00F2EF4EA5F2EF02D30
:102800000F2EFBEBEF2EF12CF02D0F2EF3E0CF2E41
:10281000F02D0F2EF4E8DF2EF02D0F2EF9EBAF2E5A
:10282000B12CF02D0F2EF4EC4F2EF02D0F2EF0E3E7
:102830003F2EF02D0F2EF2EB6F2E712CF02DF801A4
:102840005082F80180818823E4F7F701C082F80103
:10285000D082F80180818823E4F7F50180818034FB
:1028600009F43FC0F30180812091040130910501FA
:1028700090E08217930719F7809104019091050168
:102880008996907899231CF401979F6F01969093F5
:1028900005018093040180917402823071F08330CD
:1028A00071F48091A2018F5F8093A2018A3039F484
:1028B0000E948B051092A20102C00E948B05F1E0DC
:1028C0002F12BDCF80E090E0FC01E058FD4F208149
:1028D000FC01E251FE4F2083019688309105A1F75B
:1028E000AECFF8014082F80180818823E4F7F70138
:1028F000808180937A02F8014082F80180818823E8
:10290000E4F7F701808180930601F801D082F80195
:1029100080818823E4F7F70180818093C00184E9F6
:10292000F8018083809106018A3089F41092B10009
:10293000E0E7F0E08081108280E090E0FC01E2516D
:10294000FE4F1082019688309105C1F7A2C0809198
:10295000C001823369F018F4813339F070CF8333CA
:10296000E1F1843309F458C06ACF2224239467CF5D
:1029700080E090E0FC01E058FD4F2081FC01E25135
:10298000FE4F2083019688309105A1F7E1E0F0E049
:10299000EC0FFD1FA2968EAD9FADA297E80FF91F19
:1029A00080E090E0DC01A251BE4F2C912193019672
:1029B00088309105B9F7A2968EAD9FADA297089683
:1029C00060E570E00E94131FA2969FAF8EAFA297A2
:1029D0009FEF891A990A212C32CF80E090E0FC0108
:1029E000E058FD4F3082019688309105C1F7809103
:1029F0007402823021F4109282021092850280913A
:102A00007402833021F41092810210928402F30147
:102A100010822224239413CF8114910409F40FCF40
:102A2000E1E0F0E0EC0FFD1FA4968EAD9FADA49702
:102A3000E80FF91F80E090E02191DC01A251BE4F28
:102A40002C93019688309105B9F79AE08916910484
:102A50008CF4A4968EAD9FADA4970896A2966EAD09
:102A60007FADA2970E94131FA4969FAF8EAFA4972D
:102A7000212CE5CEA4968EAD9FADA497089660E577
:102A800070E00E94131FA4969FAF8EAFA497212CD5
:102A9000D6CECD59DF4F0FB6F894DEBF0FBECDBFF7
:102AA000DF91CF911F910F91FF90EF90DF90CF902A
:102AB000BF90AF909F908F907F906F905F904F905E
:102AC0003F902F900895CF9388EF93E00E94821F4C
:102AD000811105C06FEF88EF93E00E948A1F88EF95
:102AE00093E00E94821FC82FC695282F2695269511
:102AF000982F9695969596959227982782958F7000
:102B00008927879588278795C82B6C2F88EF93E0B6
:102B10000E948A1F8C2FCF9108958093BB0084E878
:102B20008093BC00ECEBF0E080818823ECF7089503
:102B30003F924F925F926F927F928F929F92AF924D
:102B4000BF92CF92DF92EF92FF920F931F93CF939A
:102B5000DF93EEE6F0E080818E7F808382E08093D9
:102B6000B1016894552454F80F2EF0E7CF2ED12CE4
:102B7000F02D0F2EFFE6EF2EF12CF02D0F2EF6E6A6
:102B8000AF2EB12CF02DCCEBD0E00F2EF4EA6F2E4F
:102B9000F02D0F2EFBEB8F2E912CF02D68947724C7
:102BA00071F809EB10E0F601808181608083F70104
:102BB0008081816080830E9445110E946111F5012E
:102BC00050826091B10141E080E00E949A11462E4E
:102BD000372E8091ED01F50180830E944511F601A9
:102BE00080818E7F8083F70180818E7F808394E84F
:102BF000688288818823ECF7F40170829883888149
:102C00008823ECF7F8018081883191F7832D0E94A9
:102C10008D15842D0E948D1584E988835394F1EFDE
:102C20005F12C1CFEEE6F0E0808181608083DF91AA
:102C3000CF911F910F91FF90EF90DF90CF90BF90B9
:102C4000AF909F908F907F906F905F904F903F904C
:102C500008958F929F92AF92BF92CF92DF92EF92A0
:102C6000FF920F931F93CF93DF93CDB7DEB72797D4
:102C70000FB6F894DEBF0FBECDBF1B828BB18F792C
:102C80008BB92C9A6BE771EE85E00E94F20181E02E
:102C90008093B10184E580930601E0E7F0E0808154
:102CA00081608083EFE6F0E08081816080830E9414
:102CB00045110E94611181EF898306E610E00F2E15
:102CC000FBEAFF2EF02D6894EE24E4F80EC03F9D41
:102CD000812D112486958695282F220F820F880F2B
:102CE000381303C085B18E2585B9898181508983C8
:102CF000D8018C936091B10140E080E00E949A116C
:102D00006C837D838E839F833981313E00F7683EDB
:102D1000734081059105DCF6809166008B831A82F1
:102D200095B180E1892785B985E08093B101AA2416
:102D3000A394B12C0F2EF8EECF2EF3E0DF2EF02D62
:102D40000F2EF3E08F2E912CF02D6894FF24F4F8D1
:102D500009C0C501B4010E94131F892B19F485B164
:102D60008F2585B9E4E6CE1AD108E090B1018E0135
:102D70000D5F1F4F9E012C5F3F4FAE014E5F5F4FB7
:102D8000BE016F5F7F4FC6010E941312FFEFAF1AA3
:102D9000BF0A24E6C216D104E1F66091B10140E019
:102DA00080E00E949A116C837D838E839F831091B3
:102DB00066000E944511E0E7F0E080818E7F80830D
:102DC000EFE6F0E080818E7F8083612F8EEF93E0CD
:102DD0000E948A1F612F8FEF93E00E948A1F89EF64
:102DE00093E00E94821F813049F56FEF89EF93E0F5
:102DF0000E948A1FECEBF0E034EA4BEB50E022E05B
:102E000094E869EB70E0308380818823ECF7DA0185
:102E10002C93908380818823ECF7DB018C9188319F
:102E200091F7809166000E948D158D810E948D150D
:102E30008C810E948D1584E98093BC0085B1827CD1
:102E400085B988B1887F88B9299A8BB18C6F8BB985
:102E500027960FB6F894DEBF0FBECDBFDF91CF919E
:102E60001F910F91FF90EF90DF90CF90BF90AF90A8
:102E70009F908F900895EF92FF920F931F93CF939F
:102E8000DF9300E710E0F801808181608083CFE666
:102E9000D0E08881816088830E9445110E94611181
:102EA00085E08093B1016091B10140E080E00E9433
:102EB0009A116091B10140E080E00E949A11609106
:102EC000B10140E080E00E949A11F62EE72E0E94A8
:102ED0004511F80180818E7F808388818E7F888371
:102EE000ECEBF0E034EACBEBD0E022E094E8A9EBA5
:102EF000B0E0308380818823ECF728839083808141
:102F00008823ECF78C918831A1F7809166000E94AC
:102F10008D158E2D0E948D158F2D0E948D1584E9A3
:102F20008093BC00DF91CF911F910F91FF90EF90A4
:102F30000895FF920F931F93CF93DF9380E090E06B
:102F40000E94821F082F81E090E00E94821F10E003
:102F5000102F0027080F111D0530110574F0F12CFA
:102F6000C5E0D0E0CE010E94821F811101C0F39420
:102F700021960C171D07B4F701C0F12C0E946315B0
:102F80006FEF6F0D0E94071F01E0090F11F402E0BF
:102F9000090F013069F011E0C5E0D0E0CE010E94D8
:102FA000821F811101C01F5F21961013F7CF02C04D
:102FB000C5E0D0E0ECEBF0E034EA4BEB50E022E08F
:102FC00094E869EB70E0308380818823ECF7DA01C4
:102FD0002C93908380818823ECF7DB018C918831DE
:102FE00091F7CE010E94821F0E948D152196CE017D
:102FF0000E94821F8111F5CF0E948D1580E00E94F2
:103000008D1584E98093BC00DF91CF911F910F91C2
:10301000FF900895811104C084E88093BC0003C030
:1030200084EC8093BC00ECEBF0E080818823ECF72B
:103030008091BB0008951F920F920FB60F9211243A
:103040002F933F934F935F936F937F938F939F93B0
:10305000AF93BF93CF93DF93EF93FF9380910601DC
:103060008F3428F48D34E8F48B3451F0B5C08535B5
:1030700009F492C08835A9F0843509F0ADC011C0BB
:103080008091A5018F5F8093A5018091A501833078
:1030900009F0C2C01092A5018DED91E00E944E088A
:1030A000BBC0E1E8F0E01082A4E8B0E02D913C91D3
:1030B000119711961C921E9281E080838091B1013C
:1030C0004091F6015091F70190E0481759071CF420
:1030D0001092B20157C0C901A0E0B0E02091B20146
:1030E0002130E9F018F0223099F14AC040918C0269
:1030F00050918D0260918E0270918F028452944F94
:10310000A109B109840F951FA61FB71F80938C02D8
:1031100090938D02A0938E02B0938F0231C04091A4
:103120008C0250918D0260918E0270918F028452B8
:10313000944FAF4FBF4F840F951FA61FB71F8093AB
:103140008C0290938D02A0938E02B0938F0218C0D0
:1031500040918C0250918D0260918E0270918F028D
:103160008452944FAE4FBF4F840F951FA61FB71FB9
:1031700080938C0290938D02A0938E02B0938F0265
:103180001092B2018091F6019091F701019690930F
:10319000F7018093F60140C0ECEBF0E034EACBEBB2
:1031A000D0E023E094E8A9EBB0E03083808188236D
:1031B000ECF72883908380818823ECF78C9180340E
:1031C000A1F780E00E940A1894E99093BC00811155
:1031D00023C00E946D1120C08091A5018F5F809354
:1031E000A5018091A5018031B9F41092A5018091CB
:1031F0000601863441F00E94BE0489E290E090937B
:1032000005018093040180910601863429F489E246
:103210008093B3000E940002FF91EF91DF91CF9164
:10322000BF91AF919F918F917F916F915F914F91DE
:103230003F912F910F900FBE0F901F901895CF9236
:10324000DF92EF92FF920F931F93CF93DF93EEE6FF
:10325000F0E080818E7F808310924D0210924C02AC
:1032600085E08093B101E0E7F0E0808181608083B8
:10327000EFE6F0E08081816080830E9445110E942A
:103280006111E6E6F0E0808184518083C9E2D0E0FC
:1032900006E610E06091B10141E081E00E949A11E0
:1032A000F80180818F5F80832197A1F78091ED01E4
:1032B000809366000E944511E0E7F0E080818E7FF8
:1032C0008083EFE6F0E080818E7F8083ECEBF0E09E
:1032D00034EACBEBD0E022E094E8A9EBB0E0308315
:1032E00080818823ECF72883908380818823ECF702
:1032F0008C918831A1F78091B4010E948D15809145
:10330000ED0184510E948D15C8EFD1E00F2EFAE433
:10331000EF2EF2E0FF2EF02D8E0189810E948D1597
:103320002296F80180810E948D15CE15DF05A1F748
:103330008091ED010E948D1584E98093BC00ECEB37
:10334000F0E034EACBEBD0E023E094E8A9EBB0E086
:10335000308380818823ECF72883908380818823C1
:10336000ECF78C918034A1F780E00E940A18182FA6
:1033700084E98093BC00E0E7F0E080818160808395
:10338000EFE6F0E08081816080830E9445110E9419
:1033900061111F3F29F48091ED018093660002C006
:1033A0001093660085E08093B1016091B10140E027
:1033B00080E00E949A116091B10140E080E00E949B
:1033C0009A116091B10140E080E00E949A116B0176
:1033D0007C010E944511E0E7F0E080818E7F8083D0
:1033E000EFE6F0E080818E7F8083ECEBF0E034EA62
:1033F000CBEBD0E022E094E8A9EBB0E03083808111
:103400008823ECF72883908380818823ECF78C91C4
:103410008831A1F7F7EDCF16F6E0DF06E104F104FD
:10342000DCF088E50E948D158D2D0E948D158C2D68
:103430000E948D1584E98093BC006FEF8EEF93E0BE
:103440000E948A1F6FEF8FEF93E00E948A1F809186
:10345000ED01809366003EC089E50E948D15612FC5
:103460008EEF93E00E948A1F612F8FEF93E00E94FE
:103470008A1F1F3F29F48091ED018093660006C0EA
:10348000E6E6F0E0108380818093ED018EEF93E01B
:103490000E94821F8093BB0084E88093BC00ECEB09
:1034A000F0E080818823ECF78FEF93E00E94821F89
:1034B0008093BB0084E88093BC00ECEBF0E080815B
:1034C0008823ECF784E98093BC00EEE6F0E080818D
:1034D00081608083DF91CF911F910F91FF90EF90DA
:1034E000DF90CF90089504B602FE03C084B78B7FAF
:1034F00084BFECE7F0E0808180648083A89584B786
:10350000877F84BFE0E6F0E080818861808310825D
:1035100085B78F7E85BF14B817B81AB88FEF85B9F5
:1035200088B98BB9439884B18F6384B987B18760B8
:1035300087B98AB18C6F8AB985B1827C85B988B127
:10354000887F88B9299A8BB18C6F8BB9E3E6F2E05A
:103550001082118210927B0210926202109261021C
:1035600010925202109251021092AE011092C201BA
:1035700010927602109277021092780210927902DD
:103580001092750280E28093B8008093B60010928A
:10359000A5018DEF93E00E94821F8093B40178947F
:1035A00089EF93E00E94821F813011F40E94291656
:1035B000499B04C004B600FC0E94291684B78E7F84
:1035C00084BF809166008093ED018BEF93E00E94B1
:1035D000821F813019F0833029F009C016BC83E0C6
:1035E00085BD0EC080EF86BD83E085BD09C062E069
:1035F0008BEF93E00E948A1F84ED86BD83E085BD3A
:1036000010926002EEE6F0E080818160808310928B
:103610005F02CCEBD0E00BEB10E00F2EF3E04F2E6F
:10362000F02D542C0F2EF9EBEF2EF12CF02D809174
:1036300006018634E1F3809106018B34C1F3809159
:1036400006018535A1F334E824EA2883888188239C
:10365000ECF7D8015C92388388818823ECF7F70176
:103660008081803499F08091A301813071F780E0EE
:1036700090E0FC01EA55FE4F4081FC01E251FE4F13
:103680004083019688309105A1F7DFCF1092A30106
:1036900081E00E940A18C82E882351F081E00E9420
:1036A0000A188093060180910601883059F40FC0F2
:1036B00080E00E940A1880930601809106018830FC
:1036C00009F471C310925002CC2009F46CC3D12CC0
:1036D0001C141D041CF50F2EF6EB6F2EF1E07F2E4F
:1036E000F02D812C912C5601F1E0AF1AB108A814ED
:1036F000B90431F480E00E940A18D3018C9305C00C
:1037000081E00E940A18F3018083FFEF8F1A9F0A5D
:103710004FEF641A740A8C149D0449F784E9888376
:1037200080910601863491F018F4833029F40EC09C
:10373000893461F0813551F080E090E0FC01E25184
:10374000FE4F1082019688309105C1F7E091060185
:103750008E2F90E0FC013197EA35F10508F067CF34
:10376000E85CFE4F0C94681F8091F501882309F4F2
:1037700001C130C3A6EBB1E08C91EEEEF1E08083A5
:1037800011968C911197818312968C911297828356
:1037900013968C918383148215821682178247CFE9
:1037A0008091B60190E0FC01E154F109E732F105A6
:1037B00008F03DCFEE56FE4F0C94681F84E090E079
:1037C0000BC085E090E008C086E090E005C081E095
:1037D00090E002C080E090E04091B701483008F0EE
:1037E00026CF209106012230A9F425B1227C25B9EB
:1037F00028B1287F28B9299A2BB12C6F2BB920E04A
:1038000030E0F901E251FE4F10822F5F3F4F283028
:103810003105B9F720910601233009F008CFFC01EA
:10382000E251FE4F208130E0042E02C035952795ED
:103830000A94E2F720FF0FC0FC01E251FE4F908195
:1038400021E030E002C0220F331F4A95E2F72095B5
:1038500029232083ECCEFC01E251FE4F808121E040
:1038600030E002C0220F331F4A95E2F7282B208355
:10387000DECEE6EBF1E080E090E02191DC01A251A8
:10388000BE4F2C93019688309105B9F7D0CEE6EB68
:10389000F1E0808180936702218180E090E0FC016B
:1038A000E251FE4F1082019688309105C1F723370F
:1038B00029F4809167020E94B805B9CE253709F036
:1038C000B6CE809167020E94EF05B1CEE6EBF1E043
:1038D0006081862F90E0A0E0B0E0BA2FA92F982F4A
:1038E00088272181820F911DA11DB11DBA2FA92FFB
:1038F000982F88272281820F911DA11DB11DBA2FFB
:10390000A92F982F88272381BC01CD01620F711D3B
:10391000811D911D0E940F068ACE0E946C1287CED7
:103920000E94931284CE0E94AB1381CE82E08093DA
:10393000B100E0E7F0E08081836080839BE088E174
:103940000FB6F894A895809360000FBE9093600026
:103950006ECEE6EBF1E080E090E02191DC01A25137
:10396000BE4F2C93019688309105B9F760CE0E9426
:1039700099175DCE87E090E00197FC01E251FE4F80
:1039800020812223C9F3FC01E251FE4F20812D3218
:1039900009F036C202C087E090E0019752F12DE2B3
:1039A00001C02BE240E050E0BA01FC01E251FE4FC1
:1039B0003081440F551F661F771F4A015B01880C39
:1039C000991CAA1CBB1C880C991CAA1CBB1C480D6A
:1039D000591D6A1D7B1D430F511D611D711D4053F3
:1039E000510961097109019702F72D3209F0FBC1F4
:1039F00003C040E050E0BA01709560955095419544
:103A00005F4F6F4F7F4FEFC1388388818823ECF77A
:103A1000D8012C93988388818823ECF7F701808163
:103A2000883191F7E8E6F2E02CE632E094E8819103
:103A3000D8018C93988388818823ECF7E217F307E9
:103A4000B1F784E98883F3CDE6EBF1E06081862F5E
:103A500090E0A0E0B0E0BA2FA92F982F882721810D
:103A6000820F911DA11DB11DBA2FA92F982F882754
:103A70002281820F911DA11DB11DBA2FA92F982F50
:103A800088272381BC01CD01620F711D811D911D0D
:103A90000E94590BCCCDE6EBF1E06081862F90E0DF
:103AA000A0E0B0E0BA2FA92F982F88272181820F9C
:103AB000911DA11DB11DBA2FA92F982F88272281F2
:103AC000820F911DA11DB11DBA2FA92F982F8827F4
:103AD0002381BC01CD01620F711D811D911D2DED52
:103AE00031E044810E94290E82E08093B100E0E73A
:103AF000F0E08081816080839ACD8091B6018093CF
:103B00005F02642D8BEF93E00E948A1F80915F0219
:103B100090E08830910560F5FC01E754FE4F0C946D
:103B2000681F80EF86BD45BC68C188EF86BD84E014
:103B300085BD63C184EF86BD84E085BD5EC180EF35
:103B400086BD84E085BD59C18BEF86BD85E085BD0E
:103B500054C18AEF86BD85E085BD4FC186EF86BD25
:103B600085E085BD4AC180EF86BD85E085BD45C144
:103B700080EF86BD45BC41C180915F02F901E80F2D
:103B8000F11DCF0187709078992324F40197886FF5
:103B90009F6F0196805DF901E251FE4F80832F5F98
:103BA0003F4F2830310541F742CD0E9498153FCD57
:103BB0000E941F193CCDEEE6F0E080818E7F80836D
:103BC00085B1827C85B988B1887F88B9299A8BB103
:103BD0008C6F8BB924EA94E8288388818823ECF7DA
:103BE000D8015C92988388818823ECF7F701808163
:103BF000803491F781E00E940A1890E0FC01F09770
:103C0000EA30F10590F5EF53FE4F0C94681F2998A8
:103C10008BB183788BB929C08BB1837F8BB925C0D9
:103C200029988BB18B748BB920C029988BB183767E
:103C30008BB91BC08BB183738BB917C029988BB11B
:103C400087728BB912C08BB187708BB90EC029985F
:103C50008BB1837F8BB909C029988BB183708BB9E5
:103C600004C029988BB183738BB980E00E940A1835
:103C700090E0FC01F097E830F10598F4E553FE4F31
:103C80000C94681F2C9A0DC02B9A0BC02A9A09C05D
:103C9000289A07C0429A05C0419A03C0409A01C0C1
:103CA0002D9A84E98883C3CC8091B601803319F0C2
:103CB000813341F0BCCC80910201909103010E94BC
:103CC000CC08B5CC80910001909101010E94CC08F4
:103CD000AECC8091B601813021F0A0F0833039F074
:103CE0000CC061E08BEF93E00E948A1F0BC0642D33
:103CF0008BEF93E00E948A1F05C062E08BEF93E098
:103D00000E948A1F1092600292CC81E00E946D1185
:103D10008ECC34EA22E094E8388388818823ECF75B
:103D2000D8012C93988388818823ECF7F701808150
:103D3000883191F78CEF93E00E94821F0E948D15CD
:103D400084E9888360E08CEF93E00E948A1F6FCC47
:103D50000E943B176CCC34EA22E094E838838881D7
:103D60008823ECF7D8012C93988388818823ECF77B
:103D7000F7018081883191F7809166000E948D154E
:103D80008EEF93E00E94821F0E948D158FEF93E0CB
:103D90000E94821F0E948D158091ED010E948D1559
:103DA00084E9888344CC80910601863409F4CECC22
:103DB00020F4833009F0C0CCC9CC893409F4C6CCD6
:103DC000813509F0B9CCC2CC83E090E005CD82E02A
:103DD00090E002CD8091F5018D3209F4DCCD87E0D1
:103DE00090E02BE2DFCDE8E6F2E04383528361838B
:103DF000708334EA22E094E807CE20E030E0BCCEC5
:103E000099230CF0CECD40E050E0BA01ECCF991BE5
:103E100079E004C0991F961708F0961B881F7A95C1
:103E2000C9F78095089597FB072E16F4009407D0E4
:103E300077FD09D00E946E1F07FC05D03EF49095D7
:103E400081959F4F0895709561957F4F0895A1E2E8
:103E50001A2EAA1BBB1BFD010DC0AA1FBB1FEE1F04
:103E6000FF1FA217B307E407F50720F0A21BB30B4F
:103E7000E40BF50B661F771F881F991F1A9469F7CB
:103E800060957095809590959B01AC01BD01CF0127
:103E90000895052E97FB1EF400940E94601F57FDA5
:103EA00007D00E94271F07FC03D04EF40C94601F1C
:103EB00050954095309521953F4F4F4F5F4F089556
:103EC00090958095709561957F4F8F4F9F4F089586
:103ED000EE0FFF1F0590F491E02D0994AA1BBB1B68
:103EE00051E107C0AA1FBB1FA617B70710F0A61BFA
:103EF000B70B881F991F5A95A9F780959095BC011B
:103F0000CD010895F999FECF92BD81BDF89A992708
:103F100080B50895262FF999FECF1FBA92BD81BDB5
:103F200020BD0FB6F894FA9AF99A0FBE019608953B
:043F3000F894FFCF33
:103F340007016701290001535720696E666F726D8E
:103F44006174696F6E3A426F6F746C6F616465720D
:103F540020636F6E7461696E7320636F6465206E95
:103F6400656564656420746F20726573657420747C
:103F74006865206D696E695F4F530D0A696E207420
:103F84006865206576656E74206F662061206372B3
:103F94006173682E0D0A0053797374656D20666928
:103FA4006C65733A206D696E695F4F535F43415F7F
:103FB400646973706C617920706C757320706362CE
:103FC4005F426F6F746C6F616465725F4341200D73
:023FD4000A00E1
