:107000000C9434380C9451380C9451380C945138F9
:107010000C9451380C9451380C9451380C945138CC
:107020000C9451380C9451380C9451380C945138BC
:107030000C9451380C9451380C9451380C945138AC
:107040000C9451380C9451380C94063A0C945138E5
:107050000C9451380C9451380C9451380C9451388C
:107060000C9451380C94513811241FBECFEFD8E046
:10707000DEBFCDBF11E0A0E0B1E0ECE2FFE702C06F
:1070800005900D92AE34B107D9F722E0AEE4B1E03D
:1070900001C01D92A132B207E1F70E942D3E0C946F
:1070A000943F0C9400380000000000000000089598
:1070B000CF92DF92FF920F931F93CF93DF93EB0159
:1070C000F42E883431F08C3441F4C12C80E4D82E75
:1070D00006C0C12C98E4D92E02C0C12CD12C00E0EE
:1070E00010E095B1809116028095892385B9809131
:1070F00009029601002E02C0220F331F0A94E2F704
:1071000095B137FF02C0892B02C08095892385B9CC
:1071100095B180911602892B85B90E9453380F5F73
:107120001F4F00311105E9F600E010E095B18091A4
:1071300016028095892385B9809109029E01002E4F
:1071400001C0220F0A94EAF795B127FF02C0892BEC
:1071500002C08095892385B995B180911602892B4B
:1071600085B90E9453380F5F1F4F08301105F1F6A3
:10717000C0E0D0E00F2D10E095B18091160280950F
:10718000892385B98091090298010C2E01C0220F34
:107190000A94EAF795B127FF02C0892B02C08095B7
:1071A000892385B995B180911602892B85B90E94F2
:1071B00053382196C830D105F9F695B18091160261
:1071C0008095892385B9DF91CF911F910F91FF9011
:1071D000DF90CF90089520E030E04091C00047FD5F
:1071E0000DC02F5F3F4F213A4FE034071CF001974D
:1071F00020E030E0009789F780E0089581E008956D
:107200009091C00095FFFCCF8093C60008950F9326
:107210001F93CF93DF93EC018C0108531F4F89918B
:10722000882329F00E940039C017D107C1F7DF91E8
:10723000CF911F910F91089590910C02809154016C
:107240009817D1F3E0910C02F0E0EE0FFF1FE35A24
:10725000FE4F2081318120930E0280910C028F5FBE
:1072600080930C0280910C028F7380930C02822F0A
:1072700027FF02C081E0820F8595809350018091A5
:10728000110280311CF481E08093FD0120931102F2
:1072900090910C02809154019817D1F3E0910C0267
:1072A000F0E0EE0FFF1FE35AFE4F808191812091A5
:1072B0000C022F5F20930C0220910C022F7320935D
:1072C0000C0297FD01969595879590930702809300
:1072D000060240911F02509120024F5F5F4F509372
:1072E000200240931F0220915801309159018217CA
:1072F000930751F1009751F12091560130915701B8
:10730000822393236091190270911A0220911B022B
:1073100030911C02260F371F2817390734F421E05B
:107320002093FE011092120208C08217930729F4DD
:107330001092FE0121E0209312028617970731F484
:107340001092FE011092120210920D0243FF02C031
:107350005F9808955F9A08958091060290910702C0
:107360009093590180935801209156013091570113
:107370002823392330931A0220931902AC01421BAF
:10738000530B509314024093130220911302309137
:10739000140287708093FF012093170280911B02D3
:1073A000821B80935301089590910C0280915401A7
:1073B0009817D1F3E0910C02F0E0EE0FFF1FE35AB3
:1073C000FE4F808191819093010280930002809111
:1073D0000C028F5F80930C0280910C028F7380935C
:1073E0000C0208950E94D439609113027091140226
:1073F000409100028CE40E94583860911302709111
:1074000014024091010288E40C9458381F920F92A4
:107410000FB60F9211242F933F934F935F938F9347
:107420009F93EF93FF938091C6008A3331F41092BB
:10743000100210920F0280E005C08A3310F48053CE
:1074400001C0875320910F02309110022330310583
:10745000B9F1F4F42130310571F12230310509F030
:1074600064C020911D0230911E02280F311D3093FF
:107470001E0220931D0220911D0230911E02220F38
:10748000331F275F3F4F30930302209302023CC01B
:107490002530310579F1ECF02630310509F045C091
:1074A00020911D0230911E02280F311D30931E02C3
:1074B00020931D0229C040E1849F9001112404C043
:1074C00050E1859F9001112430931E0220931D02EC
:1074D0002CC020911D0230911E02280F311D3093C7
:1074E0001E0220931D0220911D0230911E02322F98
:1074F0002227EACF20911D0230911E0290E1899F40
:10750000200D311D1124E0CFE091540191E09E0F38
:1075100090935401F0E020911D0230911E02EE0F75
:10752000FF1FE35AFE4F3183208320910F023091D9
:107530001002293031050CF47DC040910F025091AA
:1075400010022091020230910302421753070CF0FF
:1075500071C020910F023091100223703327213027
:10756000310541F440E1849F9001112430931E02C3
:1075700020931D0220910F023091100223703327B7
:107580002230310551F420911D0230911E02280F46
:10759000311D30931E0220931D0220910F02309165
:1075A0001002237033272330310541F450E1859FC9
:1075B00090011124309305022093040220910F02C0
:1075C0003091100223703327232BA1F52091040260
:1075D00030910502A901480F511D509305024093B7
:1075E00004028091040290910502982F88279093BD
:1075F00005028093040220910402309105028091DB
:107600001D0290911E02820F931F90931E02809381
:107610001D02E091540181E08E0F80935401F0E04F
:1076200080911D0290911E02EE0FFF1FE35AFE4F44
:107630009183808380910F02909110020196909324
:10764000100280930F02809154018F738093540134
:10765000FF91EF919F918F915F914F913F912F916A
:107660000F900FBE0F901F90189566BD85BD85B316
:107670008823E9F3A89A15BC08955F926F927F92D0
:107680008F929F92AF92BF92CF92DF92EF92FF9232
:107690000F931F93CF93DF937C018B014C01A12C9F
:1076A000B12C540199248824860E971EA11CB11C6C
:1076B000C0E0D0E095B1809116028095892385B90C
:1076C0008091090297010C2E02C0220F331F0A94E9
:1076D000E2F795B137FF02C0892B02C0809589235C
:1076E00085B995B180911602892B85B90E945338CE
:1076F0002196C031D105F1F6C0E0D0E0512C8FE0E9
:10770000682E712CEE24E394F12C27E0C22ED12CAC
:1077100095B1809116028095892385B980910902DF
:1077200098010C2E02C0220F331F0A94E2F795B184
:1077300037FF02C0892B02C08095892385B995B196
:1077400080911602892B85B90E94533881149104C7
:10775000A10420E3B20689F08114910433E5A30665
:107760003CEAB306E1F4C830D105CCF493B1809182
:1077700008028923A1F0C60109C0C830D1057CF0F8
:1077800093B180910802892351F0C3018C1B9D0B9A
:10779000970102C0220F331F8A95E2F7522A2196E1
:1077A000C031D10509F0B4CF95B180911602809512
:1077B000892385B967EB85E00E94353B852DDF91F4
:1077C000CF911F910F91FF90EF90DF90CF90BF90DE
:1077D000AF909F908F907F906F905F900895AF9241
:1077E000BF92CF92DF92EF92FF920F931F93CF93AE
:1077F000DF93B82E8B01C42FE8EBE80FE03128F4BB
:10780000F0E0E35CFE4FE08001C0E12CC12CD12C04
:10781000F12C95B1809116028095892385B98091CC
:10782000090297010C2C01C0220F0A94EAF795B1C6
:1078300027FF02C0892B02C08095892385B995B1A5
:1078400080911602892B85B90E9453384FEFC41AD4
:10785000D40A58E0C516D104E1F6E12CF12C95B11B
:10786000809116028095892385B98091090298013B
:107870000E2C02C0220F331F0A94E2F795B137FF96
:1078800002C0892B02C08095892385B995B180916A
:107890001602892B85B90E9453388FEFE81AF80A2F
:1078A00090E1E916F104D9F687E0C82ED12CA12C7D
:1078B000D0E007E010E0EE24E394F12C95B1809144
:1078C00016028095892385B98091090249E495B112
:1078D000B4120DC098012C193D09AE0102C0440F2D
:1078E000551F2A95E2F747FF02C0892B02C08095F9
:1078F000892385B995B180911602892B85B90E949B
:10790000533893B180910802892339F0C7010C2CB8
:1079100001C0880F0A94EAF7A82A51E0C51AD108D5
:1079200068F695B1809116028095892385B997E50F
:10793000B91204C06CED85E00E94353B8A2DDF91C1
:10794000CF911F910F91FF90EF90DF90CF90BF905C
:10795000AF900895CF93C1E080915001882309F43E
:1079600050C080915001815080935001C093180203
:107970000E94F23980911302909114020196909323
:10798000140280931302809158019091590101963D
:1079900090935901809358018091530181508093B5
:1079A000530180915101909152010196909352019F
:1079B00080935101209113023091140280911B0297
:1079C00090911C022817390739F6609119027091BD
:1079D0001A0240E087E50E94EF3B109218021092D5
:1079E00014021092130280911B0280935301809124
:1079F000FF0180931702882309F4AECFC0930D02D4
:107A0000ABCFCF91089540E0BC0187E50E94EF3BEA
:107A10001092180208950E941C391092FD010E94D4
:107A2000AC390E94AA3C0E941C3980910E02882326
:107A300009F46FC0809106029091070220915801CD
:107A4000309159018217930709F52091FD01211109
:107A500054C040915301042E000C550B6091170245
:107A600020911B0230911C02261B310967FD3395C2
:107A700042175307B1F620915601309157018223E6
:107A8000932390931A0280931902CBCF8091FE0129
:107A90008823F9F080911802882351F080910D021B
:107AA000811106C08091190290911A020E94033D33
:107AB00080910D02882309F12091190230911A0258
:107AC00080911B0290911C02820F931F0E94033D24
:107AD00014C080911202882381F0809118028823BB
:107AE00051F080910D02811106C080911902909190
:107AF0001A020E94033D10920D020E94AC390E94AE
:107B0000AA3C8091FD01882309F48DCF1092FD01DC
:107B10008ACF8091C1008F778093C10082E090E08E
:107B20000E94EB38813019F48091C600F7CF809124
:107B30001802882351F080910D02811106C08091B6
:107B4000190290911A020E94033D80910D02882330
:107B500061F02091190230911A0280911B029091DC
:107B60001C02820F931F0C94033D0895DF92EF9245
:107B7000FF920F931F93CF93DF9310924F011092B8
:107B80004E011092010210920002D12C00E010E090
:107B9000E12CF12C40E0B8018CE40E94EF3BC82FAF
:107BA000D0E0D0930102C093000240E0B80188E425
:107BB0000E94EF3BDC2FCC27C80FD11DD0930102D0
:107BC000C09300020F5F1F4F8FEFE81AF80A8091F1
:107BD0000A0290910B0208171907E9F0219691F01B
:107BE00080914E0190914F01019690934F018093A7
:107BF0004E0120915101309152018217930714F0E8
:107C000084E0D82E88ECE816F10421F68AE28D0D86
:107C10000E940039BDCFDF91CF911F910F91FF904E
:107C2000EF90DF900895CF93DF93D82FC62F64E6AF
:107C300085E00E94353BE1ECF0E01082D093C50076
:107C4000C093C40082E08093C00088E1808386E016
:107C50008093C200DF91CF910895A89584B7877F64
:107C600084BF809160008861809360001092600002
:107C7000609166008DEF93E00E94863F8EEF93E067
:107C80000E947E3FC82F80EF8C0F803E50F48FEF14
:107C900093E00E947E3FC81304C0C0936600C1E019
:107CA00001C0C0E004B601FC05C081E085BF15BE7F
:107CB0000C94000085B78F7E85BF24982C9A63ECC6
:107CC00084E00E94353B1C9905C081E085BF15BE4C
:107CD0000C9400002C9881E085BF82E085BF84B7BA
:107CE0008D7F84BF579A5F9A87E088B980917C0026
:107CF000806480937C0060E180E00E94133ED8E0C5
:107D000080E1982E90E2892E00E410E020ECE22E33
:107D10002FE3F22EC12C30E4D32EAA24A394B12C4D
:107D2000D09309029092080280921602D093150215
:107D300084B1886284B93B9A63EC84E00E94353B4D
:107D400098B1809115028095892388B995B1809169
:107D500016028095892385B963EC84E00E94353B47
:107D600098B180911502892B88B963EC84E00E9458
:107D7000353B98B1809115028095892388B964E6D6
:107D800085E00E94353B60E070E083E59CEA0E945C
:107D90003D3B833509F0AEC060E070E080E090E3E9
:107DA0000E943D3B8E3109F0A5C080E091E00E9429
:107DB00007398CE291E00E94EB388823B1F380917F
:107DC000C60080935A018037C1F0873639F0883772
:107DD00061F761E08CEF93E00E94863F86E091E0DE
:107DE0000E9407399AE088E10FB6F894A89580932D
:107DF00060000FBE90936000FFCF8CE091E00E9486
:107E000007395F9810931C0200931B02F0925701F0
:107E1000E0925601D0920B02C0920A02B092100278
:107E2000A0920F0210925201109251011092110271
:107E30001092180210925901109258011092FE01EE
:107E400010920D021092540110920C021092200216
:107E500010921F0260E070E083E59CEA0E943D3BC7
:107E600060E070E080E89CEA0E943D3B8091C100A8
:107E700080688093C10078940E940B3D6DEF70E0A4
:107E800084EA9CEA0E943D3B67ED70E088EA9CEA48
:107E90000E943D3B62EC70E080EA9CEA0E943D3B20
:107EA0006FEF70E080EE9CEA0E943D3B5F9A0E947B
:107EB000B63D98B180911502892B88B92091510166
:107EC0003091520180914E0190914F01281739074E
:107ED00019F486E291E002C08AE291E00E9407393B
:107EE000C13019F48FE291E002C086E391E00E9474
:107EF000073916CF81E20E940039F2CFF999FECFFF
:107F000092BD81BDF89A992780B50895262FF999D9
:107F1000FECF1FBA92BD81BD20BD0FB6F894FA9A6C
:0C7F2000F99A0FBE01960895F894FFCF67
:107F2C00702F672020005377210D0A000D0A53652E
:107F3C006E642066696C65202841544D4547413379
:107F4C0032383A0D0A00204F4B0021213F3F0020D0
:107F5C002055430D0A00202044430D0A0028000040
:0E7F6C000020000000000000000000004C009B
:040000030000700089
:00000001FF
