:100000000C9435000C945D000C945D000C945D0024
:100010000C945D000C945D000C945D000C945D00EC
:100020000C945D000C945D000C945D000C945D00DC
:100030000C945D000C945D000C945D000C945D00CC
:100040000C945D000C945D000C946C020C944602C0
:100050000C945D000C945D000C945D000C945D00AC
:100060000C945D000C945D009E0211241FBECFEF26
:10007000D8E0DEBFCDBF11E0A0E0B1E0E6E7F9E0F7
:1000800002C005900D92A83EB107D9F722E0A8EE74
:10009000B1E001C01D92A838B207E1F710E0C5E356
:1000A000D0E004C02197FE010E94B304C433D107FD
:1000B000C9F70E94CB020C94B9040C940000AF92D3
:1000C000BF92CF92DF92EF92FF920F931F93CF9345
:1000D000DF936C017B018B01040F151FEB015E01A7
:1000E000AE18BF08C017D10759F06991D601ED913C
:1000F000FC910190F081E02DC6010995892B79F7DB
:10010000C501DF91CF911F910F91FF90EF90DF908C
:10011000CF90BF90AF900895FC01538D448D252F53
:1001200030E0842F90E0821B930B541710F0CF9691
:10013000089501970895FC01918D828D981761F0C3
:10014000A28DAE0FBF2FB11D5D968C91928D9F5FDA
:100150009F73928F90E008958FEF9FEF0895FC01B9
:10016000918D828D981731F0828DE80FF11D858D6C
:1001700090E008958FEF9FEF0895FC01918D228DFF
:10018000892F90E0805C9F4F821B91098F73992784
:100190000895FC01A48DA80FB92FB11DA35ABF4F1C
:1001A0002C91848D90E001968F739927848FA68976
:1001B000B7892C93A089B1898C91837080648C93CA
:1001C000938D848D981306C00288F389E02D808179
:1001D0008F7D80830895EF92FF920F931F93CF93AB
:1001E000DF93EC0181E0888F9B8D8C8D98131AC072
:1001F000E889F989808185FF15C09FB7F894EE8959
:10020000FF896083E889F9898081837080648083B5
:100210009FBF81E090E0DF91CF911F910F91FF9000
:10022000EF900895F62E0B8D10E00F5F1F4F0F73A8
:100230001127E02E8C8D8E110CC00FB607FCFACF63
:10024000E889F989808185FFF5CFCE010E94C90038
:10025000F1CFEB8DEC0FFD2FF11DE35AFF4FF08234
:100260009FB7F8940B8FEA89FB8980818062CFCF9A
:10027000CF93DF93EC01888D8823B9F0AA89BB89DD
:10028000E889F9898C9185FD03C0808186FD0DC0C8
:100290000FB607FCF7CF8C9185FFF2CF808185FFE9
:1002A000EDCFCE010E94C900E9CFDF91CF91089533
:1002B00084E88093BC008091BC0087FFFCCF8091D4
:1002C000BB00089584EC8093BC008091BC0087FF44
:1002D000FCCF8091BB0008958093BB0084E880939D
:1002E000BC008091BC0087FFFCCF08958093BB00C9
:1002F00084EC8093BC008091BC0087FFFCCF089504
:10030000CF92DF92EF92FF920F931F93CF93DF93E1
:10031000C82F062F142FD52F84E48093BC00809122
:10032000BC0087FD02C0A895FACF8091BB008C2F3E
:100330000E947601802F0E947601E12EFD2E10E0B2
:1003400000E00C2E000CDD0B6E0181E0C81AD10814
:100350000C171D0774F4F70181917F01C016D106B7
:1003600029F40E946C010F5F1F4FF2CF0E947601AB
:10037000FACF80E88093BC00DF91CF911F910F915D
:10038000FF90EF90DF90CF900895CF92DF92EF92A1
:10039000FF920F931F93CF93DF9300D0CDB7DEB7BB
:1003A00089831A82AE014F5F5F4F60E581E00E9452
:1003B000800184E48093BC008091BC0087FD02C072
:1003C000A895FACF8091BB000E946201182F0E946D
:1003D0006201105300ED080F8AE0189F000D1124F0
:1003E000F12CE12C002E000C110B680181E0C81AE1
:1003F000D108E016F1068CF4CE14DF0459F40E9403
:100400005801682F8BEE91E00E94EB008FEFE81A05
:10041000F80AEFCF0E946201F4CF80E88093BC001D
:100420000F900F90DF91CF911F910F91FF90EF9060
:10043000DF90CF9008958BEE91E00E94BD00892B54
:1004400011F4A895F8CF8BEE91E00E949B000895DF
:1004500030E020E042EB55E046BD55BDA89BFECF05
:10046000A89A15BCA8952F5F3F4F82179307A1F755
:100470000895FC0101900020E9F73197AF01481B76
:10048000590BBC018BEE91E00C945F001F920F9210
:100490000FB60F9211242F933F934F935F936F9357
:1004A0007F938F939F93AF93BF93EF93FF938BEEC5
:1004B00091E00E94C900FF91EF91BF91AF919F9190
:1004C0008F917F916F915F914F913F912F910F90FD
:1004D0000FBE0F901F9018951F920F920FB60F929C
:1004E00011242F938F939F93EF93FF93E091FB0140
:1004F000F091FC018081E0910102F091020282FD05
:100500001BC09081809104028F5F8F732091050240
:10051000821741F0E0910402F0E0E551FE4F958F23
:1005200080930402FF91EF919F918F912F910F90F3
:100530000FBE0F901F9018958081F4CFEBEEF1E085
:100540001382128288EE93E0A0E0B0E0848395836A
:10055000A683B78384E091E09183808385EC90E06B
:100560009587848784EC90E09787868780EC90E07D
:10057000918B808B81EC90E0938B828B82EC90E06E
:10058000958B848B86EC90E0978B868B118E128EE8
:10059000138E148E0895CF93DF9300D000D0CDB783
:1005A000DEB704B603FE03C082E08093EA0104B61E
:1005B00000FE03C081E08093EA0104B601FE03C09F
:1005C00083E08093EA018091EA01823049F48AEF66
:1005D00093E00E949D04811103C084E08093EA01AE
:1005E0008091EA01823049F48AEF93E00E949D04F1
:1005F000813019F485E08093EA016FEF8AEF93E090
:100600000E94A50414BEA8958FB78093E901F894C1
:10061000809160008861809360001092600014BE39
:100620008091E9018FBF82E08093BA0080917C00C5
:10063000806480937C0085B78F7E85BF8AB18B777D
:100640008AB98BB184688BB926982E9A83E084B9D5
:1006500085B78F7E85BF84B18B7784B987B1887F5A
:1006600087B98AB187788AB985B1846885B988B134
:10067000876088B98BB188678BB9609166008DEF10
:1006800093E00E94A504499BFECF85E090E00E9484
:1006900028028EEF93E00E949D04182F80EF810FB7
:1006A000803E40F48FEF93E00E949D04181302C037
:1006B00010936600E091FB01F091FC0182E08083E1
:1006C000E091F701F091F8011082E091F901F091C9
:1006D000FA0180E1808310920302E091FF01F09122
:1006E000000286E08083E091FD01F091FE018081AF
:1006F00080618083E091FD01F091FE01808188603E
:100700008083E091FD01F091FE018081806880830B
:10071000E091FD01F091FE0180818F7D80837894CE
:1007200081E090E00E94280284E48093BC008091E4
:10073000BC0087FD02C0A895FACF8091BB0080E085
:100740000E94760186E50E946C0184E88093BC00DB
:100750008091BC0081648093BC0084E48093BC00E1
:100760008091BC0087FD02C0A895FACF8091BB00A4
:100770000E945801813009F0C4C080E88093BC0019
:1007800082E191E00E94390244E4C42E50E8B52E83
:1007900068E1962E79E0872EEEE97E2EF2E66F2E46
:1007A00055245A94A3E0AA2EB2E04B2E80E691E0A5
:1007B0000E94390280E30E94C50180E691E00E9418
:1007C000390281E30E94C50183E691E00E9439026B
:1007D0000E941B02833339F0843371F185EB91E081
:1007E0000E943902E3CF1092E801C092BC008091D0
:1007F000BC0087FD02C0A895FACF8091BB0080E0C5
:100800000E94760188E40E946C01B092BC00C09204
:10081000BC008091BC0087FD02C0A895FACF8091F2
:10082000BB000E946201882309F474C0682F8BEE1C
:1008300091E00E94EB00F5CF19824A9B02C01E99FD
:1008400089B14A9906C01E9904C04F9B02C081E03D
:1008500089834A9904C01E9B02C04F9B49824A9BD0
:1008600004C01E9902C04F9BA982AE014F5F5F4F2B
:1008700061E581E00E9480010FB6F894A8959092FE
:1008800060000FBE80926000DD24D39430E1E32E3F
:10089000F12C312C01E010E009831A83C801809506
:1008A00090958B839C83AE014F5F5F4F61E084E046
:1008B0000E948001709285006092840056BAA092D6
:1008C0008100B09902C0A895FCCFB09A1092810027
:1008D000C801880F991F25E02D158CF0082B192BC6
:1008E000D394A8953110016081E0E81AF108312E07
:1008F000331C3324331CE114F10471F66FCF8C01E7
:10090000F1CF80E88093BC0084EC91E00E94390232
:10091000A895FECF0E945801B092BC0080E691E0FD
:100920000E9439021091E8011F5F1093E8010E94B4
:100930001B0213300CF459CF51CFF999FECF92BD61
:1009400081BDF89A992780B50895262FF999FECF91
:100950001FBA92BD81BD20BD0FB6F894FA9AF99ADC
:100960000FBE01960895EE0FFF1F0590F491E02D44
:060970000994F894FFCF8A
:1009760000000000EB005F008C003801BD009B000A
:10098600AF000D0A546F2061646775737420646943
:1009960073706C61792062726967686E6573732023
:1009A600707265737320616E79203220757365727B
:1009B60020737769746368657320616E6420707252
:1009C600657373203420617420746865204B42443B
:1009D6000D0A000D0A50726573730D0A33204D65BA
:1009E60073736167652066726F6D20746865204F4A
:1009F6005320287820746F20657363617065290D14
:100A06000A3420446973706C617920627269676880
:100A1600746E6573730D0A3020746F20657363619D
:100A260070650D0A000D0A414B20746F20726570C7
:100A360065617400417420702F672070726F6D704D
:100A460074207072657373207820666F72207665E5
:080A56007273696F6E0D0A0056
:00000001FF
